{"contracts/GoalsProtocolNFT.sol":{"GoalsProtocolNFT":{"abi":[{"inputs":[{"internalType":"address","name":"_royaltyRecipient","type":"address"},{"internalType":"address","name":"_dataOracle","type":"address"},{"internalType":"address","name":"_agentRegulator","type":"address"},{"internalType":"string","name":"_baseURI","type":"string"}],"stateMutability":"nonpayable","type":"constructor"},{"anonymous":false,"inputs":[{"indexed":true,"internalType":"uint256","name":"tokenId","type":"uint256"},{"indexed":false,"internalType":"string","name":"achievement","type":"string"}],"name":"AchievementUnlocked","type":"event"},{"anonymous":false,"inputs":[{"indexed":true,"internalType":"uint256","name":"tokenId","type":"uint256"},{"indexed":false,"internalType":"string","name":"reason","type":"string"}],"name":"AgentDegraded","type":"event"},{"anonymous":false,"inputs":[{"indexed":true,"internalType":"uint256","name":"tokenId","type":"uint256"}],"name":"AgentDisabled","type":"event"},{"anonymous":false,"inputs":[{"indexed":true,"internalType":"uint256","name":"tokenId","type":"uint256"},{"indexed":true,"internalType":"address","name":"agentWallet","type":"address"}],"name":"AgentEnabled","type":"event"},{"anonymous":false,"inputs":[{"indexed":true,"internalType":"uint256","name":"tokenId","type":"uint256"},{"indexed":false,"internalType":"string","name":"resolution","type":"string"}],"name":"AgentRecovered","type":"event"},{"anonymous":false,"inputs":[{"indexed":true,"internalType":"address","name":"owner","type":"address"},{"indexed":true,"internalType":"address","name":"approved","type":"address"},{"indexed":true,"internalType":"uint256","name":"tokenId","type":"uint256"}],"name":"Approval","type":"event"},{"anonymous":false,"inputs":[{"indexed":true,"internalType":"address","name":"owner","type":"address"},{"indexed":true,"internalType":"address","name":"operator","type":"address"},{"indexed":false,"internalType":"bool","name":"approved","type":"bool"}],"name":"ApprovalForAll","type":"event"},{"anonymous":false,"inputs":[{"indexed":true,"internalType":"uint256","name":"tokenId","type":"uint256"},{"indexed":false,"internalType":"string","name":"issue","type":"string"},{"indexed":false,"internalType":"string","name":"action","type":"string"}],"name":"AutoRemediation","type":"event"},{"anonymous":false,"inputs":[{"indexed":false,"internalType":"uint256","name":"_fromTokenId","type":"uint256"},{"indexed":false,"internalType":"uint256","name":"_toTokenId","type":"uint256"}],"name":"BatchMetadataUpdate","type":"event"},{"anonymous":false,"inputs":[{"indexed":true,"internalType":"uint256","name":"tokenId","type":"uint256"},{"indexed":false,"internalType":"uint256","name":"boostEndTime","type":"uint256"}],"name":"CardBoosted","type":"event"},{"anonymous":false,"inputs":[{"indexed":true,"internalType":"uint256","name":"tokenId","type":"uint256"},{"indexed":false,"internalType":"string","name":"issue","type":"string"},{"indexed":false,"internalType":"bool","name":"autoResolved","type":"bool"}],"name":"DiagnosticsReported","type":"event"},{"anonymous":false,"inputs":[{"indexed":true,"internalType":"uint256","name":"tokenId","type":"uint256"},{"indexed":false,"internalType":"bool","name":"won","type":"bool"},{"indexed":false,"internalType":"uint256","name":"goals","type":"uint256"},{"indexed":false,"internalType":"uint256","name":"assists","type":"uint256"}],"name":"MatchPlayed","type":"event"},{"anonymous":false,"inputs":[{"indexed":false,"internalType":"uint256","name":"_tokenId","type":"uint256"}],"name":"MetadataUpdate","type":"event"},{"anonymous":false,"inputs":[{"indexed":true,"internalType":"address","name":"previousOwner","type":"address"},{"indexed":true,"internalType":"address","name":"newOwner","type":"address"}],"name":"OwnershipTransferred","type":"event"},{"anonymous":false,"inputs":[{"indexed":false,"internalType":"address","name":"account","type":"address"}],"name":"Paused","type":"event"},{"anonymous":false,"inputs":[{"indexed":true,"internalType":"uint256","name":"tokenId","type":"uint256"},{"indexed":true,"internalType":"address","name":"owner","type":"address"},{"indexed":false,"internalType":"string","name":"playerName","type":"string"},{"indexed":false,"internalType":"enum GoalsProtocolNFT.Rarity","name":"rarity","type":"uint8"},{"indexed":false,"internalType":"uint256","name":"price","type":"uint256"}],"name":"PlayerMinted","type":"event"},{"anonymous":false,"inputs":[{"indexed":true,"internalType":"uint256","name":"tokenId","type":"uint256"},{"indexed":false,"internalType":"enum GoalsProtocolNFT.AgentHealth","name":"health","type":"uint8"},{"indexed":false,"internalType":"bool","name":"issuesFound","type":"bool"}],"name":"SelfCheckPerformed","type":"event"},{"anonymous":false,"inputs":[{"indexed":true,"internalType":"uint256","name":"tokenId","type":"uint256"},{"components":[{"internalType":"uint256","name":"distanceCovered","type":"uint256"},{"internalType":"uint16","name":"sprints","type":"uint16"},{"internalType":"uint16","name":"topSpeed","type":"uint16"},{"internalType":"uint8","name":"fatigueLevel","type":"uint8"},{"internalType":"uint16","name":"passesCompleted","type":"uint16"},{"internalType":"uint8","name":"shotsOnTarget","type":"uint8"},{"internalType":"uint8","name":"goals","type":"uint8"},{"internalType":"uint8","name":"assists","type":"uint8"},{"internalType":"uint256","name":"lastUpdate","type":"uint256"}],"indexed":false,"internalType":"struct GoalsProtocolNFT.LiveStats","name":"newStats","type":"tuple"}],"name":"StatsUpdated","type":"event"},{"anonymous":false,"inputs":[{"indexed":true,"internalType":"address","name":"from","type":"address"},{"indexed":true,"internalType":"address","name":"to","type":"address"},{"indexed":true,"internalType":"uint256","name":"tokenId","type":"uint256"}],"name":"Transfer","type":"event"},{"anonymous":false,"inputs":[{"indexed":false,"internalType":"address","name":"account","type":"address"}],"name":"Unpaused","type":"event"},{"inputs":[],"name":"BOOST_DURATION","outputs":[{"internalType":"uint256","name":"","type":"uint256"}],"stateMutability":"view","type":"function"},{"inputs":[],"name":"MAX_CONSECUTIVE_ERRORS","outputs":[{"internalType":"uint256","name":"","type":"uint256"}],"stateMutability":"view","type":"function"},{"inputs":[],"name":"MAX_MINT_PER_TX","outputs":[{"internalType":"uint256","name":"","type":"uint256"}],"stateMutability":"view","type":"function"},{"inputs":[],"name":"MAX_SELF_CHECK_INTERVAL","outputs":[{"internalType":"uint256","name":"","type":"uint256"}],"stateMutability":"view","type":"function"},{"inputs":[],"name":"MAX_SUPPLY_LIMIT","outputs":[{"internalType":"uint256","name":"","type":"uint256"}],"stateMutability":"view","type":"function"},{"inputs":[],"name":"MIN_SELF_CHECK_INTERVAL","outputs":[{"internalType":"uint256","name":"","type":"uint256"}],"stateMutability":"view","type":"function"},{"inputs":[],"name":"ROYALTY_PERCENTAGE","outputs":[{"internalType":"uint256","name":"","type":"uint256"}],"stateMutability":"view","type":"function"},{"inputs":[{"internalType":"uint256","name":"","type":"uint256"},{"internalType":"uint256","name":"","type":"uint256"}],"name":"agentDiagnostics","outputs":[{"internalType":"uint256","name":"timestamp","type":"uint256"},{"internalType":"string","name":"issue","type":"string"},{"internalType":"string","name":"resolution","type":"string"},{"internalType":"bool","name":"autoResolved","type":"bool"}],"stateMutability":"view","type":"function"},{"inputs":[],"name":"agentRegulator","outputs":[{"internalType":"address","name":"","type":"address"}],"stateMutability":"view","type":"function"},{"inputs":[{"internalType":"address","name":"to","type":"address"},{"internalType":"uint256","name":"tokenId","type":"uint256"}],"name":"approve","outputs":[],"stateMutability":"nonpayable","type":"function"},{"inputs":[{"internalType":"address","name":"","type":"address"}],"name":"authorizedMinters","outputs":[{"internalType":"bool","name":"","type":"bool"}],"stateMutability":"view","type":"function"},{"inputs":[{"internalType":"address","name":"","type":"address"}],"name":"authorizedUpdaters","outputs":[{"internalType":"bool","name":"","type":"bool"}],"stateMutability":"view","type":"function"},{"inputs":[{"internalType":"address","name":"owner","type":"address"}],"name":"balanceOf","outputs":[{"internalType":"uint256","name":"","type":"uint256"}],"stateMutability":"view","type":"function"},{"inputs":[],"name":"baseExtension","outputs":[{"internalType":"string","name":"","type":"string"}],"stateMutability":"view","type":"function"},{"inputs":[],"name":"baseURI","outputs":[{"internalType":"string","name":"","type":"string"}],"stateMutability":"view","type":"function"},{"inputs":[{"internalType":"uint256[]","name":"_tokenIds","type":"uint256[]"}],"name":"batchSelfCheck","outputs":[],"stateMutability":"nonpayable","type":"function"},{"inputs":[{"internalType":"uint256","name":"tokenId","type":"uint256"}],"name":"burn","outputs":[],"stateMutability":"nonpayable","type":"function"},{"inputs":[{"internalType":"enum GoalsProtocolNFT.Rarity","name":"","type":"uint8"}],"name":"currentSupply","outputs":[{"internalType":"uint256","name":"","type":"uint256"}],"stateMutability":"view","type":"function"},{"inputs":[],"name":"dataOracle","outputs":[{"internalType":"address","name":"","type":"address"}],"stateMutability":"view","type":"function"},{"inputs":[{"internalType":"uint256","name":"_tokenId","type":"uint256"}],"name":"disableAgent","outputs":[],"stateMutability":"nonpayable","type":"function"},{"inputs":[{"internalType":"uint256","name":"_tokenId","type":"uint256"},{"internalType":"address","name":"_agentWallet","type":"address"}],"name":"enableAgent","outputs":[],"stateMutability":"nonpayable","type":"function"},{"inputs":[{"internalType":"uint256","name":"_tokenId","type":"uint256"},{"internalType":"string","name":"_reason","type":"string"}],"name":"forceAgentRecovery","outputs":[],"stateMutability":"nonpayable","type":"function"},{"inputs":[{"internalType":"uint256","name":"_tokenId","type":"uint256"}],"name":"getAgentDiagnostics","outputs":[{"components":[{"internalType":"uint256","name":"timestamp","type":"uint256"},{"internalType":"string","name":"issue","type":"string"},{"internalType":"string","name":"resolution","type":"string"},{"internalType":"bool","name":"autoResolved","type":"bool"}],"internalType":"struct GoalsProtocolNFT.AgentDiagnostics[]","name":"","type":"tuple[]"}],"stateMutability":"view","type":"function"},{"inputs":[{"internalType":"uint256","name":"_tokenId","type":"uint256"}],"name":"getAgentHealth","outputs":[{"internalType":"enum GoalsProtocolNFT.AgentHealth","name":"","type":"uint8"}],"stateMutability":"view","type":"function"},{"inputs":[{"internalType":"uint256","name":"tokenId","type":"uint256"}],"name":"getApproved","outputs":[{"internalType":"address","name":"","type":"address"}],"stateMutability":"view","type":"function"},{"inputs":[{"internalType":"uint256","name":"_tokenId","type":"uint256"}],"name":"getTokenData","outputs":[{"components":[{"internalType":"string","name":"playerName","type":"string"},{"internalType":"enum GoalsProtocolNFT.Position","name":"position","type":"uint8"},{"internalType":"enum GoalsProtocolNFT.Rarity","name":"rarity","type":"uint8"},{"components":[{"internalType":"uint16","name":"pace","type":"uint16"},{"internalType":"uint16","name":"shooting","type":"uint16"},{"internalType":"uint16","name":"passing","type":"uint16"},{"internalType":"uint16","name":"dribbling","type":"uint16"},{"internalType":"uint16","name":"defense","type":"uint16"},{"internalType":"uint16","name":"physical","type":"uint16"},{"internalType":"uint16","name":"overall","type":"uint16"},{"internalType":"uint256","name":"lastUpdate","type":"uint256"}],"internalType":"struct GoalsProtocolNFT.PlayerStats","name":"baseStats","type":"tuple"},{"components":[{"internalType":"uint256","name":"distanceCovered","type":"uint256"},{"internalType":"uint16","name":"sprints","type":"uint16"},{"internalType":"uint16","name":"topSpeed","type":"uint16"},{"internalType":"uint8","name":"fatigueLevel","type":"uint8"},{"internalType":"uint16","name":"passesCompleted","type":"uint16"},{"internalType":"uint8","name":"shotsOnTarget","type":"uint8"},{"internalType":"uint8","name":"goals","type":"uint8"},{"internalType":"uint8","name":"assists","type":"uint8"},{"internalType":"uint256","name":"lastUpdate","type":"uint256"}],"internalType":"struct GoalsProtocolNFT.LiveStats","name":"liveStats","type":"tuple"},{"internalType":"uint256","name":"mintTimestamp","type":"uint256"},{"internalType":"uint256","name":"matchesPlayed","type":"uint256"},{"internalType":"address","name":"agentWallet","type":"address"},{"internalType":"bool","name":"agentEnabled","type":"bool"},{"internalType":"string","name":"dynamicImageURI","type":"string"},{"internalType":"enum GoalsProtocolNFT.AgentHealth","name":"agentHealth","type":"uint8"},{"internalType":"uint256","name":"lastSelfCheck","type":"uint256"},{"internalType":"uint256","name":"consecutiveErrors","type":"uint256"}],"internalType":"struct GoalsProtocolNFT.TokenData","name":"","type":"tuple"}],"stateMutability":"view","type":"function"},{"inputs":[{"internalType":"address","name":"_owner","type":"address"}],"name":"getTokensByOwner","outputs":[{"internalType":"uint256[]","name":"","type":"uint256[]"}],"stateMutability":"view","type":"function"},{"inputs":[{"internalType":"uint256","name":"_tokenId","type":"uint256"}],"name":"isAgentHealthy","outputs":[{"internalType":"bool","name":"","type":"bool"}],"stateMutability":"view","type":"function"},{"inputs":[{"internalType":"address","name":"owner","type":"address"},{"internalType":"address","name":"operator","type":"address"}],"name":"isApprovedForAll","outputs":[{"internalType":"bool","name":"","type":"bool"}],"stateMutability":"view","type":"function"},{"inputs":[{"internalType":"enum GoalsProtocolNFT.Rarity","name":"","type":"uint8"}],"name":"maxSupply","outputs":[{"internalType":"uint256","name":"","type":"uint256"}],"stateMutability":"view","type":"function"},{"inputs":[{"internalType":"string","name":"_playerName","type":"string"},{"internalType":"enum GoalsProtocolNFT.Position","name":"_position","type":"uint8"},{"internalType":"enum GoalsProtocolNFT.Rarity","name":"_rarity","type":"uint8"},{"components":[{"internalType":"uint16","name":"pace","type":"uint16"},{"internalType":"uint16","name":"shooting","type":"uint16"},{"internalType":"uint16","name":"passing","type":"uint16"},{"internalType":"uint16","name":"dribbling","type":"uint16"},{"internalType":"uint16","name":"defense","type":"uint16"},{"internalType":"uint16","name":"physical","type":"uint16"},{"internalType":"uint16","name":"overall","type":"uint16"},{"internalType":"uint256","name":"lastUpdate","type":"uint256"}],"internalType":"struct GoalsProtocolNFT.PlayerStats","name":"_baseStats","type":"tuple"},{"internalType":"string","name":"_imageURI","type":"string"}],"name":"mintPlayer","outputs":[{"internalType":"uint256","name":"","type":"uint256"}],"stateMutability":"payable","type":"function"},{"inputs":[],"name":"name","outputs":[{"internalType":"string","name":"","type":"string"}],"stateMutability":"view","type":"function"},{"inputs":[],"name":"owner","outputs":[{"internalType":"address","name":"","type":"address"}],"stateMutability":"view","type":"function"},{"inputs":[{"internalType":"uint256","name":"tokenId","type":"uint256"}],"name":"ownerOf","outputs":[{"internalType":"address","name":"","type":"address"}],"stateMutability":"view","type":"function"},{"inputs":[],"name":"pause","outputs":[],"stateMutability":"nonpayable","type":"function"},{"inputs":[],"name":"paused","outputs":[{"internalType":"bool","name":"","type":"bool"}],"stateMutability":"view","type":"function"},{"inputs":[{"internalType":"uint256","name":"_tokenId","type":"uint256"}],"name":"performSelfCheck","outputs":[{"internalType":"enum GoalsProtocolNFT.AgentHealth","name":"","type":"uint8"}],"stateMutability":"nonpayable","type":"function"},{"inputs":[{"internalType":"enum GoalsProtocolNFT.Rarity","name":"","type":"uint8"}],"name":"rarityPrices","outputs":[{"internalType":"uint256","name":"","type":"uint256"}],"stateMutability":"view","type":"function"},{"inputs":[{"internalType":"uint256","name":"_tokenId","type":"uint256"},{"internalType":"bool","name":"_won","type":"bool"},{"internalType":"uint256","name":"_goals","type":"uint256"},{"internalType":"uint256","name":"_assists","type":"uint256"}],"name":"recordMatch","outputs":[],"stateMutability":"nonpayable","type":"function"},{"inputs":[],"name":"renounceOwnership","outputs":[],"stateMutability":"nonpayable","type":"function"},{"inputs":[{"internalType":"uint256","name":"_tokenId","type":"uint256"},{"internalType":"string","name":"_issue","type":"string"},{"internalType":"string","name":"_resolution","type":"string"},{"internalType":"bool","name":"_autoResolved","type":"bool"}],"name":"reportAgentDiagnostics","outputs":[],"stateMutability":"nonpayable","type":"function"},{"inputs":[{"internalType":"uint256","name":"","type":"uint256"},{"internalType":"uint256","name":"_salePrice","type":"uint256"}],"name":"royaltyInfo","outputs":[{"internalType":"address","name":"receiver","type":"address"},{"internalType":"uint256","name":"royaltyAmount","type":"uint256"}],"stateMutability":"view","type":"function"},{"inputs":[],"name":"royaltyRecipient","outputs":[{"internalType":"address","name":"","type":"address"}],"stateMutability":"view","type":"function"},{"inputs":[{"internalType":"address","name":"from","type":"address"},{"internalType":"address","name":"to","type":"address"},{"internalType":"uint256","name":"tokenId","type":"uint256"}],"name":"safeTransferFrom","outputs":[],"stateMutability":"nonpayable","type":"function"},{"inputs":[{"internalType":"address","name":"from","type":"address"},{"internalType":"address","name":"to","type":"address"},{"internalType":"uint256","name":"tokenId","type":"uint256"},{"internalType":"bytes","name":"data","type":"bytes"}],"name":"safeTransferFrom","outputs":[],"stateMutability":"nonpayable","type":"function"},{"inputs":[],"name":"selfCheckInterval","outputs":[{"internalType":"uint256","name":"","type":"uint256"}],"stateMutability":"view","type":"function"},{"inputs":[{"internalType":"address","name":"_regulator","type":"address"}],"name":"setAgentRegulator","outputs":[],"stateMutability":"nonpayable","type":"function"},{"inputs":[{"internalType":"address","name":"operator","type":"address"},{"internalType":"bool","name":"approved","type":"bool"}],"name":"setApprovalForAll","outputs":[],"stateMutability":"nonpayable","type":"function"},{"inputs":[{"internalType":"address","name":"_minter","type":"address"},{"internalType":"bool","name":"_authorized","type":"bool"}],"name":"setAuthorizedMinter","outputs":[],"stateMutability":"nonpayable","type":"function"},{"inputs":[{"internalType":"address","name":"_updater","type":"address"},{"internalType":"bool","name":"_authorized","type":"bool"}],"name":"setAuthorizedUpdater","outputs":[],"stateMutability":"nonpayable","type":"function"},{"inputs":[{"internalType":"enum GoalsProtocolNFT.Rarity","name":"_rarity","type":"uint8"},{"internalType":"uint256","name":"_supply","type":"uint256"}],"name":"setMaxSupply","outputs":[],"stateMutability":"nonpayable","type":"function"},{"inputs":[{"internalType":"enum GoalsProtocolNFT.Rarity","name":"_rarity","type":"uint8"},{"internalType":"uint256","name":"_price","type":"uint256"}],"name":"setRarityPrice","outputs":[],"stateMutability":"nonpayable","type":"function"},{"inputs":[{"internalType":"uint256","name":"_interval","type":"uint256"}],"name":"setSelfCheckInterval","outputs":[],"stateMutability":"nonpayable","type":"function"},{"inputs":[{"internalType":"bytes4","name":"interfaceId","type":"bytes4"}],"name":"supportsInterface","outputs":[{"internalType":"bool","name":"","type":"bool"}],"stateMutability":"view","type":"function"},{"inputs":[],"name":"symbol","outputs":[{"internalType":"string","name":"","type":"string"}],"stateMutability":"view","type":"function"},{"inputs":[{"internalType":"uint256","name":"index","type":"uint256"}],"name":"tokenByIndex","outputs":[{"internalType":"uint256","name":"","type":"uint256"}],"stateMutability":"view","type":"function"},{"inputs":[{"internalType":"uint256","name":"","type":"uint256"}],"name":"tokenData","outputs":[{"internalType":"string","name":"playerName","type":"string"},{"internalType":"enum GoalsProtocolNFT.Position","name":"position","type":"uint8"},{"internalType":"enum GoalsProtocolNFT.Rarity","name":"rarity","type":"uint8"},{"components":[{"internalType":"uint16","name":"pace","type":"uint16"},{"internalType":"uint16","name":"shooting","type":"uint16"},{"internalType":"uint16","name":"passing","type":"uint16"},{"internalType":"uint16","name":"dribbling","type":"uint16"},{"internalType":"uint16","name":"defense","type":"uint16"},{"internalType":"uint16","name":"physical","type":"uint16"},{"internalType":"uint16","name":"overall","type":"uint16"},{"internalType":"uint256","name":"lastUpdate","type":"uint256"}],"internalType":"struct GoalsProtocolNFT.PlayerStats","name":"baseStats","type":"tuple"},{"components":[{"internalType":"uint256","name":"distanceCovered","type":"uint256"},{"internalType":"uint16","name":"sprints","type":"uint16"},{"internalType":"uint16","name":"topSpeed","type":"uint16"},{"internalType":"uint8","name":"fatigueLevel","type":"uint8"},{"internalType":"uint16","name":"passesCompleted","type":"uint16"},{"internalType":"uint8","name":"shotsOnTarget","type":"uint8"},{"internalType":"uint8","name":"goals","type":"uint8"},{"internalType":"uint8","name":"assists","type":"uint8"},{"internalType":"uint256","name":"lastUpdate","type":"uint256"}],"internalType":"struct GoalsProtocolNFT.LiveStats","name":"liveStats","type":"tuple"},{"internalType":"uint256","name":"mintTimestamp","type":"uint256"},{"internalType":"uint256","name":"matchesPlayed","type":"uint256"},{"internalType":"address","name":"agentWallet","type":"address"},{"internalType":"bool","name":"agentEnabled","type":"bool"},{"internalType":"string","name":"dynamicImageURI","type":"string"},{"internalType":"enum GoalsProtocolNFT.AgentHealth","name":"agentHealth","type":"uint8"},{"internalType":"uint256","name":"lastSelfCheck","type":"uint256"},{"internalType":"uint256","name":"consecutiveErrors","type":"uint256"}],"stateMutability":"view","type":"function"},{"inputs":[{"internalType":"address","name":"owner","type":"address"},{"internalType":"uint256","name":"index","type":"uint256"}],"name":"tokenOfOwnerByIndex","outputs":[{"internalType":"uint256","name":"","type":"uint256"}],"stateMutability":"view","type":"function"},{"inputs":[{"internalType":"uint256","name":"tokenId","type":"uint256"}],"name":"tokenURI","outputs":[{"internalType":"string","name":"","type":"string"}],"stateMutability":"view","type":"function"},{"inputs":[],"name":"totalSupply","outputs":[{"internalType":"uint256","name":"","type":"uint256"}],"stateMutability":"view","type":"function"},{"inputs":[{"internalType":"address","name":"from","type":"address"},{"internalType":"address","name":"to","type":"address"},{"internalType":"uint256","name":"tokenId","type":"uint256"}],"name":"transferFrom","outputs":[],"stateMutability":"nonpayable","type":"function"},{"inputs":[{"internalType":"address","name":"newOwner","type":"address"}],"name":"transferOwnership","outputs":[],"stateMutability":"nonpayable","type":"function"},{"inputs":[],"name":"unpause","outputs":[],"stateMutability":"nonpayable","type":"function"},{"inputs":[{"internalType":"uint256","name":"_tokenId","type":"uint256"},{"components":[{"internalType":"uint256","name":"distanceCovered","type":"uint256"},{"internalType":"uint16","name":"sprints","type":"uint16"},{"internalType":"uint16","name":"topSpeed","type":"uint16"},{"internalType":"uint8","name":"fatigueLevel","type":"uint8"},{"internalType":"uint16","name":"passesCompleted","type":"uint16"},{"internalType":"uint8","name":"shotsOnTarget","type":"uint8"},{"internalType":"uint8","name":"goals","type":"uint8"},{"internalType":"uint8","name":"assists","type":"uint8"},{"internalType":"uint256","name":"lastUpdate","type":"uint256"}],"internalType":"struct GoalsProtocolNFT.LiveStats","name":"_newStats","type":"tuple"}],"name":"updateLiveStats","outputs":[],"stateMutability":"nonpayable","type":"function"},{"inputs":[],"name":"withdraw","outputs":[],"stateMutability":"nonpayable","type":"function"}],"evm":{"bytecode":{"linkReferences":{},"object":"60406080815234620006995762005343803803806200001e81620006be565b928339810160808282031262000699576200003982620006e4565b916020906200004a828201620006e4565b62000057868301620006e4565b60608301516001600160401b039391929184821162000699570190601f92868484011215620006995782518581116200042457601f19936200009f82870186168901620006be565b98828a528883830101116200069957879060005b8381106200068457505060009189010152620000ce6200069e565b91600f83526e0911d3d05314c8141c9bdd1bd8dbdb608a1b87840152620000f46200069e565b98600593848b5264474f414c5360d81b898c01528051908882116200042457819062000122600054620006f9565b8b8a821162000653575b50508a90898311600114620005ec57600092620005e0575b50508160011b916000199060031b1c1916176000555b895187811162000424578060019b8c8b620001768254620006f9565b8b8111620005a4575b5050508a90898311600114620005355760009262000529575b5050600019600383901b1c1916908b1b178a555b600b80546001600160a81b0319811633600881811b610100600160a81b0316929092179093556001600160a01b03938493909290911c83167f8be0079c531659141344cd1fd0a4f28419497f9722a3daafe3b4186f6b6457e0600080a3610e106016556200021c601b54620006f9565b88811162000506575b50600a64173539b7b760d91b01601b5516918215620004c25781169283156200047e57169182156200043a5760018060a01b0319918260175416176017558160185416176018556019541617601955855193841162000424576200028b601a54620006f9565b838111620003e6575b5050839183116001146200037c5750819060149460009262000370575b5050600019600383901b1c191690841b17601a555b6000805260138152662386f26fc1000084600020558260005266b1a2bc2ec50000846000205560026000526702c68af0bb14000084600020556003600052670de0b6b3a764000084600020556004600052674563918244f400008460002055600080525261138882600020556000526107d0816000205560026000526101f4816000205560036000526064816000205560046000526014816000205551614bf39081620007508239f35b015190503880620002b1565b9382919486931694601a600052846000209160005b878110620003ce57508360149710620003b4575b505050811b01601a55620002c6565b015160001960f88460031b161c19169055388080620003a5565b82820151845588959093019291860191860162000391565b6200041291601a600052866000209085808801821c8301938989106200041a575b01901c019062000736565b388062000294565b9350829362000407565b634e487b7160e01b600052604160045260246000fd5b8a5162461bcd60e51b815260048101899052601760248201527f496e76616c6964206167656e7420726567756c61746f720000000000000000006044820152606490fd5b8b5162461bcd60e51b8152600481018a9052601360248201527f496e76616c69642064617461206f7261636c65000000000000000000000000006044820152606490fd5b8b5162461bcd60e51b8152600481018a9052601960248201527f496e76616c696420726f79616c747920726563697069656e74000000000000006044820152606490fd5b6200052290601b600052898c6000209101881c81019062000736565b3862000225565b01519050388062000198565b90888e941691846000528c600020928d6000905b82821062000583575050841162000569575b505050811b018a55620001ac565b015160001960f88460031b161c191690553880806200055b565b91929395968291958786015181550195019301908f95949392918e62000549565b620005cd926000528b82600020918187018c1c8301938710620005d6575b018a1c019062000736565b8c8b386200017f565b92508192620005c2565b01519050388062000144565b60008080528c8120938a16905b8d8282106200063c57505090846001959493921062000622575b505050811b016000556200015a565b015160001960f88460031b161c1916905538808062000613565b6001859682939686015181550195019301620005f9565b6200067c91600080528b82600020918187018c1c8301938710620005d657018a1c019062000736565b388b6200012c565b8181018301518b8201840152899201620000b3565b600080fd5b60408051919082016001600160401b038111838210176200042457604052565b6040519190601f01601f191682016001600160401b038111838210176200042457604052565b51906001600160a01b03821682036200069957565b90600182811c921680156200072b575b60208310146200071557565b634e487b7160e01b600052602260045260246000fd5b91607f169162000709565b81811062000742575050565b600081556001016200073656fe60a080604052600436101561001357600080fd5b60003560e01c90816301ffc9a71461340a57508063028b9a0c1461309557806306fdde0314612ff25780630763678f14612f98578063081812fc14612f7a578063095ea7b314612e0057806318160ddd14612de257806323b872dd14612dbe5780632a55205a14612d7c5780632d8120b514612d545780632f745c5914612d2d57806330274daf14612bd15780633ccfd60b14612b145780633f4ba83a14612a8057806340398d67146129bd57806342842e0e1461298a57806342966c6814612709578063463b08db146126ec5780634c00de82146126c35780634f6ccce71461263257806350ce255d146126095780635ad53bda146125eb5780635c975abb146125c8578063617d1126146125aa57806362bbfad61461255e5780636352211e1461252e57806369f49ee5146125125780636c0360eb1461246c5780636d8469ff14611f9a57806370a0823114611f6f578063715018a614611f0e578063814641a314611e4a5780638456cb5914611df05780638da5cb5b14611dc35780638ecad72114611da75780638ff29cfe14611d6857806395d89b4114611cc5578063962124df14611c4f57806396fc0b351461130a57806399fc65d4146112b7578063a22cb465146111df578063a964b0a91461114a578063aa2fe91b1461110b578063b09afec114610e2f578063b4b5b48f14610cfa578063b88d4fde14610c75578063bf3cb7c714610c52578063c3415c9d14610c29578063c5e0940614610bca578063c668286214610afc578063c760008114610ad4578063c87b56dd14610a9d578063cc2cf51f14610a7f578063d1eedf1014610a63578063d3a4a28114610a32578063d9c6176c14610a15578063de1c12ce14610988578063e298f76a146107d0578063e53f9fc11461066a578063e8f9105014610603578063e985e9c5146105ad578063e9c5446414610520578063ea59bb8e14610418578063ed58bad8146103c35763f2fde38b146102ea57600080fd5b346103be5760203660031901126103be57610303613618565b61030b613a48565b6001600160a01b0381811691821561036a57600b8054610100600160a81b03198116600893841b610100600160a81b031617909155901c167f8be0079c531659141344cd1fd0a4f28419497f9722a3daafe3b4186f6b6457e0600080a3005b60405162461bcd60e51b815260206004820152602660248201527f4f776e61626c653a206e6577206f776e657220697320746865207a65726f206160448201526564647265737360d01b6064820152608490fd5b600080fd5b346103be5760403660031901126103be576104166103df613618565b6103e761382a565b906103f0613a48565b60018060a01b0316600052601160205260406000209060ff801983541691151516179055565b005b346103be576020806003193601126103be576004356001600160401b0381116103be57366023820112156103be5780600401359061045582613a31565b916104636040519384613583565b80835260248484019160051b830101913683116103be57602401905b828210610511578360005b815181101561041657806104c26104a46104cb9385614621565b516000908152600260205260409020546001600160a01b0316151590565b6104d05761424a565b61048a565b61050b6104dd8285614621565b51600081815260026020526040902054610506906001600160a01b03161515614207565b614207565b614259565b5061424a565b8135815290840190840161047f565b346103be5760203660031901126103be57610539613618565b610541613a48565b6001600160a01b03168015610568576001600160601b0360a01b6019541617601955600080f35b60405162461bcd60e51b815260206004820152601960248201527f496e76616c696420726567756c61746f722061646472657373000000000000006044820152606490fd5b346103be5760403660031901126103be576105c6613618565b6105ce61362e565b9060018060a01b03809116600052600560205260406000209116600052602052602060ff604060002054166040519015158152f35b346103be5760403660031901126103be576024356004356001600160401b0382116103be5761063961041692369060040161380c565b90610642613a48565b600081815260026020526040902054610665906001600160a01b03161515614207565b61469f565b346103be576020806003193601126103be576004356000818152600260205260409020546106a2906001600160a01b03161515614207565b600052601081526040600020908154916106bb83613a31565b926106c96040519485613583565b8084528284018092600052836000206000915b8383106107775750505050604051918083019381845251809452604083019360408160051b85010192916000955b8287106107175785850386f35b909192938280600192603f198982030185528751908151815261075b61074984840151608080878601528401906135e9565b604084015183820360408501526135e9565b916060809101511515910152960192019601959291909261070a565b60048660019260409998995161078c816134df565b8554815261079b858701613714565b838201526107ab60028701613714565b604082015260ff600387015416151560608201528152019201920191909594956106dc565b346103be5760803660031901126103be576004356107ec61382a565b817fd77075d1c479dfae92457562d631fecb5a018bd00f1ed5b2a26a6f78a8b13aab60606044359360643533600052601260205260ff604060002054168015610974575b801561095a575b6108409061479b565b600085815260026020526040902054610863906001600160a01b03161515614207565b84600052600f60205260406000206008810161087f815461424a565b90556108eb600582016108be61089f60ff8b1660ff845460401c166147e7565b825468ff0000000000000000191660409190911b60ff60401b16178255565b6108d260ff851660ff835460481c166147e7565b60ff60481b82549160481b169060ff60481b1916179055565b60064291015560405191151582528560208301526040820152a261090b57005b61070842018042116109445760207f099725fcbba3ca58aa709e187e47790c37cc232be7221d6a02002ed6171e3ae591604051908152a2005b634e487b7160e01b600052601160045260246000fd5b50600b543360089190911c6001600160a01b031614610837565b506018546001600160a01b03163314610830565b346103be5761099636613679565b90600052601060205260406000209081548110156103be576109b7916139ff565b5080546109c660018301613714565b91610a0960ff60036109da60028501613714565b93015416916109fb60405195869586526080602087015260808601906135e9565b9084820360408601526135e9565b90151560608301520390f35b346103be5760003660031901126103be5760206040516107088152f35b346103be5760203660031901126103be5760043560058110156103be57610a5a6020916136a8565b54604051908152f35b346103be5760003660031901126103be576020604051603c8152f35b346103be5760003660031901126103be576020604051620151808152f35b346103be5760203660031901126103be57610ad0610abc600435614873565b6040519182916020835260208301906135e9565b0390f35b346103be5760203660031901126103be5760043560058110156103be57610a5a6020916136c1565b346103be5760003660031901126103be576040516000601b54610b1e816136da565b80845290600190818116908115610ba35750600114610b48575b610ad084610abc81860382613583565b601b600090815292507f3ad8aa4f87544323a9d1e5dd902f40c356527a7955687113db5f9a85ad579dc15b828410610b8b575050508101602001610abc82610b38565b80546020858701810191909152909301928101610b73565b60ff191660208087019190915292151560051b85019092019250610abc9150839050610b38565b346103be5760203660031901126103be57600435600081815260026020526040902054610c01906001600160a01b03161515614207565b600052600f602052602060ff600b6040600020015416610c208161360e565b60405190158152f35b346103be5760003660031901126103be576019546040516001600160a01b039091168152602090f35b346103be57610c72610c6336613839565b9190610c6d613a48565b6136c1565b55005b346103be5760803660031901126103be57610c8e613618565b610c9661362e565b90606435906044356001600160401b0383116103be57366023840112156103be5761041693610cd2610cf59436906024816004013591016137d5565b92610ce5610ce08433613ca0565b613bc7565b610cf0838383613d68565b6140c7565b613c7c565b346103be5760203660031901126103be57600435600052600f6020526040600020610d2481613714565b60018201549160ff831690610d3b6002820161392a565b90610d486004820161398f565b926007820154906008830154600984015490600a8501610d6790613714565b93600b86015460ff1697600c87015496600d0154976040519b8c9b8c6103808091528d01610d94916135e9565b96610d9e8161360e565b60208d015260408c019060081c60ff1690610db891613858565b60608b01610dc591613865565b6101608a01610dd3916138c0565b6102808901526102a08801526001600160a01b0381166102c088015260a01c60ff1615156102e0870152858103610300870152610e0f916135e9565b92610e198161360e565b6103208501526103408401526103608301520390f35b346103be5760203660031901126103be576004356000610180604051610e5481613516565b60608152826020820152826040820152604051610e70816134fa565b8381528360208201528360408201528360608201528360808201528360a08201528360c08201528360e08201526060820152604051610eae816134c3565b8381528360208201528360408201528360608201528360808201528360a08201528360c08201528360e08201528361010082015260808201528260a08201528260c08201528260e082015282610100820152606061012082015282610140820152826101608201520152610f3a61050182600052600260205260018060a01b0360406000205416151590565b600052600f6020526040600020600d60405191610f5683613516565b610f5f81613714565b8352610f8b60ff6001830154610f7682821661360e565b818116602087015260081c16604085016146ff565b610f976002820161392a565b6060840152610fa86004820161398f565b6080840152600781015460a0840152600881015460c084015260ff600982015460018060a01b03811660e086015260a01c161515610100840152610fee600a8201613714565b61012084015260ff600b820154166110058161360e565b610140840152600c81015461016084015201546101808201526040518091602082526101806110dd611045835161038060208701526103a08601906135e9565b60208401516110538161360e565b604086015261106a60408501516060870190613858565b61107c60608501516080870190613865565b61108d6080850151848701906138c0565b60a08401516102a086015260c08401516102c086015260e08401516001600160a01b03166102e08601526101008401511515610300860152610120840151858203601f19016103208701526135e9565b916101408101516110ed8161360e565b61034085015261016081015161036085015201516103808301520390f35b346103be5760203660031901126103be576001600160a01b0361112c613618565b166000526011602052602060ff604060002054166040519015158152f35b346103be5760203660031901126103be57600435600081815260026020526040902054611181906001600160a01b03161515614207565b61119d61118d82613b66565b6001600160a01b031633146147fb565b6000818152600f60205260408120600901805460ff60a01b191690557f2502a8d8e9bb147f37d1559dbdec1cc505fc4edd3283e2de7d0ad4a15867371b9080a2005b346103be5760403660031901126103be576111f8613618565b61120061382a565b6001600160a01b0390911690338214611272573360005260056020526040600020826000526020526112428160406000209060ff801983541691151516179055565b60405190151581527f17307eab39ab6107e8899845ad3d59bd9653f200f220920489ca2b5937696c3160203392a3005b60405162461bcd60e51b815260206004820152601960248201527f4552433732313a20617070726f766520746f2063616c6c6572000000000000006044820152606490fd5b346103be5760403660031901126103be576104166112d3613618565b6112db61382a565b906112e4613a48565b60018060a01b0316600052601260205260406000209060ff801983541691151516179055565b6101803660031901126103be576004356001600160401b0381116103be5761133690369060040161380c565b600460243510156103be57600560443510156103be576101003660631901126103be5760405190611366826134fa565b61136e6135a4565b825260843561ffff811681036103be57602083015261138b6135b5565b604083015260c43561ffff811681036103be57606083015260e43561ffff811681036103be5760808301526101043561ffff811681036103be5760a08301526101243561ffff811681036103be5760c08301526101443560e08301526001600160401b0361016435116103be57611408366101643560040161380c565b9061141161470b565b61141c6044356136a8565b5461142860443561368f565b541115611c0a5761143a6044356136c1565b543410611bce57600e549160018301600e556040516114588161354d565b600081523315611b8a57600084815260026020526040902054611487906001600160a01b031615155b1561474f565b61148f61470b565b60085484600052600960205280604060002055600160401b811015611ab55761159c916114e2866114c9846001610cf596016008556141d0565b90919082549060031b91821b91600019901b1916179055565b6114eb33613aa3565b3360005260066020526040600020816000526020528660406000205586600052600760205260406000205561153861148187600052600260205260018060a01b0360406000205416151590565b3360005260036020526040600020600181540190558560005260026020526040600020336001600160601b0360a01b825416179055853360007fddf252ad1be2c89b69c2b068fc378daa952ba7f163c4a11628f55a4df523b3ef8180a48533613fcc565b6040516115a8816134c3565b6000815260006020820152600060408201526000606082015260006080820152600060a0820152600060c0820152600060e082015242610100820152604051946115f186613516565b8386526115ff60243561360e565b6024356020870152611616604435604088016146ff565b606086015260808501524260a0850152600060c0850152600060e08501526000610100850152610120840152600061014084015242610160840152600061018084015281600052600f602052604060002083518051906001600160401b038211611ab557819061168684546136da565b601f8111611b58575b50602090601f8311600114611aec57600092611ae1575b50508160011b916000199060031b1c19161781555b60208401516116c98161360e565b6116d28161360e565b600182015460408601516005811015611acb5761ff0060ff9160081b1692169061ffff19161717600182015560e06002820160608601519061ffff82511661ffff1982541617815561174161ffff602084015116829063ffff000082549160101b169063ffff00001916179055565b6040820151815467ffff000000000000606085015160301b1669ffff0000000000000000608086015160401b169061ffff60501b60a087015160501b169265ffff0000000061ffff60601b60c089015160601b169560201b16906dffffffffffffffffffff00000000191617171717179055015160038201556101006080850151805160048401556118926005840161ffff60208401511661ffff1982541617815561180a61ffff604085015116829063ffff000082549160101b169063ffff00001916179055565b6060830151815466ffff0000000000608086015160281b169064ff0000000060ff60381b60a088015160381b169360201b169067ffffffff000000001916171717815561187360ff60c085015116829060ff60401b82549160401b169060ff60401b1916179055565b60e0830151815460ff60481b191660489190911b60ff60481b16179055565b0151600682015560a0840151600782015560c084015160088201556009810160018060a01b0360e08601511681549060ff60a01b610100880151151560a01b16916affffffffffffffffffffff60a81b16171790556101208401519384516001600160401b038111611ab55760209561190e600a8501546136da565b601f8111611a77575b508690601f8311600114611a03579180600d9492610180946000926119f8575b50508160011b916000199060031b1c191617600a8501555b600b84016101408201516119628161360e565b61196b8161360e565b60ff80198354169116179055610160810151600c85015501519101556119926044356136a8565b61199c815461424a565b9055817ff450aa0e15f4944c9c9dddaf95311bb8d067372d36762a87638572b61ec564356119d5604051936060855260608501906135e9565b926119e4868201604435613858565b3460408201528033940390a3604051908152f35b015190508980611937565b90600a8501600052876000209160005b601f1985168110611a60575092600d94926001926101809583601f19811610611a47575b505050811b01600a85015561194f565b015160001960f88460031b161c19169055898080611a37565b919289600181928685015181550194019201611a13565b611aa590600a860160005288600020601f850160051c8101918a8610611aab575b601f0160051c01906145e5565b87611917565b9091508190611a98565b634e487b7160e01b600052604160045260246000fd5b634e487b7160e01b600052602160045260246000fd5b0151905086806116a6565b9250836000526020600020906000935b601f1984168510611b3d576001945083601f19811610611b24575b505050811b0181556116bb565b015160001960f88460031b161c19169055868080611b17565b81810151835560209485019460019093019290910190611afc565b611b8490856000526020600020601f850160051c81019160208610611aab57601f0160051c01906145e5565b8761168f565b606460405162461bcd60e51b815260206004820152602060248201527f4552433732313a206d696e7420746f20746865207a65726f20616464726573736044820152fd5b60405162461bcd60e51b8152602060048201526014602482015273125b9cdd59999a58da595b9d081c185e5b595b9d60621b6044820152606490fd5b60405162461bcd60e51b815260206004820152601760248201527f52617269747920737570706c79206578686175737465640000000000000000006044820152606490fd5b346103be5760203660031901126103be57600435611c6b613a48565b603c81101580611cb8575b15611c8057601655005b60405162461bcd60e51b815260206004820152601060248201526f125b9d985b1a59081a5b9d195c9d985b60821b6044820152606490fd5b5062015180811115611c76565b346103be5760003660031901126103be5760405160006001805490611ce9826136da565b80855291818116908115610ba35750600114611d0f57610ad084610abc81860382613583565b600081815292507fb10e2d527612073b26eecdfd717e6a320cf44b4afac2b0732d9fcbe2b7fa0cf65b828410611d50575050508101602001610abc82610b38565b80546020858701810191909152909301928101611d38565b346103be5760203660031901126103be576001600160a01b03611d89613618565b166000526012602052602060ff604060002054166040519015158152f35b346103be5760003660031901126103be576020604051600a8152f35b346103be5760003660031901126103be57600b5460405160089190911c6001600160a01b03168152602090f35b346103be5760003660031901126103be57611e09613a48565b611e1161470b565b600160ff19600b541617600b557f62e78cea01bee320cd4e420270b5ea74000d11b0c9f74754ebdbfc544b05a2586020604051338152a1005b346103be57611e5836613839565b90611e61613a48565b620186a08211611ec957611e74816136a8565b548210611e8457610c729061368f565b60405162461bcd60e51b815260206004820152601b60248201527f537570706c792062656c6f772063757272656e74206d696e74656400000000006044820152606490fd5b60405162461bcd60e51b815260206004820152601c60248201527f537570706c792065786365656473206d6178696d756d206c696d6974000000006044820152606490fd5b346103be5760003660031901126103be57611f27613a48565b600b8054610100600160a81b0319811690915560009060081c6001600160a01b03167f8be0079c531659141344cd1fd0a4f28419497f9722a3daafe3b4186f6b6457e08280a3005b346103be5760203660031901126103be576020611f92611f8d613618565b613aa3565b604051908152f35b346103be5760803660031901126103be576001600160401b036024358181116103be57611fcb90369060040161380c565b906044358181116103be57611fe490369060040161380c565b916064359182159081158094036103be57601954336001600160a01b039182161490811561245b575b50156124265760043560008181526002602052604090205490959061203c906001600160a01b03161515614207565b604051612048816134df565b4281526020608052608051810192858452604082018381526060830191888352896000526010608051526040600020958654600160401b811015611ab5576120979060019889820181556139ff565b9590956124105751855551958651828111611ab55781860190806120bb83546136da565b99601f9a8b81116123de575b50608051908b83116001146123785760009261236d575b5050600019600383901b1c191690831b1790555b600285019251968751928311611ab5578b9761210e85546136da565b828111612331575b506080519184116001146122a4579280600395938193612161999896600094612299575b50501b9160001990861b1c19161790555b51151591019060ff801983541691151516179055565b81600052600f608051526040600020926000146121e9575050907f86c2be553165359bd82c8607d665ed72bcd9b72e15c3e1973c0e20dc8606c980926005600d6121ce94016121b0815461424a565b80915510156121da575b6040519283926040845260408401906135e9565b906080518301520390a2005b6121e48286614635565b6121ba565b907f172ffe120c5a99836d395f1fc8f3b426f5ca77708118dca216bdc34ecf3a69f561221f600d949360405191829188836145fc565b0390a20180548015801561225c575b5050506121ce907f86c2be553165359bd82c8607d665ed72bcd9b72e15c3e1973c0e20dc8606c980926121ba565b93909291936109445760001990920190925590807f86c2be553165359bd82c8607d665ed72bcd9b72e15c3e1973c0e20dc8606c9806121ce61222e565b015192508f8061213a565b97969594939290601f19821698846000526080516000209960005b81811061230257509161216198999a918460039897969594106122ea575b505050811b01905561214b565b015160001983881b60f8161c191690558d80806122dd565b93959799509091938096989a8584015181550193608051019260805101908e9997959392919a9896949a6122bf565b61235e90866000526080516000208480880160051c8201926080518910612364575b0160051c01906145e5565b8d612116565b92508192612353565b015190508e806120de565b9085935084600052608051600020916000601f198516905b8181106123c5575084116123ac575b505050811b0190556120f2565b015160001960f88460031b161c191690558e808061239f565b8284015185556080518997909501949384019301612390565b61240a90856000526080516000208d80860160051c8201926080518710612364570160051c01906145e5565b8f6120c7565b634e487b7160e01b600052600060045260246000fd5b60405162461bcd60e51b815260206004820152600d60248201526c2737ba103932b3bab630ba37b960991b6044820152606490fd5b9050600b5460081c1633148661200d565b346103be5760003660031901126103be576040516000601a5461248e816136da565b80845290600190818116908115610ba357506001146124b757610ad084610abc81860382613583565b601a600090815292507f057c384a7d1c54f3a1b2e5e67b2617b8224fdfd1ea7234eea573a6ff665ff63e5b8284106124fa575050508101602001610abc82610b38565b805460208587018101919091529093019281016124e2565b346103be5760003660031901126103be57602060405160058152f35b346103be5760203660031901126103be57602061254c600435613b66565b6040516001600160a01b039091168152f35b346103be5760203660031901126103be57602061259960043561050661050182600052600260205260018060a01b0360406000205416151590565b604051906125a68161360e565b8152f35b346103be5760003660031901126103be576020604051620186a08152f35b346103be5760003660031901126103be57602060ff600b54166040519015158152f35b346103be5760003660031901126103be576020601654604051908152f35b346103be5760003660031901126103be576018546040516001600160a01b039091168152602090f35b346103be5760203660031901126103be576004356008548110156126695761265b6020916141d0565b90546040519160031b1c8152f35b60405162461bcd60e51b815260206004820152602c60248201527f455243373231456e756d657261626c653a20676c6f62616c20696e646578206f60448201526b7574206f6620626f756e647360a01b6064820152608490fd5b346103be5760003660031901126103be576017546040516001600160a01b039091168152602090f35b346103be5760003660031901126103be5760206040516101f48152f35b346103be576020806003193601126103be5760043561272b610ce08233613ca0565b61273481613b66565b61273c61470b565b6001600160a01b039080821690816128ee575050600854826000526009845280604060002055600160401b811015611ab557826114c982600161278294016008556141d0565b600854600019908181019081116109445783600052600985526127aa604060002054916141d0565b90549060031b1c6127be816114c9846141d0565b6000526009855260406000205582600052600060408120556008549081156128d857839281600093016127f0816141d0565b8482549160031b1b1916905560085561280884613b66565b908484526004875260408420916001600160601b0360a01b928381541690551691828452600387526040842090815401905583835260028652604083209081541690557fddf252ad1be2c89b69c2b068fc378daa952ba7f163c4a11628f55a4df523b3ef8280a4600a82526128816040600020546136da565b61288757005b600052600a8152604060002061289d81546136da565b806128a457005b600092601f82116001146128b757505055005b82845283209183916128d490601f0160051c8401600185016145e5565b5555005b634e487b7160e01b600052603160045260246000fd5b6128f790613aa3565b600019810191908211610944578360005260078552604060002054828103612944575b50836000526000604081205560005260068452604060002090600052835260006040812055612782565b816000526006865260406000208360005286526040600020548260005260068752604060002082600052875280604060002055600052600786526040600020558561291a565b346103be57610416610cf561299e36613644565b90604051926129ac8461354d565b60008452610ce5610ce08433613ca0565b346103be576020806003193601126103be576129d7613618565b6129e081613aa3565b6129e981613a31565b906129f76040519283613583565b808252612a0381613a31565b8285019390601f190136853760005b828110612a5d5750505090604051928392818401908285525180915260408401929160005b828110612a4657505050500390f35b835185528695509381019392810192600101612a37565b80612a6b612a7b9284614142565b612a758287614621565b5261424a565b612a12565b346103be5760003660031901126103be57612a99613a48565b600b5460ff811615612ad85760ff1916600b557f5db9ee0a495bf2e6ff9c91a7834c1ba4fdd244a5e8aa4e537bd38aeae4b073aa6020604051338152a1005b60405162461bcd60e51b815260206004820152601460248201527314185d5cd8589b194e881b9bdd081c185d5cd95960621b6044820152606490fd5b346103be5760003660031901126103be57612b2d613a48565b478015612b9557600b5460009182918291829160081c6001600160a01b03165af1612b56613f9c565b5015612b5e57005b60405162461bcd60e51b815260206004820152600f60248201526e151c985b9cd9995c8819985a5b1959608a1b6044820152606490fd5b60405162461bcd60e51b81526020600482015260146024820152734e6f2066756e647320746f20776974686472617760601b6044820152606490fd5b346103be5760403660031901126103be57600435612bed61362e565b600082815260026020526040902054612c10906001600160a01b03161515614207565b612c1982613b66565b6001600160a01b039190612c3090831633146147fb565b16908115612cf15780600052600f6020526040600020600260ff600b83015416612c598161360e565b14612cac57600d81600960009301600160a01b866affffffffffffffffffffff60a81b8354161717905501557f765c708a768252802c2dde478826b73df22134eba7d9ba3c8c4cc98149b2ecde600080a3005b60405162461bcd60e51b815260206004820152601760248201527f4167656e7420696e20637269746963616c2073746174650000000000000000006044820152606490fd5b60405162461bcd60e51b8152602060048201526014602482015273125b9d985b1a59081859d95b9d081dd85b1b195d60621b6044820152606490fd5b346103be5760403660031901126103be576020611f92612d4b613618565b60243590614142565b346103be5760203660031901126103be5760043560058110156103be57610a5a60209161368f565b346103be57612d8a36613679565b905060018060a01b03601754166101f491828102928184041490151715610944576127106040928351928352046020820152f35b346103be57610416612dcf36613644565b91612ddd610ce08433613ca0565b613d68565b346103be5760003660031901126103be576020600854604051908152f35b346103be5760403660031901126103be57612e19613618565b602435906001600160a01b038080612e3085613b66565b16921691808314612f2b57803314908115612f06575b5015612e9b57600083815260046020526040902080546001600160a01b03191683179055612e7383613b66565b167f8c5be1e5ebec7d5bd14f71427d1e84f3dd0314c0f7b2291e5b200ac8c7c3b925600080a4005b60405162461bcd60e51b815260206004820152603d60248201527f4552433732313a20617070726f76652063616c6c6572206973206e6f7420746f60448201527f6b656e206f776e6572206f7220617070726f76656420666f7220616c6c0000006064820152608490fd5b9050600052600560205260406000203360005260205260ff6040600020541684612e46565b60405162461bcd60e51b815260206004820152602160248201527f4552433732313a20617070726f76616c20746f2063757272656e74206f776e656044820152603960f91b6064820152608490fd5b346103be5760203660031901126103be57602061254c600435613b89565b346103be5760203660031901126103be57600435600081815260026020526040902054612fcf906001600160a01b03161515614207565b600052600f602052602060ff600b6040600020015416604051906125a68161360e565b346103be5760003660031901126103be5760405160008054613013816136da565b80845290600190818116908115610ba3575060011461303c57610ad084610abc81860382613583565b600080805292507f290decd9548b62a8d60345a988386fc84ba6bc95484008f6362f93160ef3e5635b82841061307d575050508101602001610abc82610b38565b80546020858701810191909152909301928101613065565b346103be576101403660031901126103be576101203660231901126103be576040516130c0816134c3565b602435815260443561ffff811681036103be5760208201526130e06135a4565b604082015260843560ff811681036103be5760608201526130ff6135b5565b608082015260c43560ff811681036103be5760a082015260e43560ff811681036103be5760c08201526101043560ff811681036103be5760e08201526101243561010082015233600052601260205260ff6040600020541680156133f6575b80156133dc575b61316e9061479b565b600435600090815260026020526040902054613194906001600160a01b03161515614207565b600435600052600f60205260406000206000600d8201558151600482015561327b6005820161ffff60208501511661ffff198254161781556131f361ffff604086015116829063ffff000082549160101b169063ffff00001916179055565b6060840151815466ffff0000000000608087015160281b169064ff0000000060ff60381b60a089015160381b169360201b169067ffffffff000000001916171717815561325c60ff60c086015116829060ff60401b82549160401b169060ff60401b1916179055565b60e0840151815460ff60481b191660489190911b60ff60481b16179055565b600661010083015191015561329360405180926138c0565b7f159bcc097cd171e4cc7dfc30b0e07b3a430ed510e189ca342e7029abcfe3e0ba61012060043592a2600435600052600f6020526127106132da600460406000200161398f565b600360ff60c08301511610156133aa575b61015e61ffff60408301511611613376575b600a60ff60e0830151161015613344575b51101561331757005b61041660405161332681613532565b6009815268574f524b484f52534560b81b6020820152600435614839565b61337160405161335381613532565b6009815268282620aca6a0a5a2a960b91b6020820152600435614839565b61330e565b6133a560405161338581613532565b600b81526a29a822a2a22fa222a6a7a760a91b6020820152600435614839565b6132fd565b6133d76040516133b981613532565b60098152684841545f545249434b60b81b6020820152600435614839565b6132eb565b50600b543360089190911c6001600160a01b031614613165565b506018546001600160a01b0316331461315e565b346103be5760203660031901126103be576004359063ffffffff60e01b82168092036103be5760209163152a902d60e11b811490811561344c575b5015158152f35b632483248360e11b811491508115613466575b5083613445565b63780e9d6360e01b811491508115613480575b508361345f565b6380ac58cd60e01b8114915081156134b2575b81156134a1575b5083613479565b6301ffc9a760e01b1490508361349a565b635b5e139f60e01b81149150613493565b61012081019081106001600160401b03821117611ab557604052565b608081019081106001600160401b03821117611ab557604052565b61010081019081106001600160401b03821117611ab557604052565b6101a081019081106001600160401b03821117611ab557604052565b604081019081106001600160401b03821117611ab557604052565b602081019081106001600160401b03821117611ab557604052565b606081019081106001600160401b03821117611ab557604052565b90601f801991011681019081106001600160401b03821117611ab557604052565b6064359061ffff821682036103be57565b60a4359061ffff821682036103be57565b60005b8381106135d95750506000910152565b81810151838201526020016135c9565b90602091613602815180928185528580860191016135c6565b601f01601f1916010190565b60041115611acb57565b600435906001600160a01b03821682036103be57565b602435906001600160a01b03821682036103be57565b60609060031901126103be576001600160a01b039060043582811681036103be579160243590811681036103be579060443590565b60409060031901126103be576004359060243590565b6005811015611acb576000526014602052604060002090565b6005811015611acb576000526015602052604060002090565b6005811015611acb576000526013602052604060002090565b90600182811c9216801561370a575b60208310146136f457565b634e487b7160e01b600052602260045260246000fd5b91607f16916136e9565b9060405191826000825492613728846136da565b9081845260019485811690816000146137975750600114613754575b505061375292500383613583565b565b9093915060005260209081600020936000915b81831061377f57505061375293508201013880613744565b85548884018501529485019487945091830191613767565b91505061375294506020925060ff191682840152151560051b8201013880613744565b6001600160401b038111611ab557601f01601f191660200190565b9291926137e1826137ba565b916137ef6040519384613583565b8294818452818301116103be578281602093846000960137010152565b9080601f830112156103be57816020613827933591016137d5565b90565b6024359081151582036103be57565b60409060031901126103be5760043560058110156103be579060243590565b906005821015611acb5752565b60e0809161ffff8082511685528060208301511660208601528060408301511660408601528060608301511660608601528060808301511660808601528060a08301511660a086015260c08201511660c08501520151910152565b8051825261ffff80602083015116602084015280604083015116604084015260ff6060830151166060840152608082015116608083015260ff60a08201511660a083015260ff60c08201511660c083015260ff60e08201511660e083015261010080910151910152565b90604051613937816134fa565b60e060018294805461ffff908181168652818160101c166020870152818160201c166040870152818160301c166060870152818160401c166080870152818160501c1660a087015260601c1660c08501520154910152565b9060405161399c816134c3565b610100600282948054845260ff600182015461ffff8082166020880152808260101c166040880152828260201c1660608801528160281c166080870152818160381c1660a0870152818160401c1660c087015260481c1660e08501520154910152565b8054821015613a1b5760005260206000209060021b0190600090565b634e487b7160e01b600052603260045260246000fd5b6001600160401b038111611ab55760051b60200190565b600b5460081c6001600160a01b03163303613a5f57565b606460405162461bcd60e51b815260206004820152602060248201527f4f776e61626c653a2063616c6c6572206973206e6f7420746865206f776e65726044820152fd5b6001600160a01b03168015613ac357600052600360205260406000205490565b60405162461bcd60e51b815260206004820152602960248201527f4552433732313a2061646472657373207a65726f206973206e6f7420612076616044820152683634b21037bbb732b960b91b6064820152608490fd5b15613b2157565b60405162461bcd60e51b815260206004820152601860248201527f4552433732313a20696e76616c696420746f6b656e20494400000000000000006044820152606490fd5b6000908152600260205260409020546001600160a01b0316613827811515613b1a565b600081815260026020526040902054613bac906001600160a01b03161515613b1a565b6000908152600460205260409020546001600160a01b031690565b15613bce57565b60405162461bcd60e51b815260206004820152602d60248201527f4552433732313a2063616c6c6572206973206e6f7420746f6b656e206f776e6560448201526c1c881bdc88185c1c1c9bdd9959609a1b6064820152608490fd5b60809060208152603260208201527f4552433732313a207472616e7366657220746f206e6f6e20455243373231526560408201527131b2b4bb32b91034b6b83632b6b2b73a32b960711b60608201520190565b15613c8357565b60405162461bcd60e51b815280613c9c60048201613c29565b0390fd5b906001600160a01b038080613cb484613b66565b16931691838314938415613ce7575b508315613cd1575b50505090565b613cdd91929350613b89565b1614388080613ccb565b909350600052600560205260406000208260005260205260ff604060002054169238613cc3565b15613d1557565b60405162461bcd60e51b815260206004820152602560248201527f4552433732313a207472616e736665722066726f6d20696e636f72726563742060448201526437bbb732b960d91b6064820152608490fd5b613d8c91613d7584613b66565b6001600160a01b0393848416939185168414613d0e565b838216938415613f4b578391613da061470b565b82613ea8575090506008549085600052600960205281604060002055600160401b821015611ab557613dfa92613de1876114c98560018997016008556141d0565b828603613e75575b50613df386613b66565b1614613d0e565b7fddf252ad1be2c89b69c2b068fc378daa952ba7f163c4a11628f55a4df523b3ef60008481526004602052604081206001600160601b0360a01b9081815416905583825260036020526040822060001981540190558482526040822060018154019055858252600260205284604083209182541617905580a4565b613e7e90613aa3565b60406000878152600660205281812083825260205288828220558881526007602052205538613de9565b858303613eba575b50613dfa92613de1565b613ec5919250613aa3565b60001981019190821161094457613dfa9284926000908882526020906007825260409182842054828103613f14575b508a84528383812055868452600681528284209184525281205592613eb0565b8785526006825283852083865282528385205488865260068352848620828752835280858720558552600782528385205538613ef4565b60405162461bcd60e51b8152602060048201526024808201527f4552433732313a207472616e7366657220746f20746865207a65726f206164646044820152637265737360e01b6064820152608490fd5b3d15613fc7573d90613fad826137ba565b91613fbb6040519384613583565b82523d6000602084013e565b606090565b9091600091803b156140be576140176020918493604051948580948193630a85bd0160e11b9a8b845233600485015284602485015260448401526080606484015260848301906135e9565b03926001600160a01b03165af19082908261406f575b50506140615761403b613f9c565b8051908161405c5760405162461bcd60e51b815280613c9c60048201613c29565b602001fd5b6001600160e01b0319161490565b909192506020813d82116140b6575b8161408b60209383613583565b810103126140b25751906001600160e01b0319821682036140af575090388061402d565b80fd5b5080fd5b3d915061407e565b50505050600190565b91926000929190813b156141385760209161411d9185604051958680958194630a85bd0160e11b9b8c845233600485015260018060a01b03809516602485015260448401526080606484015260848301906135e9565b0393165af19082908261406f5750506140615761403b613f9c565b5050505050600190565b61414b81613aa3565b8210156141775760018060a01b0316600052600660205260406000209060005260205260406000205490565b60405162461bcd60e51b815260206004820152602b60248201527f455243373231456e756d657261626c653a206f776e657220696e646578206f7560448201526a74206f6620626f756e647360a81b6064820152608490fd5b600854811015613a1b5760086000527ff3f7a9fe364faab93b216da50a3214154f22a0a2b415b23a84c8169e8b636ee30190600090565b1561420e57565b60405162461bcd60e51b8152602060048201526014602482015273151bdad95b88191bd95cc81b9bdd08195e1a5cdd60621b6044820152606490fd5b60001981146109445760010190565b90600091808352602090600f82526040808520600c810190815460165481018091116145d1574210806145c3575b6145b457869183516142988161354d565b8881526006830154611c2081018091116145a05790869798997f9d369fff9aec363082799e0ffca79f49fdf7ee5ae3454fd5db6ebd9a09261f5897924211614544575b600d8501906005825410156144fb575b8a8860098801805460ff8160a01c16806144ea575b614408575b505050509160ff959391600b9593886000146143a5575050848401908154918783166143308161360e565b1561435b575b505050505b4290550154169482519161434e8761360e565b868352151590820152a290565b60017f5c800c33f0ad1ea8cc92d9d6de883810d340616472da40da5e1cec36e020cd2f938919161790558b6143998a519282849384528301906135e9565b0390a287388080614336565b9150915084840191868354166143ba8161360e565b6143cc575b558419815416905561433b565b6144038c75105b1b08191a5859db9bdcdd1a58dcc81c185cdcd95960521b8b51916143f683613532565b601683528201528c61469f565b6143bf565b8760ff9a9896949b50600b9997507f172ffe120c5a99836d395f1fc8f3b426f5ca77708118dca216bdc34ecf3a69f560019694969c875161444881613568565b602681527f4167656e7420656e61626c656420627574206e6f2077616c6c657420636f6e6682820152651a59dd5c995960d21b898201526144ce81997f44697361626c6564206167656e742064756520746f206d697373696e672077618151946144b186613568565b60248652850152631b1b195d60e21b8185015251928392836145fc565b0390a28960a01b1916905591939550919395508a883880614305565b506001600160a01b03811615614300565b875160019750925061450c83613532565b601e83527f4d617820636f6e7365637574697665206572726f7273207265616368656400008b84015261453f8385614635565b6142eb565b945050600193855161455581613568565b602481527f5374616c652064617461202d206e6f207570646174657320666f7220322b20688a820152636f75727360e01b8782015290600d8501614599815461424a565b90556142db565b634e487b7160e01b8a52601160045260248afd5b600b015460ff16955050505050565b506005600d82015410614287565b634e487b7160e01b88526011600452602488fd5b8181106145f0575050565b600081556001016145e5565b9091614613613827936040845260408401906135e9565b9160208184039101526135e9565b8051821015613a1b5760209160051b010190565b9061469a7f5c800c33f0ad1ea8cc92d9d6de883810d340616472da40da5e1cec36e020cd2f9183600052600f60205260096040600020600b8101600260ff198254161790550160ff60a01b1981541690556040519182916020835260208301906135e9565b0390a2565b9081600052600f6020526040600020917f4bff60f46d7096203e8d6639e7b4f599db52c1cda9235691e16ea7de49432bee6146f9600b8501936000600d60ff198754169701556040519182916020835260208301906135e9565b0390a255565b6005821015611acb5752565b60ff600b541661471757565b60405162461bcd60e51b815260206004820152601060248201526f14185d5cd8589b194e881c185d5cd95960821b6044820152606490fd5b1561475657565b60405162461bcd60e51b815260206004820152601c60248201527f4552433732313a20746f6b656e20616c7265616479206d696e746564000000006044820152606490fd5b156147a257565b60405162461bcd60e51b815260206004820152601860248201527f4e6f7420617574686f72697a656420746f2075706461746500000000000000006044820152606490fd5b9060ff8091169116019060ff821161094457565b1561480257565b60405162461bcd60e51b815260206004820152600f60248201526e2737ba103a37b5b2b71037bbb732b960891b6044820152606490fd5b9061469a7f6bc4d6c1830c8afab502689e580fe13c07eaf372ff08f7ded0f6adfcfa192383916040519182916020835260208301906135e9565b6000818152600260205260409020546001600160a01b031615614b785760008181526020600f8152600a926148ac846040852001613714565b8051614b70575090829084837a184f03e93ff9f4daa797ed6e38ed64bf6a1f0100000000000000008181811015614b5f575b5050826d04ee2d6d415b85acef810000000080831015614b53575b5050662386f26fc1000080821015614b46575b506305f5e10080821015614b39575b5061271080821015614b2c575b506064811015614b1e575b1015614b14575b6001908183019561496361494d886137ba565b9761495b604051998a613583565b8089526137ba565b94836021848a0196601f198099013689378a0101905b614ae5575b5050506040519586938691601a54614995816136da565b90858782169182600014614ac6575050600114614a6c575b5082916149bd91519384916135c6565b019085601b54936149cd856136da565b94818116908115614a4d57506001146149f6575b50505050506138279203908101835282613583565b601b82527f3ad8aa4f87544323a9d1e5dd902f40c356527a7955687113db5f9a85ad579dc197505b848210614a3757505050019250613827388080806149e1565b8754848301529687019688955090820190614a1e565b60ff1916855250505050811515909102019250613827388080806149e1565b601a895291925090877f057c384a7d1c54f3a1b2e5e67b2617b8224fdfd1ea7234eea573a6ff665ff63e5b828210614aae5750508501830191906149bd6149ad565b80549782018601979097528996908501908601614a97565b60ff191689820152821515909202880190910193506149bd90506149ad565b600019019082906f181899199a1a9b1b9c1cb0b131b232b360811b8282061a835304908482614979575061497e565b906001019061493a565b606460029104930192614933565b6004910493019238614928565b600891049301923861491b565b601091049301923861490c565b940193900482386148f9565b6040955088935004905038806148de565b935050505090565b60405162461bcd60e51b815260206004820152601f60248201527f55524920717565727920666f72206e6f6e6578697374656e7420746f6b656e006044820152606490fdfea2646970667358221220e039c349d81f7e68048e5e2f90f03dd5841c608a3798ef01300b3eacea7ed83664736f6c63430008130033","opcodes":"PUSH1 0x40 PUSH1 0x80 DUP2 MSTORE CALLVALUE PUSH3 0x699 JUMPI PUSH3 0x5343 DUP1 CODESIZE SUB DUP1 PUSH3 0x1E DUP2 PUSH3 0x6BE JUMP JUMPDEST SWAP3 DUP4 CODECOPY DUP2 ADD PUSH1 0x80 DUP3 DUP3 SUB SLT PUSH3 0x699 JUMPI PUSH3 0x39 DUP3 PUSH3 0x6E4 JUMP JUMPDEST SWAP2 PUSH1 0x20 SWAP1 PUSH3 0x4A DUP3 DUP3 ADD PUSH3 0x6E4 JUMP JUMPDEST PUSH3 0x57 DUP7 DUP4 ADD PUSH3 0x6E4 JUMP JUMPDEST PUSH1 0x60 DUP4 ADD MLOAD PUSH1 0x1 PUSH1 0x1 PUSH1 0x40 SHL SUB SWAP4 SWAP2 SWAP3 SWAP2 DUP5 DUP3 GT PUSH3 0x699 JUMPI ADD SWAP1 PUSH1 0x1F SWAP3 DUP7 DUP5 DUP5 ADD SLT ISZERO PUSH3 0x699 JUMPI DUP3 MLOAD DUP6 DUP2 GT PUSH3 0x424 JUMPI PUSH1 0x1F NOT SWAP4 PUSH3 0x9F DUP3 DUP8 ADD DUP7 AND DUP10 ADD PUSH3 0x6BE JUMP JUMPDEST SWAP9 DUP3 DUP11 MSTORE DUP9 DUP4 DUP4 ADD ADD GT PUSH3 0x699 JUMPI DUP8 SWAP1 PUSH1 0x0 JUMPDEST DUP4 DUP2 LT PUSH3 0x684 JUMPI POP POP PUSH1 0x0 SWAP2 DUP10 ADD ADD MSTORE PUSH3 0xCE PUSH3 0x69E JUMP JUMPDEST SWAP2 PUSH1 0xF DUP4 MSTORE PUSH15 0x911D3D05314C8141C9BDD1BD8DBDB PUSH1 0x8A SHL DUP8 DUP5 ADD MSTORE PUSH3 0xF4 PUSH3 0x69E JUMP JUMPDEST SWAP9 PUSH1 0x5 SWAP4 DUP5 DUP12 MSTORE PUSH5 0x474F414C53 PUSH1 0xD8 SHL DUP10 DUP13 ADD MSTORE DUP1 MLOAD SWAP1 DUP9 DUP3 GT PUSH3 0x424 JUMPI DUP2 SWAP1 PUSH3 0x122 PUSH1 0x0 SLOAD PUSH3 0x6F9 JUMP JUMPDEST DUP12 DUP11 DUP3 GT PUSH3 0x653 JUMPI JUMPDEST POP POP DUP11 SWAP1 DUP10 DUP4 GT PUSH1 0x1 EQ PUSH3 0x5EC JUMPI PUSH1 0x0 SWAP3 PUSH3 0x5E0 JUMPI JUMPDEST POP POP DUP2 PUSH1 0x1 SHL SWAP2 PUSH1 0x0 NOT SWAP1 PUSH1 0x3 SHL SHR NOT AND OR PUSH1 0x0 SSTORE JUMPDEST DUP10 MLOAD DUP8 DUP2 GT PUSH3 0x424 JUMPI DUP1 PUSH1 0x1 SWAP12 DUP13 DUP12 PUSH3 0x176 DUP3 SLOAD PUSH3 0x6F9 JUMP JUMPDEST DUP12 DUP2 GT PUSH3 0x5A4 JUMPI JUMPDEST POP POP POP DUP11 SWAP1 DUP10 DUP4 GT PUSH1 0x1 EQ PUSH3 0x535 JUMPI PUSH1 0x0 SWAP3 PUSH3 0x529 JUMPI JUMPDEST POP POP PUSH1 0x0 NOT PUSH1 0x3 DUP4 SWAP1 SHL SHR NOT AND SWAP1 DUP12 SHL OR DUP11 SSTORE JUMPDEST PUSH1 0xB DUP1 SLOAD PUSH1 0x1 PUSH1 0x1 PUSH1 0xA8 SHL SUB NOT DUP2 AND CALLER PUSH1 0x8 DUP2 DUP2 SHL PUSH2 0x100 PUSH1 0x1 PUSH1 0xA8 SHL SUB AND SWAP3 SWAP1 SWAP3 OR SWAP1 SWAP4 SSTORE PUSH1 0x1 PUSH1 0x1 PUSH1 0xA0 SHL SUB SWAP4 DUP5 SWAP4 SWAP1 SWAP3 SWAP1 SWAP2 SHR DUP4 AND PUSH32 0x8BE0079C531659141344CD1FD0A4F28419497F9722A3DAAFE3B4186F6B6457E0 PUSH1 0x0 DUP1 LOG3 PUSH2 0xE10 PUSH1 0x16 SSTORE PUSH3 0x21C PUSH1 0x1B SLOAD PUSH3 0x6F9 JUMP JUMPDEST DUP9 DUP2 GT PUSH3 0x506 JUMPI JUMPDEST POP PUSH1 0xA PUSH5 0x173539B7B7 PUSH1 0xD9 SHL ADD PUSH1 0x1B SSTORE AND SWAP2 DUP3 ISZERO PUSH3 0x4C2 JUMPI DUP2 AND SWAP3 DUP4 ISZERO PUSH3 0x47E JUMPI AND SWAP2 DUP3 ISZERO PUSH3 0x43A JUMPI PUSH1 0x1 DUP1 PUSH1 0xA0 SHL SUB NOT SWAP2 DUP3 PUSH1 0x17 SLOAD AND OR PUSH1 0x17 SSTORE DUP2 PUSH1 0x18 SLOAD AND OR PUSH1 0x18 SSTORE PUSH1 0x19 SLOAD AND OR PUSH1 0x19 SSTORE DUP6 MLOAD SWAP4 DUP5 GT PUSH3 0x424 JUMPI PUSH3 0x28B PUSH1 0x1A SLOAD PUSH3 0x6F9 JUMP JUMPDEST DUP4 DUP2 GT PUSH3 0x3E6 JUMPI JUMPDEST POP POP DUP4 SWAP2 DUP4 GT PUSH1 0x1 EQ PUSH3 0x37C JUMPI POP DUP2 SWAP1 PUSH1 0x14 SWAP5 PUSH1 0x0 SWAP3 PUSH3 0x370 JUMPI JUMPDEST POP POP PUSH1 0x0 NOT PUSH1 0x3 DUP4 SWAP1 SHL SHR NOT AND SWAP1 DUP5 SHL OR PUSH1 0x1A SSTORE JUMPDEST PUSH1 0x0 DUP1 MSTORE PUSH1 0x13 DUP2 MSTORE PUSH7 0x2386F26FC10000 DUP5 PUSH1 0x0 KECCAK256 SSTORE DUP3 PUSH1 0x0 MSTORE PUSH7 0xB1A2BC2EC50000 DUP5 PUSH1 0x0 KECCAK256 SSTORE PUSH1 0x2 PUSH1 0x0 MSTORE PUSH8 0x2C68AF0BB140000 DUP5 PUSH1 0x0 KECCAK256 SSTORE PUSH1 0x3 PUSH1 0x0 MSTORE PUSH8 0xDE0B6B3A7640000 DUP5 PUSH1 0x0 KECCAK256 SSTORE PUSH1 0x4 PUSH1 0x0 MSTORE PUSH8 0x4563918244F40000 DUP5 PUSH1 0x0 KECCAK256 SSTORE PUSH1 0x0 DUP1 MSTORE MSTORE PUSH2 0x1388 DUP3 PUSH1 0x0 KECCAK256 SSTORE PUSH1 0x0 MSTORE PUSH2 0x7D0 DUP2 PUSH1 0x0 KECCAK256 SSTORE PUSH1 0x2 PUSH1 0x0 MSTORE PUSH2 0x1F4 DUP2 PUSH1 0x0 KECCAK256 SSTORE PUSH1 0x3 PUSH1 0x0 MSTORE PUSH1 0x64 DUP2 PUSH1 0x0 KECCAK256 SSTORE PUSH1 0x4 PUSH1 0x0 MSTORE PUSH1 0x14 DUP2 PUSH1 0x0 KECCAK256 SSTORE MLOAD PUSH2 0x4BF3 SWAP1 DUP2 PUSH3 0x750 DUP3 CODECOPY RETURN JUMPDEST ADD MLOAD SWAP1 POP CODESIZE DUP1 PUSH3 0x2B1 JUMP JUMPDEST SWAP4 DUP3 SWAP2 SWAP5 DUP7 SWAP4 AND SWAP5 PUSH1 0x1A PUSH1 0x0 MSTORE DUP5 PUSH1 0x0 KECCAK256 SWAP2 PUSH1 0x0 JUMPDEST DUP8 DUP2 LT PUSH3 0x3CE JUMPI POP DUP4 PUSH1 0x14 SWAP8 LT PUSH3 0x3B4 JUMPI JUMPDEST POP POP POP DUP2 SHL ADD PUSH1 0x1A SSTORE PUSH3 0x2C6 JUMP JUMPDEST ADD MLOAD PUSH1 0x0 NOT PUSH1 0xF8 DUP5 PUSH1 0x3 SHL AND SHR NOT AND SWAP1 SSTORE CODESIZE DUP1 DUP1 PUSH3 0x3A5 JUMP JUMPDEST DUP3 DUP3 ADD MLOAD DUP5 SSTORE DUP9 SWAP6 SWAP1 SWAP4 ADD SWAP3 SWAP2 DUP7 ADD SWAP2 DUP7 ADD PUSH3 0x391 JUMP JUMPDEST PUSH3 0x412 SWAP2 PUSH1 0x1A PUSH1 0x0 MSTORE DUP7 PUSH1 0x0 KECCAK256 SWAP1 DUP6 DUP1 DUP9 ADD DUP3 SHR DUP4 ADD SWAP4 DUP10 DUP10 LT PUSH3 0x41A JUMPI JUMPDEST ADD SWAP1 SHR ADD SWAP1 PUSH3 0x736 JUMP JUMPDEST CODESIZE DUP1 PUSH3 0x294 JUMP JUMPDEST SWAP4 POP DUP3 SWAP4 PUSH3 0x407 JUMP JUMPDEST PUSH4 0x4E487B71 PUSH1 0xE0 SHL PUSH1 0x0 MSTORE PUSH1 0x41 PUSH1 0x4 MSTORE PUSH1 0x24 PUSH1 0x0 REVERT JUMPDEST DUP11 MLOAD PUSH3 0x461BCD PUSH1 0xE5 SHL DUP2 MSTORE PUSH1 0x4 DUP2 ADD DUP10 SWAP1 MSTORE PUSH1 0x17 PUSH1 0x24 DUP3 ADD MSTORE PUSH32 0x496E76616C6964206167656E7420726567756C61746F72000000000000000000 PUSH1 0x44 DUP3 ADD MSTORE PUSH1 0x64 SWAP1 REVERT JUMPDEST DUP12 MLOAD PUSH3 0x461BCD PUSH1 0xE5 SHL DUP2 MSTORE PUSH1 0x4 DUP2 ADD DUP11 SWAP1 MSTORE PUSH1 0x13 PUSH1 0x24 DUP3 ADD MSTORE PUSH32 0x496E76616C69642064617461206F7261636C6500000000000000000000000000 PUSH1 0x44 DUP3 ADD MSTORE PUSH1 0x64 SWAP1 REVERT JUMPDEST DUP12 MLOAD PUSH3 0x461BCD PUSH1 0xE5 SHL DUP2 MSTORE PUSH1 0x4 DUP2 ADD DUP11 SWAP1 MSTORE PUSH1 0x19 PUSH1 0x24 DUP3 ADD MSTORE PUSH32 0x496E76616C696420726F79616C747920726563697069656E7400000000000000 PUSH1 0x44 DUP3 ADD MSTORE PUSH1 0x64 SWAP1 REVERT JUMPDEST PUSH3 0x522 SWAP1 PUSH1 0x1B PUSH1 0x0 MSTORE DUP10 DUP13 PUSH1 0x0 KECCAK256 SWAP2 ADD DUP9 SHR DUP2 ADD SWAP1 PUSH3 0x736 JUMP JUMPDEST CODESIZE PUSH3 0x225 JUMP JUMPDEST ADD MLOAD SWAP1 POP CODESIZE DUP1 PUSH3 0x198 JUMP JUMPDEST SWAP1 DUP9 DUP15 SWAP5 AND SWAP2 DUP5 PUSH1 0x0 MSTORE DUP13 PUSH1 0x0 KECCAK256 SWAP3 DUP14 PUSH1 0x0 SWAP1 JUMPDEST DUP3 DUP3 LT PUSH3 0x583 JUMPI POP POP DUP5 GT PUSH3 0x569 JUMPI JUMPDEST POP POP POP DUP2 SHL ADD DUP11 SSTORE PUSH3 0x1AC JUMP JUMPDEST ADD MLOAD PUSH1 0x0 NOT PUSH1 0xF8 DUP5 PUSH1 0x3 SHL AND SHR NOT AND SWAP1 SSTORE CODESIZE DUP1 DUP1 PUSH3 0x55B JUMP JUMPDEST SWAP2 SWAP3 SWAP4 SWAP6 SWAP7 DUP3 SWAP2 SWAP6 DUP8 DUP7 ADD MLOAD DUP2 SSTORE ADD SWAP6 ADD SWAP4 ADD SWAP1 DUP16 SWAP6 SWAP5 SWAP4 SWAP3 SWAP2 DUP15 PUSH3 0x549 JUMP JUMPDEST PUSH3 0x5CD SWAP3 PUSH1 0x0 MSTORE DUP12 DUP3 PUSH1 0x0 KECCAK256 SWAP2 DUP2 DUP8 ADD DUP13 SHR DUP4 ADD SWAP4 DUP8 LT PUSH3 0x5D6 JUMPI JUMPDEST ADD DUP11 SHR ADD SWAP1 PUSH3 0x736 JUMP JUMPDEST DUP13 DUP12 CODESIZE PUSH3 0x17F JUMP JUMPDEST SWAP3 POP DUP2 SWAP3 PUSH3 0x5C2 JUMP JUMPDEST ADD MLOAD SWAP1 POP CODESIZE DUP1 PUSH3 0x144 JUMP JUMPDEST PUSH1 0x0 DUP1 DUP1 MSTORE DUP13 DUP2 KECCAK256 SWAP4 DUP11 AND SWAP1 JUMPDEST DUP14 DUP3 DUP3 LT PUSH3 0x63C JUMPI POP POP SWAP1 DUP5 PUSH1 0x1 SWAP6 SWAP5 SWAP4 SWAP3 LT PUSH3 0x622 JUMPI JUMPDEST POP POP POP DUP2 SHL ADD PUSH1 0x0 SSTORE PUSH3 0x15A JUMP JUMPDEST ADD MLOAD PUSH1 0x0 NOT PUSH1 0xF8 DUP5 PUSH1 0x3 SHL AND SHR NOT AND SWAP1 SSTORE CODESIZE DUP1 DUP1 PUSH3 0x613 JUMP JUMPDEST PUSH1 0x1 DUP6 SWAP7 DUP3 SWAP4 SWAP7 DUP7 ADD MLOAD DUP2 SSTORE ADD SWAP6 ADD SWAP4 ADD PUSH3 0x5F9 JUMP JUMPDEST PUSH3 0x67C SWAP2 PUSH1 0x0 DUP1 MSTORE DUP12 DUP3 PUSH1 0x0 KECCAK256 SWAP2 DUP2 DUP8 ADD DUP13 SHR DUP4 ADD SWAP4 DUP8 LT PUSH3 0x5D6 JUMPI ADD DUP11 SHR ADD SWAP1 PUSH3 0x736 JUMP JUMPDEST CODESIZE DUP12 PUSH3 0x12C JUMP JUMPDEST DUP2 DUP2 ADD DUP4 ADD MLOAD DUP12 DUP3 ADD DUP5 ADD MSTORE DUP10 SWAP3 ADD PUSH3 0xB3 JUMP JUMPDEST PUSH1 0x0 DUP1 REVERT JUMPDEST PUSH1 0x40 DUP1 MLOAD SWAP2 SWAP1 DUP3 ADD PUSH1 0x1 PUSH1 0x1 PUSH1 0x40 SHL SUB DUP2 GT DUP4 DUP3 LT OR PUSH3 0x424 JUMPI PUSH1 0x40 MSTORE JUMP JUMPDEST PUSH1 0x40 MLOAD SWAP2 SWAP1 PUSH1 0x1F ADD PUSH1 0x1F NOT AND DUP3 ADD PUSH1 0x1 PUSH1 0x1 PUSH1 0x40 SHL SUB DUP2 GT DUP4 DUP3 LT OR PUSH3 0x424 JUMPI PUSH1 0x40 MSTORE JUMP JUMPDEST MLOAD SWAP1 PUSH1 0x1 PUSH1 0x1 PUSH1 0xA0 SHL SUB DUP3 AND DUP3 SUB PUSH3 0x699 JUMPI JUMP JUMPDEST SWAP1 PUSH1 0x1 DUP3 DUP2 SHR SWAP3 AND DUP1 ISZERO PUSH3 0x72B JUMPI JUMPDEST PUSH1 0x20 DUP4 LT EQ PUSH3 0x715 JUMPI JUMP JUMPDEST PUSH4 0x4E487B71 PUSH1 0xE0 SHL PUSH1 0x0 MSTORE PUSH1 0x22 PUSH1 0x4 MSTORE PUSH1 0x24 PUSH1 0x0 REVERT JUMPDEST SWAP2 PUSH1 0x7F AND SWAP2 PUSH3 0x709 JUMP JUMPDEST DUP2 DUP2 LT PUSH3 0x742 JUMPI POP POP JUMP JUMPDEST PUSH1 0x0 DUP2 SSTORE PUSH1 0x1 ADD PUSH3 0x736 JUMP INVALID PUSH1 0xA0 DUP1 PUSH1 0x40 MSTORE PUSH1 0x4 CALLDATASIZE LT ISZERO PUSH2 0x13 JUMPI PUSH1 0x0 DUP1 REVERT JUMPDEST PUSH1 0x0 CALLDATALOAD PUSH1 0xE0 SHR SWAP1 DUP2 PUSH4 0x1FFC9A7 EQ PUSH2 0x340A JUMPI POP DUP1 PUSH4 0x28B9A0C EQ PUSH2 0x3095 JUMPI DUP1 PUSH4 0x6FDDE03 EQ PUSH2 0x2FF2 JUMPI DUP1 PUSH4 0x763678F EQ PUSH2 0x2F98 JUMPI DUP1 PUSH4 0x81812FC EQ PUSH2 0x2F7A JUMPI DUP1 PUSH4 0x95EA7B3 EQ PUSH2 0x2E00 JUMPI DUP1 PUSH4 0x18160DDD EQ PUSH2 0x2DE2 JUMPI DUP1 PUSH4 0x23B872DD EQ PUSH2 0x2DBE JUMPI DUP1 PUSH4 0x2A55205A EQ PUSH2 0x2D7C JUMPI DUP1 PUSH4 0x2D8120B5 EQ PUSH2 0x2D54 JUMPI DUP1 PUSH4 0x2F745C59 EQ PUSH2 0x2D2D JUMPI DUP1 PUSH4 0x30274DAF EQ PUSH2 0x2BD1 JUMPI DUP1 PUSH4 0x3CCFD60B EQ PUSH2 0x2B14 JUMPI DUP1 PUSH4 0x3F4BA83A EQ PUSH2 0x2A80 JUMPI DUP1 PUSH4 0x40398D67 EQ PUSH2 0x29BD JUMPI DUP1 PUSH4 0x42842E0E EQ PUSH2 0x298A JUMPI DUP1 PUSH4 0x42966C68 EQ PUSH2 0x2709 JUMPI DUP1 PUSH4 0x463B08DB EQ PUSH2 0x26EC JUMPI DUP1 PUSH4 0x4C00DE82 EQ PUSH2 0x26C3 JUMPI DUP1 PUSH4 0x4F6CCCE7 EQ PUSH2 0x2632 JUMPI DUP1 PUSH4 0x50CE255D EQ PUSH2 0x2609 JUMPI DUP1 PUSH4 0x5AD53BDA EQ PUSH2 0x25EB JUMPI DUP1 PUSH4 0x5C975ABB EQ PUSH2 0x25C8 JUMPI DUP1 PUSH4 0x617D1126 EQ PUSH2 0x25AA JUMPI DUP1 PUSH4 0x62BBFAD6 EQ PUSH2 0x255E JUMPI DUP1 PUSH4 0x6352211E EQ PUSH2 0x252E JUMPI DUP1 PUSH4 0x69F49EE5 EQ PUSH2 0x2512 JUMPI DUP1 PUSH4 0x6C0360EB EQ PUSH2 0x246C JUMPI DUP1 PUSH4 0x6D8469FF EQ PUSH2 0x1F9A JUMPI DUP1 PUSH4 0x70A08231 EQ PUSH2 0x1F6F JUMPI DUP1 PUSH4 0x715018A6 EQ PUSH2 0x1F0E JUMPI DUP1 PUSH4 0x814641A3 EQ PUSH2 0x1E4A JUMPI DUP1 PUSH4 0x8456CB59 EQ PUSH2 0x1DF0 JUMPI DUP1 PUSH4 0x8DA5CB5B EQ PUSH2 0x1DC3 JUMPI DUP1 PUSH4 0x8ECAD721 EQ PUSH2 0x1DA7 JUMPI DUP1 PUSH4 0x8FF29CFE EQ PUSH2 0x1D68 JUMPI DUP1 PUSH4 0x95D89B41 EQ PUSH2 0x1CC5 JUMPI DUP1 PUSH4 0x962124DF EQ PUSH2 0x1C4F JUMPI DUP1 PUSH4 0x96FC0B35 EQ PUSH2 0x130A JUMPI DUP1 PUSH4 0x99FC65D4 EQ PUSH2 0x12B7 JUMPI DUP1 PUSH4 0xA22CB465 EQ PUSH2 0x11DF JUMPI DUP1 PUSH4 0xA964B0A9 EQ PUSH2 0x114A JUMPI DUP1 PUSH4 0xAA2FE91B EQ PUSH2 0x110B JUMPI DUP1 PUSH4 0xB09AFEC1 EQ PUSH2 0xE2F JUMPI DUP1 PUSH4 0xB4B5B48F EQ PUSH2 0xCFA JUMPI DUP1 PUSH4 0xB88D4FDE EQ PUSH2 0xC75 JUMPI DUP1 PUSH4 0xBF3CB7C7 EQ PUSH2 0xC52 JUMPI DUP1 PUSH4 0xC3415C9D EQ PUSH2 0xC29 JUMPI DUP1 PUSH4 0xC5E09406 EQ PUSH2 0xBCA JUMPI DUP1 PUSH4 0xC6682862 EQ PUSH2 0xAFC JUMPI DUP1 PUSH4 0xC7600081 EQ PUSH2 0xAD4 JUMPI DUP1 PUSH4 0xC87B56DD EQ PUSH2 0xA9D JUMPI DUP1 PUSH4 0xCC2CF51F EQ PUSH2 0xA7F JUMPI DUP1 PUSH4 0xD1EEDF10 EQ PUSH2 0xA63 JUMPI DUP1 PUSH4 0xD3A4A281 EQ PUSH2 0xA32 JUMPI DUP1 PUSH4 0xD9C6176C EQ PUSH2 0xA15 JUMPI DUP1 PUSH4 0xDE1C12CE EQ PUSH2 0x988 JUMPI DUP1 PUSH4 0xE298F76A EQ PUSH2 0x7D0 JUMPI DUP1 PUSH4 0xE53F9FC1 EQ PUSH2 0x66A JUMPI DUP1 PUSH4 0xE8F91050 EQ PUSH2 0x603 JUMPI DUP1 PUSH4 0xE985E9C5 EQ PUSH2 0x5AD JUMPI DUP1 PUSH4 0xE9C54464 EQ PUSH2 0x520 JUMPI DUP1 PUSH4 0xEA59BB8E EQ PUSH2 0x418 JUMPI DUP1 PUSH4 0xED58BAD8 EQ PUSH2 0x3C3 JUMPI PUSH4 0xF2FDE38B EQ PUSH2 0x2EA JUMPI PUSH1 0x0 DUP1 REVERT JUMPDEST CALLVALUE PUSH2 0x3BE JUMPI PUSH1 0x20 CALLDATASIZE PUSH1 0x3 NOT ADD SLT PUSH2 0x3BE JUMPI PUSH2 0x303 PUSH2 0x3618 JUMP JUMPDEST PUSH2 0x30B PUSH2 0x3A48 JUMP JUMPDEST PUSH1 0x1 PUSH1 0x1 PUSH1 0xA0 SHL SUB DUP2 DUP2 AND SWAP2 DUP3 ISZERO PUSH2 0x36A JUMPI PUSH1 0xB DUP1 SLOAD PUSH2 0x100 PUSH1 0x1 PUSH1 0xA8 SHL SUB NOT DUP2 AND PUSH1 0x8 SWAP4 DUP5 SHL PUSH2 0x100 PUSH1 0x1 PUSH1 0xA8 SHL SUB AND OR SWAP1 SWAP2 SSTORE SWAP1 SHR AND PUSH32 0x8BE0079C531659141344CD1FD0A4F28419497F9722A3DAAFE3B4186F6B6457E0 PUSH1 0x0 DUP1 LOG3 STOP JUMPDEST PUSH1 0x40 MLOAD PUSH3 0x461BCD PUSH1 0xE5 SHL DUP2 MSTORE PUSH1 0x20 PUSH1 0x4 DUP3 ADD MSTORE PUSH1 0x26 PUSH1 0x24 DUP3 ADD MSTORE PUSH32 0x4F776E61626C653A206E6577206F776E657220697320746865207A65726F2061 PUSH1 0x44 DUP3 ADD MSTORE PUSH6 0x646472657373 PUSH1 0xD0 SHL PUSH1 0x64 DUP3 ADD MSTORE PUSH1 0x84 SWAP1 REVERT JUMPDEST PUSH1 0x0 DUP1 REVERT JUMPDEST CALLVALUE PUSH2 0x3BE JUMPI PUSH1 0x40 CALLDATASIZE PUSH1 0x3 NOT ADD SLT PUSH2 0x3BE JUMPI PUSH2 0x416 PUSH2 0x3DF PUSH2 0x3618 JUMP JUMPDEST PUSH2 0x3E7 PUSH2 0x382A JUMP JUMPDEST SWAP1 PUSH2 0x3F0 PUSH2 0x3A48 JUMP JUMPDEST PUSH1 0x1 DUP1 PUSH1 0xA0 SHL SUB AND PUSH1 0x0 MSTORE PUSH1 0x11 PUSH1 0x20 MSTORE PUSH1 0x40 PUSH1 0x0 KECCAK256 SWAP1 PUSH1 0xFF DUP1 NOT DUP4 SLOAD AND SWAP2 ISZERO ISZERO AND OR SWAP1 SSTORE JUMP JUMPDEST STOP JUMPDEST CALLVALUE PUSH2 0x3BE JUMPI PUSH1 0x20 DUP1 PUSH1 0x3 NOT CALLDATASIZE ADD SLT PUSH2 0x3BE JUMPI PUSH1 0x4 CALLDATALOAD PUSH1 0x1 PUSH1 0x1 PUSH1 0x40 SHL SUB DUP2 GT PUSH2 0x3BE JUMPI CALLDATASIZE PUSH1 0x23 DUP3 ADD SLT ISZERO PUSH2 0x3BE JUMPI DUP1 PUSH1 0x4 ADD CALLDATALOAD SWAP1 PUSH2 0x455 DUP3 PUSH2 0x3A31 JUMP JUMPDEST SWAP2 PUSH2 0x463 PUSH1 0x40 MLOAD SWAP4 DUP5 PUSH2 0x3583 JUMP JUMPDEST DUP1 DUP4 MSTORE PUSH1 0x24 DUP5 DUP5 ADD SWAP2 PUSH1 0x5 SHL DUP4 ADD ADD SWAP2 CALLDATASIZE DUP4 GT PUSH2 0x3BE JUMPI PUSH1 0x24 ADD SWAP1 JUMPDEST DUP3 DUP3 LT PUSH2 0x511 JUMPI DUP4 PUSH1 0x0 JUMPDEST DUP2 MLOAD DUP2 LT ISZERO PUSH2 0x416 JUMPI DUP1 PUSH2 0x4C2 PUSH2 0x4A4 PUSH2 0x4CB SWAP4 DUP6 PUSH2 0x4621 JUMP JUMPDEST MLOAD PUSH1 0x0 SWAP1 DUP2 MSTORE PUSH1 0x2 PUSH1 0x20 MSTORE PUSH1 0x40 SWAP1 KECCAK256 SLOAD PUSH1 0x1 PUSH1 0x1 PUSH1 0xA0 SHL SUB AND ISZERO ISZERO SWAP1 JUMP JUMPDEST PUSH2 0x4D0 JUMPI PUSH2 0x424A JUMP JUMPDEST PUSH2 0x48A JUMP JUMPDEST PUSH2 0x50B PUSH2 0x4DD DUP3 DUP6 PUSH2 0x4621 JUMP JUMPDEST MLOAD PUSH1 0x0 DUP2 DUP2 MSTORE PUSH1 0x2 PUSH1 0x20 MSTORE PUSH1 0x40 SWAP1 KECCAK256 SLOAD PUSH2 0x506 SWAP1 PUSH1 0x1 PUSH1 0x1 PUSH1 0xA0 SHL SUB AND ISZERO ISZERO PUSH2 0x4207 JUMP JUMPDEST PUSH2 0x4207 JUMP JUMPDEST PUSH2 0x4259 JUMP JUMPDEST POP PUSH2 0x424A JUMP JUMPDEST DUP2 CALLDATALOAD DUP2 MSTORE SWAP1 DUP5 ADD SWAP1 DUP5 ADD PUSH2 0x47F JUMP JUMPDEST CALLVALUE PUSH2 0x3BE JUMPI PUSH1 0x20 CALLDATASIZE PUSH1 0x3 NOT ADD SLT PUSH2 0x3BE JUMPI PUSH2 0x539 PUSH2 0x3618 JUMP JUMPDEST PUSH2 0x541 PUSH2 0x3A48 JUMP JUMPDEST PUSH1 0x1 PUSH1 0x1 PUSH1 0xA0 SHL SUB AND DUP1 ISZERO PUSH2 0x568 JUMPI PUSH1 0x1 PUSH1 0x1 PUSH1 0x60 SHL SUB PUSH1 0xA0 SHL PUSH1 0x19 SLOAD AND OR PUSH1 0x19 SSTORE PUSH1 0x0 DUP1 RETURN JUMPDEST PUSH1 0x40 MLOAD PUSH3 0x461BCD PUSH1 0xE5 SHL DUP2 MSTORE PUSH1 0x20 PUSH1 0x4 DUP3 ADD MSTORE PUSH1 0x19 PUSH1 0x24 DUP3 ADD MSTORE PUSH32 0x496E76616C696420726567756C61746F72206164647265737300000000000000 PUSH1 0x44 DUP3 ADD MSTORE PUSH1 0x64 SWAP1 REVERT JUMPDEST CALLVALUE PUSH2 0x3BE JUMPI PUSH1 0x40 CALLDATASIZE PUSH1 0x3 NOT ADD SLT PUSH2 0x3BE JUMPI PUSH2 0x5C6 PUSH2 0x3618 JUMP JUMPDEST PUSH2 0x5CE PUSH2 0x362E JUMP JUMPDEST SWAP1 PUSH1 0x1 DUP1 PUSH1 0xA0 SHL SUB DUP1 SWAP2 AND PUSH1 0x0 MSTORE PUSH1 0x5 PUSH1 0x20 MSTORE PUSH1 0x40 PUSH1 0x0 KECCAK256 SWAP2 AND PUSH1 0x0 MSTORE PUSH1 0x20 MSTORE PUSH1 0x20 PUSH1 0xFF PUSH1 0x40 PUSH1 0x0 KECCAK256 SLOAD AND PUSH1 0x40 MLOAD SWAP1 ISZERO ISZERO DUP2 MSTORE RETURN JUMPDEST CALLVALUE PUSH2 0x3BE JUMPI PUSH1 0x40 CALLDATASIZE PUSH1 0x3 NOT ADD SLT PUSH2 0x3BE JUMPI PUSH1 0x24 CALLDATALOAD PUSH1 0x4 CALLDATALOAD PUSH1 0x1 PUSH1 0x1 PUSH1 0x40 SHL SUB DUP3 GT PUSH2 0x3BE JUMPI PUSH2 0x639 PUSH2 0x416 SWAP3 CALLDATASIZE SWAP1 PUSH1 0x4 ADD PUSH2 0x380C JUMP JUMPDEST SWAP1 PUSH2 0x642 PUSH2 0x3A48 JUMP JUMPDEST PUSH1 0x0 DUP2 DUP2 MSTORE PUSH1 0x2 PUSH1 0x20 MSTORE PUSH1 0x40 SWAP1 KECCAK256 SLOAD PUSH2 0x665 SWAP1 PUSH1 0x1 PUSH1 0x1 PUSH1 0xA0 SHL SUB AND ISZERO ISZERO PUSH2 0x4207 JUMP JUMPDEST PUSH2 0x469F JUMP JUMPDEST CALLVALUE PUSH2 0x3BE JUMPI PUSH1 0x20 DUP1 PUSH1 0x3 NOT CALLDATASIZE ADD SLT PUSH2 0x3BE JUMPI PUSH1 0x4 CALLDATALOAD PUSH1 0x0 DUP2 DUP2 MSTORE PUSH1 0x2 PUSH1 0x20 MSTORE PUSH1 0x40 SWAP1 KECCAK256 SLOAD PUSH2 0x6A2 SWAP1 PUSH1 0x1 PUSH1 0x1 PUSH1 0xA0 SHL SUB AND ISZERO ISZERO PUSH2 0x4207 JUMP JUMPDEST PUSH1 0x0 MSTORE PUSH1 0x10 DUP2 MSTORE PUSH1 0x40 PUSH1 0x0 KECCAK256 SWAP1 DUP2 SLOAD SWAP2 PUSH2 0x6BB DUP4 PUSH2 0x3A31 JUMP JUMPDEST SWAP3 PUSH2 0x6C9 PUSH1 0x40 MLOAD SWAP5 DUP6 PUSH2 0x3583 JUMP JUMPDEST DUP1 DUP5 MSTORE DUP3 DUP5 ADD DUP1 SWAP3 PUSH1 0x0 MSTORE DUP4 PUSH1 0x0 KECCAK256 PUSH1 0x0 SWAP2 JUMPDEST DUP4 DUP4 LT PUSH2 0x777 JUMPI POP POP POP POP PUSH1 0x40 MLOAD SWAP2 DUP1 DUP4 ADD SWAP4 DUP2 DUP5 MSTORE MLOAD DUP1 SWAP5 MSTORE PUSH1 0x40 DUP4 ADD SWAP4 PUSH1 0x40 DUP2 PUSH1 0x5 SHL DUP6 ADD ADD SWAP3 SWAP2 PUSH1 0x0 SWAP6 JUMPDEST DUP3 DUP8 LT PUSH2 0x717 JUMPI DUP6 DUP6 SUB DUP7 RETURN JUMPDEST SWAP1 SWAP2 SWAP3 SWAP4 DUP3 DUP1 PUSH1 0x1 SWAP3 PUSH1 0x3F NOT DUP10 DUP3 SUB ADD DUP6 MSTORE DUP8 MLOAD SWAP1 DUP2 MLOAD DUP2 MSTORE PUSH2 0x75B PUSH2 0x749 DUP5 DUP5 ADD MLOAD PUSH1 0x80 DUP1 DUP8 DUP7 ADD MSTORE DUP5 ADD SWAP1 PUSH2 0x35E9 JUMP JUMPDEST PUSH1 0x40 DUP5 ADD MLOAD DUP4 DUP3 SUB PUSH1 0x40 DUP6 ADD MSTORE PUSH2 0x35E9 JUMP JUMPDEST SWAP2 PUSH1 0x60 DUP1 SWAP2 ADD MLOAD ISZERO ISZERO SWAP2 ADD MSTORE SWAP7 ADD SWAP3 ADD SWAP7 ADD SWAP6 SWAP3 SWAP2 SWAP1 SWAP3 PUSH2 0x70A JUMP JUMPDEST PUSH1 0x4 DUP7 PUSH1 0x1 SWAP3 PUSH1 0x40 SWAP10 SWAP9 SWAP10 MLOAD PUSH2 0x78C DUP2 PUSH2 0x34DF JUMP JUMPDEST DUP6 SLOAD DUP2 MSTORE PUSH2 0x79B DUP6 DUP8 ADD PUSH2 0x3714 JUMP JUMPDEST DUP4 DUP3 ADD MSTORE PUSH2 0x7AB PUSH1 0x2 DUP8 ADD PUSH2 0x3714 JUMP JUMPDEST PUSH1 0x40 DUP3 ADD MSTORE PUSH1 0xFF PUSH1 0x3 DUP8 ADD SLOAD AND ISZERO ISZERO PUSH1 0x60 DUP3 ADD MSTORE DUP2 MSTORE ADD SWAP3 ADD SWAP3 ADD SWAP2 SWAP1 SWAP6 SWAP5 SWAP6 PUSH2 0x6DC JUMP JUMPDEST CALLVALUE PUSH2 0x3BE JUMPI PUSH1 0x80 CALLDATASIZE PUSH1 0x3 NOT ADD SLT PUSH2 0x3BE JUMPI PUSH1 0x4 CALLDATALOAD PUSH2 0x7EC PUSH2 0x382A JUMP JUMPDEST DUP2 PUSH32 0xD77075D1C479DFAE92457562D631FECB5A018BD00F1ED5B2A26A6F78A8B13AAB PUSH1 0x60 PUSH1 0x44 CALLDATALOAD SWAP4 PUSH1 0x64 CALLDATALOAD CALLER PUSH1 0x0 MSTORE PUSH1 0x12 PUSH1 0x20 MSTORE PUSH1 0xFF PUSH1 0x40 PUSH1 0x0 KECCAK256 SLOAD AND DUP1 ISZERO PUSH2 0x974 JUMPI JUMPDEST DUP1 ISZERO PUSH2 0x95A JUMPI JUMPDEST PUSH2 0x840 SWAP1 PUSH2 0x479B JUMP JUMPDEST PUSH1 0x0 DUP6 DUP2 MSTORE PUSH1 0x2 PUSH1 0x20 MSTORE PUSH1 0x40 SWAP1 KECCAK256 SLOAD PUSH2 0x863 SWAP1 PUSH1 0x1 PUSH1 0x1 PUSH1 0xA0 SHL SUB AND ISZERO ISZERO PUSH2 0x4207 JUMP JUMPDEST DUP5 PUSH1 0x0 MSTORE PUSH1 0xF PUSH1 0x20 MSTORE PUSH1 0x40 PUSH1 0x0 KECCAK256 PUSH1 0x8 DUP2 ADD PUSH2 0x87F DUP2 SLOAD PUSH2 0x424A JUMP JUMPDEST SWAP1 SSTORE PUSH2 0x8EB PUSH1 0x5 DUP3 ADD PUSH2 0x8BE PUSH2 0x89F PUSH1 0xFF DUP12 AND PUSH1 0xFF DUP5 SLOAD PUSH1 0x40 SHR AND PUSH2 0x47E7 JUMP JUMPDEST DUP3 SLOAD PUSH9 0xFF0000000000000000 NOT AND PUSH1 0x40 SWAP2 SWAP1 SWAP2 SHL PUSH1 0xFF PUSH1 0x40 SHL AND OR DUP3 SSTORE JUMP JUMPDEST PUSH2 0x8D2 PUSH1 0xFF DUP6 AND PUSH1 0xFF DUP4 SLOAD PUSH1 0x48 SHR AND PUSH2 0x47E7 JUMP JUMPDEST PUSH1 0xFF PUSH1 0x48 SHL DUP3 SLOAD SWAP2 PUSH1 0x48 SHL AND SWAP1 PUSH1 0xFF PUSH1 0x48 SHL NOT AND OR SWAP1 SSTORE JUMP JUMPDEST PUSH1 0x6 TIMESTAMP SWAP2 ADD SSTORE PUSH1 0x40 MLOAD SWAP2 ISZERO ISZERO DUP3 MSTORE DUP6 PUSH1 0x20 DUP4 ADD MSTORE PUSH1 0x40 DUP3 ADD MSTORE LOG2 PUSH2 0x90B JUMPI STOP JUMPDEST PUSH2 0x708 TIMESTAMP ADD DUP1 TIMESTAMP GT PUSH2 0x944 JUMPI PUSH1 0x20 PUSH32 0x99725FCBBA3CA58AA709E187E47790C37CC232BE7221D6A02002ED6171E3AE5 SWAP2 PUSH1 0x40 MLOAD SWAP1 DUP2 MSTORE LOG2 STOP JUMPDEST PUSH4 0x4E487B71 PUSH1 0xE0 SHL PUSH1 0x0 MSTORE PUSH1 0x11 PUSH1 0x4 MSTORE PUSH1 0x24 PUSH1 0x0 REVERT JUMPDEST POP PUSH1 0xB SLOAD CALLER PUSH1 0x8 SWAP2 SWAP1 SWAP2 SHR PUSH1 0x1 PUSH1 0x1 PUSH1 0xA0 SHL SUB AND EQ PUSH2 0x837 JUMP JUMPDEST POP PUSH1 0x18 SLOAD PUSH1 0x1 PUSH1 0x1 PUSH1 0xA0 SHL SUB AND CALLER EQ PUSH2 0x830 JUMP JUMPDEST CALLVALUE PUSH2 0x3BE JUMPI PUSH2 0x996 CALLDATASIZE PUSH2 0x3679 JUMP JUMPDEST SWAP1 PUSH1 0x0 MSTORE PUSH1 0x10 PUSH1 0x20 MSTORE PUSH1 0x40 PUSH1 0x0 KECCAK256 SWAP1 DUP2 SLOAD DUP2 LT ISZERO PUSH2 0x3BE JUMPI PUSH2 0x9B7 SWAP2 PUSH2 0x39FF JUMP JUMPDEST POP DUP1 SLOAD PUSH2 0x9C6 PUSH1 0x1 DUP4 ADD PUSH2 0x3714 JUMP JUMPDEST SWAP2 PUSH2 0xA09 PUSH1 0xFF PUSH1 0x3 PUSH2 0x9DA PUSH1 0x2 DUP6 ADD PUSH2 0x3714 JUMP JUMPDEST SWAP4 ADD SLOAD AND SWAP2 PUSH2 0x9FB PUSH1 0x40 MLOAD SWAP6 DUP7 SWAP6 DUP7 MSTORE PUSH1 0x80 PUSH1 0x20 DUP8 ADD MSTORE PUSH1 0x80 DUP7 ADD SWAP1 PUSH2 0x35E9 JUMP JUMPDEST SWAP1 DUP5 DUP3 SUB PUSH1 0x40 DUP7 ADD MSTORE PUSH2 0x35E9 JUMP JUMPDEST SWAP1 ISZERO ISZERO PUSH1 0x60 DUP4 ADD MSTORE SUB SWAP1 RETURN JUMPDEST CALLVALUE PUSH2 0x3BE JUMPI PUSH1 0x0 CALLDATASIZE PUSH1 0x3 NOT ADD SLT PUSH2 0x3BE JUMPI PUSH1 0x20 PUSH1 0x40 MLOAD PUSH2 0x708 DUP2 MSTORE RETURN JUMPDEST CALLVALUE PUSH2 0x3BE JUMPI PUSH1 0x20 CALLDATASIZE PUSH1 0x3 NOT ADD SLT PUSH2 0x3BE JUMPI PUSH1 0x4 CALLDATALOAD PUSH1 0x5 DUP2 LT ISZERO PUSH2 0x3BE JUMPI PUSH2 0xA5A PUSH1 0x20 SWAP2 PUSH2 0x36A8 JUMP JUMPDEST SLOAD PUSH1 0x40 MLOAD SWAP1 DUP2 MSTORE RETURN JUMPDEST CALLVALUE PUSH2 0x3BE JUMPI PUSH1 0x0 CALLDATASIZE PUSH1 0x3 NOT ADD SLT PUSH2 0x3BE JUMPI PUSH1 0x20 PUSH1 0x40 MLOAD PUSH1 0x3C DUP2 MSTORE RETURN JUMPDEST CALLVALUE PUSH2 0x3BE JUMPI PUSH1 0x0 CALLDATASIZE PUSH1 0x3 NOT ADD SLT PUSH2 0x3BE JUMPI PUSH1 0x20 PUSH1 0x40 MLOAD PUSH3 0x15180 DUP2 MSTORE RETURN JUMPDEST CALLVALUE PUSH2 0x3BE JUMPI PUSH1 0x20 CALLDATASIZE PUSH1 0x3 NOT ADD SLT PUSH2 0x3BE JUMPI PUSH2 0xAD0 PUSH2 0xABC PUSH1 0x4 CALLDATALOAD PUSH2 0x4873 JUMP JUMPDEST PUSH1 0x40 MLOAD SWAP2 DUP3 SWAP2 PUSH1 0x20 DUP4 MSTORE PUSH1 0x20 DUP4 ADD SWAP1 PUSH2 0x35E9 JUMP JUMPDEST SUB SWAP1 RETURN JUMPDEST CALLVALUE PUSH2 0x3BE JUMPI PUSH1 0x20 CALLDATASIZE PUSH1 0x3 NOT ADD SLT PUSH2 0x3BE JUMPI PUSH1 0x4 CALLDATALOAD PUSH1 0x5 DUP2 LT ISZERO PUSH2 0x3BE JUMPI PUSH2 0xA5A PUSH1 0x20 SWAP2 PUSH2 0x36C1 JUMP JUMPDEST CALLVALUE PUSH2 0x3BE JUMPI PUSH1 0x0 CALLDATASIZE PUSH1 0x3 NOT ADD SLT PUSH2 0x3BE JUMPI PUSH1 0x40 MLOAD PUSH1 0x0 PUSH1 0x1B SLOAD PUSH2 0xB1E DUP2 PUSH2 0x36DA JUMP JUMPDEST DUP1 DUP5 MSTORE SWAP1 PUSH1 0x1 SWAP1 DUP2 DUP2 AND SWAP1 DUP2 ISZERO PUSH2 0xBA3 JUMPI POP PUSH1 0x1 EQ PUSH2 0xB48 JUMPI JUMPDEST PUSH2 0xAD0 DUP5 PUSH2 0xABC DUP2 DUP7 SUB DUP3 PUSH2 0x3583 JUMP JUMPDEST PUSH1 0x1B PUSH1 0x0 SWAP1 DUP2 MSTORE SWAP3 POP PUSH32 0x3AD8AA4F87544323A9D1E5DD902F40C356527A7955687113DB5F9A85AD579DC1 JUMPDEST DUP3 DUP5 LT PUSH2 0xB8B JUMPI POP POP POP DUP2 ADD PUSH1 0x20 ADD PUSH2 0xABC DUP3 PUSH2 0xB38 JUMP JUMPDEST DUP1 SLOAD PUSH1 0x20 DUP6 DUP8 ADD DUP2 ADD SWAP2 SWAP1 SWAP2 MSTORE SWAP1 SWAP4 ADD SWAP3 DUP2 ADD PUSH2 0xB73 JUMP JUMPDEST PUSH1 0xFF NOT AND PUSH1 0x20 DUP1 DUP8 ADD SWAP2 SWAP1 SWAP2 MSTORE SWAP3 ISZERO ISZERO PUSH1 0x5 SHL DUP6 ADD SWAP1 SWAP3 ADD SWAP3 POP PUSH2 0xABC SWAP2 POP DUP4 SWAP1 POP PUSH2 0xB38 JUMP JUMPDEST CALLVALUE PUSH2 0x3BE JUMPI PUSH1 0x20 CALLDATASIZE PUSH1 0x3 NOT ADD SLT PUSH2 0x3BE JUMPI PUSH1 0x4 CALLDATALOAD PUSH1 0x0 DUP2 DUP2 MSTORE PUSH1 0x2 PUSH1 0x20 MSTORE PUSH1 0x40 SWAP1 KECCAK256 SLOAD PUSH2 0xC01 SWAP1 PUSH1 0x1 PUSH1 0x1 PUSH1 0xA0 SHL SUB AND ISZERO ISZERO PUSH2 0x4207 JUMP JUMPDEST PUSH1 0x0 MSTORE PUSH1 0xF PUSH1 0x20 MSTORE PUSH1 0x20 PUSH1 0xFF PUSH1 0xB PUSH1 0x40 PUSH1 0x0 KECCAK256 ADD SLOAD AND PUSH2 0xC20 DUP2 PUSH2 0x360E JUMP JUMPDEST PUSH1 0x40 MLOAD SWAP1 ISZERO DUP2 MSTORE RETURN JUMPDEST CALLVALUE PUSH2 0x3BE JUMPI PUSH1 0x0 CALLDATASIZE PUSH1 0x3 NOT ADD SLT PUSH2 0x3BE JUMPI PUSH1 0x19 SLOAD PUSH1 0x40 MLOAD PUSH1 0x1 PUSH1 0x1 PUSH1 0xA0 SHL SUB SWAP1 SWAP2 AND DUP2 MSTORE PUSH1 0x20 SWAP1 RETURN JUMPDEST CALLVALUE PUSH2 0x3BE JUMPI PUSH2 0xC72 PUSH2 0xC63 CALLDATASIZE PUSH2 0x3839 JUMP JUMPDEST SWAP2 SWAP1 PUSH2 0xC6D PUSH2 0x3A48 JUMP JUMPDEST PUSH2 0x36C1 JUMP JUMPDEST SSTORE STOP JUMPDEST CALLVALUE PUSH2 0x3BE JUMPI PUSH1 0x80 CALLDATASIZE PUSH1 0x3 NOT ADD SLT PUSH2 0x3BE JUMPI PUSH2 0xC8E PUSH2 0x3618 JUMP JUMPDEST PUSH2 0xC96 PUSH2 0x362E JUMP JUMPDEST SWAP1 PUSH1 0x64 CALLDATALOAD SWAP1 PUSH1 0x44 CALLDATALOAD PUSH1 0x1 PUSH1 0x1 PUSH1 0x40 SHL SUB DUP4 GT PUSH2 0x3BE JUMPI CALLDATASIZE PUSH1 0x23 DUP5 ADD SLT ISZERO PUSH2 0x3BE JUMPI PUSH2 0x416 SWAP4 PUSH2 0xCD2 PUSH2 0xCF5 SWAP5 CALLDATASIZE SWAP1 PUSH1 0x24 DUP2 PUSH1 0x4 ADD CALLDATALOAD SWAP2 ADD PUSH2 0x37D5 JUMP JUMPDEST SWAP3 PUSH2 0xCE5 PUSH2 0xCE0 DUP5 CALLER PUSH2 0x3CA0 JUMP JUMPDEST PUSH2 0x3BC7 JUMP JUMPDEST PUSH2 0xCF0 DUP4 DUP4 DUP4 PUSH2 0x3D68 JUMP JUMPDEST PUSH2 0x40C7 JUMP JUMPDEST PUSH2 0x3C7C JUMP JUMPDEST CALLVALUE PUSH2 0x3BE JUMPI PUSH1 0x20 CALLDATASIZE PUSH1 0x3 NOT ADD SLT PUSH2 0x3BE JUMPI PUSH1 0x4 CALLDATALOAD PUSH1 0x0 MSTORE PUSH1 0xF PUSH1 0x20 MSTORE PUSH1 0x40 PUSH1 0x0 KECCAK256 PUSH2 0xD24 DUP2 PUSH2 0x3714 JUMP JUMPDEST PUSH1 0x1 DUP3 ADD SLOAD SWAP2 PUSH1 0xFF DUP4 AND SWAP1 PUSH2 0xD3B PUSH1 0x2 DUP3 ADD PUSH2 0x392A JUMP JUMPDEST SWAP1 PUSH2 0xD48 PUSH1 0x4 DUP3 ADD PUSH2 0x398F JUMP JUMPDEST SWAP3 PUSH1 0x7 DUP3 ADD SLOAD SWAP1 PUSH1 0x8 DUP4 ADD SLOAD PUSH1 0x9 DUP5 ADD SLOAD SWAP1 PUSH1 0xA DUP6 ADD PUSH2 0xD67 SWAP1 PUSH2 0x3714 JUMP JUMPDEST SWAP4 PUSH1 0xB DUP7 ADD SLOAD PUSH1 0xFF AND SWAP8 PUSH1 0xC DUP8 ADD SLOAD SWAP7 PUSH1 0xD ADD SLOAD SWAP8 PUSH1 0x40 MLOAD SWAP12 DUP13 SWAP12 DUP13 PUSH2 0x380 DUP1 SWAP2 MSTORE DUP14 ADD PUSH2 0xD94 SWAP2 PUSH2 0x35E9 JUMP JUMPDEST SWAP7 PUSH2 0xD9E DUP2 PUSH2 0x360E JUMP JUMPDEST PUSH1 0x20 DUP14 ADD MSTORE PUSH1 0x40 DUP13 ADD SWAP1 PUSH1 0x8 SHR PUSH1 0xFF AND SWAP1 PUSH2 0xDB8 SWAP2 PUSH2 0x3858 JUMP JUMPDEST PUSH1 0x60 DUP12 ADD PUSH2 0xDC5 SWAP2 PUSH2 0x3865 JUMP JUMPDEST PUSH2 0x160 DUP11 ADD PUSH2 0xDD3 SWAP2 PUSH2 0x38C0 JUMP JUMPDEST PUSH2 0x280 DUP10 ADD MSTORE PUSH2 0x2A0 DUP9 ADD MSTORE PUSH1 0x1 PUSH1 0x1 PUSH1 0xA0 SHL SUB DUP2 AND PUSH2 0x2C0 DUP9 ADD MSTORE PUSH1 0xA0 SHR PUSH1 0xFF AND ISZERO ISZERO PUSH2 0x2E0 DUP8 ADD MSTORE DUP6 DUP2 SUB PUSH2 0x300 DUP8 ADD MSTORE PUSH2 0xE0F SWAP2 PUSH2 0x35E9 JUMP JUMPDEST SWAP3 PUSH2 0xE19 DUP2 PUSH2 0x360E JUMP JUMPDEST PUSH2 0x320 DUP6 ADD MSTORE PUSH2 0x340 DUP5 ADD MSTORE PUSH2 0x360 DUP4 ADD MSTORE SUB SWAP1 RETURN JUMPDEST CALLVALUE PUSH2 0x3BE JUMPI PUSH1 0x20 CALLDATASIZE PUSH1 0x3 NOT ADD SLT PUSH2 0x3BE JUMPI PUSH1 0x4 CALLDATALOAD PUSH1 0x0 PUSH2 0x180 PUSH1 0x40 MLOAD PUSH2 0xE54 DUP2 PUSH2 0x3516 JUMP JUMPDEST PUSH1 0x60 DUP2 MSTORE DUP3 PUSH1 0x20 DUP3 ADD MSTORE DUP3 PUSH1 0x40 DUP3 ADD MSTORE PUSH1 0x40 MLOAD PUSH2 0xE70 DUP2 PUSH2 0x34FA JUMP JUMPDEST DUP4 DUP2 MSTORE DUP4 PUSH1 0x20 DUP3 ADD MSTORE DUP4 PUSH1 0x40 DUP3 ADD MSTORE DUP4 PUSH1 0x60 DUP3 ADD MSTORE DUP4 PUSH1 0x80 DUP3 ADD MSTORE DUP4 PUSH1 0xA0 DUP3 ADD MSTORE DUP4 PUSH1 0xC0 DUP3 ADD MSTORE DUP4 PUSH1 0xE0 DUP3 ADD MSTORE PUSH1 0x60 DUP3 ADD MSTORE PUSH1 0x40 MLOAD PUSH2 0xEAE DUP2 PUSH2 0x34C3 JUMP JUMPDEST DUP4 DUP2 MSTORE DUP4 PUSH1 0x20 DUP3 ADD MSTORE DUP4 PUSH1 0x40 DUP3 ADD MSTORE DUP4 PUSH1 0x60 DUP3 ADD MSTORE DUP4 PUSH1 0x80 DUP3 ADD MSTORE DUP4 PUSH1 0xA0 DUP3 ADD MSTORE DUP4 PUSH1 0xC0 DUP3 ADD MSTORE DUP4 PUSH1 0xE0 DUP3 ADD MSTORE DUP4 PUSH2 0x100 DUP3 ADD MSTORE PUSH1 0x80 DUP3 ADD MSTORE DUP3 PUSH1 0xA0 DUP3 ADD MSTORE DUP3 PUSH1 0xC0 DUP3 ADD MSTORE DUP3 PUSH1 0xE0 DUP3 ADD MSTORE DUP3 PUSH2 0x100 DUP3 ADD MSTORE PUSH1 0x60 PUSH2 0x120 DUP3 ADD MSTORE DUP3 PUSH2 0x140 DUP3 ADD MSTORE DUP3 PUSH2 0x160 DUP3 ADD MSTORE ADD MSTORE PUSH2 0xF3A PUSH2 0x501 DUP3 PUSH1 0x0 MSTORE PUSH1 0x2 PUSH1 0x20 MSTORE PUSH1 0x1 DUP1 PUSH1 0xA0 SHL SUB PUSH1 0x40 PUSH1 0x0 KECCAK256 SLOAD AND ISZERO ISZERO SWAP1 JUMP JUMPDEST PUSH1 0x0 MSTORE PUSH1 0xF PUSH1 0x20 MSTORE PUSH1 0x40 PUSH1 0x0 KECCAK256 PUSH1 0xD PUSH1 0x40 MLOAD SWAP2 PUSH2 0xF56 DUP4 PUSH2 0x3516 JUMP JUMPDEST PUSH2 0xF5F DUP2 PUSH2 0x3714 JUMP JUMPDEST DUP4 MSTORE PUSH2 0xF8B PUSH1 0xFF PUSH1 0x1 DUP4 ADD SLOAD PUSH2 0xF76 DUP3 DUP3 AND PUSH2 0x360E JUMP JUMPDEST DUP2 DUP2 AND PUSH1 0x20 DUP8 ADD MSTORE PUSH1 0x8 SHR AND PUSH1 0x40 DUP6 ADD PUSH2 0x46FF JUMP JUMPDEST PUSH2 0xF97 PUSH1 0x2 DUP3 ADD PUSH2 0x392A JUMP JUMPDEST PUSH1 0x60 DUP5 ADD MSTORE PUSH2 0xFA8 PUSH1 0x4 DUP3 ADD PUSH2 0x398F JUMP JUMPDEST PUSH1 0x80 DUP5 ADD MSTORE PUSH1 0x7 DUP2 ADD SLOAD PUSH1 0xA0 DUP5 ADD MSTORE PUSH1 0x8 DUP2 ADD SLOAD PUSH1 0xC0 DUP5 ADD MSTORE PUSH1 0xFF PUSH1 0x9 DUP3 ADD SLOAD PUSH1 0x1 DUP1 PUSH1 0xA0 SHL SUB DUP2 AND PUSH1 0xE0 DUP7 ADD MSTORE PUSH1 0xA0 SHR AND ISZERO ISZERO PUSH2 0x100 DUP5 ADD MSTORE PUSH2 0xFEE PUSH1 0xA DUP3 ADD PUSH2 0x3714 JUMP JUMPDEST PUSH2 0x120 DUP5 ADD MSTORE PUSH1 0xFF PUSH1 0xB DUP3 ADD SLOAD AND PUSH2 0x1005 DUP2 PUSH2 0x360E JUMP JUMPDEST PUSH2 0x140 DUP5 ADD MSTORE PUSH1 0xC DUP2 ADD SLOAD PUSH2 0x160 DUP5 ADD MSTORE ADD SLOAD PUSH2 0x180 DUP3 ADD MSTORE PUSH1 0x40 MLOAD DUP1 SWAP2 PUSH1 0x20 DUP3 MSTORE PUSH2 0x180 PUSH2 0x10DD PUSH2 0x1045 DUP4 MLOAD PUSH2 0x380 PUSH1 0x20 DUP8 ADD MSTORE PUSH2 0x3A0 DUP7 ADD SWAP1 PUSH2 0x35E9 JUMP JUMPDEST PUSH1 0x20 DUP5 ADD MLOAD PUSH2 0x1053 DUP2 PUSH2 0x360E JUMP JUMPDEST PUSH1 0x40 DUP7 ADD MSTORE PUSH2 0x106A PUSH1 0x40 DUP6 ADD MLOAD PUSH1 0x60 DUP8 ADD SWAP1 PUSH2 0x3858 JUMP JUMPDEST PUSH2 0x107C PUSH1 0x60 DUP6 ADD MLOAD PUSH1 0x80 DUP8 ADD SWAP1 PUSH2 0x3865 JUMP JUMPDEST PUSH2 0x108D PUSH1 0x80 DUP6 ADD MLOAD DUP5 DUP8 ADD SWAP1 PUSH2 0x38C0 JUMP JUMPDEST PUSH1 0xA0 DUP5 ADD MLOAD PUSH2 0x2A0 DUP7 ADD MSTORE PUSH1 0xC0 DUP5 ADD MLOAD PUSH2 0x2C0 DUP7 ADD MSTORE PUSH1 0xE0 DUP5 ADD MLOAD PUSH1 0x1 PUSH1 0x1 PUSH1 0xA0 SHL SUB AND PUSH2 0x2E0 DUP7 ADD MSTORE PUSH2 0x100 DUP5 ADD MLOAD ISZERO ISZERO PUSH2 0x300 DUP7 ADD MSTORE PUSH2 0x120 DUP5 ADD MLOAD DUP6 DUP3 SUB PUSH1 0x1F NOT ADD PUSH2 0x320 DUP8 ADD MSTORE PUSH2 0x35E9 JUMP JUMPDEST SWAP2 PUSH2 0x140 DUP2 ADD MLOAD PUSH2 0x10ED DUP2 PUSH2 0x360E JUMP JUMPDEST PUSH2 0x340 DUP6 ADD MSTORE PUSH2 0x160 DUP2 ADD MLOAD PUSH2 0x360 DUP6 ADD MSTORE ADD MLOAD PUSH2 0x380 DUP4 ADD MSTORE SUB SWAP1 RETURN JUMPDEST CALLVALUE PUSH2 0x3BE JUMPI PUSH1 0x20 CALLDATASIZE PUSH1 0x3 NOT ADD SLT PUSH2 0x3BE JUMPI PUSH1 0x1 PUSH1 0x1 PUSH1 0xA0 SHL SUB PUSH2 0x112C PUSH2 0x3618 JUMP JUMPDEST AND PUSH1 0x0 MSTORE PUSH1 0x11 PUSH1 0x20 MSTORE PUSH1 0x20 PUSH1 0xFF PUSH1 0x40 PUSH1 0x0 KECCAK256 SLOAD AND PUSH1 0x40 MLOAD SWAP1 ISZERO ISZERO DUP2 MSTORE RETURN JUMPDEST CALLVALUE PUSH2 0x3BE JUMPI PUSH1 0x20 CALLDATASIZE PUSH1 0x3 NOT ADD SLT PUSH2 0x3BE JUMPI PUSH1 0x4 CALLDATALOAD PUSH1 0x0 DUP2 DUP2 MSTORE PUSH1 0x2 PUSH1 0x20 MSTORE PUSH1 0x40 SWAP1 KECCAK256 SLOAD PUSH2 0x1181 SWAP1 PUSH1 0x1 PUSH1 0x1 PUSH1 0xA0 SHL SUB AND ISZERO ISZERO PUSH2 0x4207 JUMP JUMPDEST PUSH2 0x119D PUSH2 0x118D DUP3 PUSH2 0x3B66 JUMP JUMPDEST PUSH1 0x1 PUSH1 0x1 PUSH1 0xA0 SHL SUB AND CALLER EQ PUSH2 0x47FB JUMP JUMPDEST PUSH1 0x0 DUP2 DUP2 MSTORE PUSH1 0xF PUSH1 0x20 MSTORE PUSH1 0x40 DUP2 KECCAK256 PUSH1 0x9 ADD DUP1 SLOAD PUSH1 0xFF PUSH1 0xA0 SHL NOT AND SWAP1 SSTORE PUSH32 0x2502A8D8E9BB147F37D1559DBDEC1CC505FC4EDD3283E2DE7D0AD4A15867371B SWAP1 DUP1 LOG2 STOP JUMPDEST CALLVALUE PUSH2 0x3BE JUMPI PUSH1 0x40 CALLDATASIZE PUSH1 0x3 NOT ADD SLT PUSH2 0x3BE JUMPI PUSH2 0x11F8 PUSH2 0x3618 JUMP JUMPDEST PUSH2 0x1200 PUSH2 0x382A JUMP JUMPDEST PUSH1 0x1 PUSH1 0x1 PUSH1 0xA0 SHL SUB SWAP1 SWAP2 AND SWAP1 CALLER DUP3 EQ PUSH2 0x1272 JUMPI CALLER PUSH1 0x0 MSTORE PUSH1 0x5 PUSH1 0x20 MSTORE PUSH1 0x40 PUSH1 0x0 KECCAK256 DUP3 PUSH1 0x0 MSTORE PUSH1 0x20 MSTORE PUSH2 0x1242 DUP2 PUSH1 0x40 PUSH1 0x0 KECCAK256 SWAP1 PUSH1 0xFF DUP1 NOT DUP4 SLOAD AND SWAP2 ISZERO ISZERO AND OR SWAP1 SSTORE JUMP JUMPDEST PUSH1 0x40 MLOAD SWAP1 ISZERO ISZERO DUP2 MSTORE PUSH32 0x17307EAB39AB6107E8899845AD3D59BD9653F200F220920489CA2B5937696C31 PUSH1 0x20 CALLER SWAP3 LOG3 STOP JUMPDEST PUSH1 0x40 MLOAD PUSH3 0x461BCD PUSH1 0xE5 SHL DUP2 MSTORE PUSH1 0x20 PUSH1 0x4 DUP3 ADD MSTORE PUSH1 0x19 PUSH1 0x24 DUP3 ADD MSTORE PUSH32 0x4552433732313A20617070726F766520746F2063616C6C657200000000000000 PUSH1 0x44 DUP3 ADD MSTORE PUSH1 0x64 SWAP1 REVERT JUMPDEST CALLVALUE PUSH2 0x3BE JUMPI PUSH1 0x40 CALLDATASIZE PUSH1 0x3 NOT ADD SLT PUSH2 0x3BE JUMPI PUSH2 0x416 PUSH2 0x12D3 PUSH2 0x3618 JUMP JUMPDEST PUSH2 0x12DB PUSH2 0x382A JUMP JUMPDEST SWAP1 PUSH2 0x12E4 PUSH2 0x3A48 JUMP JUMPDEST PUSH1 0x1 DUP1 PUSH1 0xA0 SHL SUB AND PUSH1 0x0 MSTORE PUSH1 0x12 PUSH1 0x20 MSTORE PUSH1 0x40 PUSH1 0x0 KECCAK256 SWAP1 PUSH1 0xFF DUP1 NOT DUP4 SLOAD AND SWAP2 ISZERO ISZERO AND OR SWAP1 SSTORE JUMP JUMPDEST PUSH2 0x180 CALLDATASIZE PUSH1 0x3 NOT ADD SLT PUSH2 0x3BE JUMPI PUSH1 0x4 CALLDATALOAD PUSH1 0x1 PUSH1 0x1 PUSH1 0x40 SHL SUB DUP2 GT PUSH2 0x3BE JUMPI PUSH2 0x1336 SWAP1 CALLDATASIZE SWAP1 PUSH1 0x4 ADD PUSH2 0x380C JUMP JUMPDEST PUSH1 0x4 PUSH1 0x24 CALLDATALOAD LT ISZERO PUSH2 0x3BE JUMPI PUSH1 0x5 PUSH1 0x44 CALLDATALOAD LT ISZERO PUSH2 0x3BE JUMPI PUSH2 0x100 CALLDATASIZE PUSH1 0x63 NOT ADD SLT PUSH2 0x3BE JUMPI PUSH1 0x40 MLOAD SWAP1 PUSH2 0x1366 DUP3 PUSH2 0x34FA JUMP JUMPDEST PUSH2 0x136E PUSH2 0x35A4 JUMP JUMPDEST DUP3 MSTORE PUSH1 0x84 CALLDATALOAD PUSH2 0xFFFF DUP2 AND DUP2 SUB PUSH2 0x3BE JUMPI PUSH1 0x20 DUP4 ADD MSTORE PUSH2 0x138B PUSH2 0x35B5 JUMP JUMPDEST PUSH1 0x40 DUP4 ADD MSTORE PUSH1 0xC4 CALLDATALOAD PUSH2 0xFFFF DUP2 AND DUP2 SUB PUSH2 0x3BE JUMPI PUSH1 0x60 DUP4 ADD MSTORE PUSH1 0xE4 CALLDATALOAD PUSH2 0xFFFF DUP2 AND DUP2 SUB PUSH2 0x3BE JUMPI PUSH1 0x80 DUP4 ADD MSTORE PUSH2 0x104 CALLDATALOAD PUSH2 0xFFFF DUP2 AND DUP2 SUB PUSH2 0x3BE JUMPI PUSH1 0xA0 DUP4 ADD MSTORE PUSH2 0x124 CALLDATALOAD PUSH2 0xFFFF DUP2 AND DUP2 SUB PUSH2 0x3BE JUMPI PUSH1 0xC0 DUP4 ADD MSTORE PUSH2 0x144 CALLDATALOAD PUSH1 0xE0 DUP4 ADD MSTORE PUSH1 0x1 PUSH1 0x1 PUSH1 0x40 SHL SUB PUSH2 0x164 CALLDATALOAD GT PUSH2 0x3BE JUMPI PUSH2 0x1408 CALLDATASIZE PUSH2 0x164 CALLDATALOAD PUSH1 0x4 ADD PUSH2 0x380C JUMP JUMPDEST SWAP1 PUSH2 0x1411 PUSH2 0x470B JUMP JUMPDEST PUSH2 0x141C PUSH1 0x44 CALLDATALOAD PUSH2 0x36A8 JUMP JUMPDEST SLOAD PUSH2 0x1428 PUSH1 0x44 CALLDATALOAD PUSH2 0x368F JUMP JUMPDEST SLOAD GT ISZERO PUSH2 0x1C0A JUMPI PUSH2 0x143A PUSH1 0x44 CALLDATALOAD PUSH2 0x36C1 JUMP JUMPDEST SLOAD CALLVALUE LT PUSH2 0x1BCE JUMPI PUSH1 0xE SLOAD SWAP2 PUSH1 0x1 DUP4 ADD PUSH1 0xE SSTORE PUSH1 0x40 MLOAD PUSH2 0x1458 DUP2 PUSH2 0x354D JUMP JUMPDEST PUSH1 0x0 DUP2 MSTORE CALLER ISZERO PUSH2 0x1B8A JUMPI PUSH1 0x0 DUP5 DUP2 MSTORE PUSH1 0x2 PUSH1 0x20 MSTORE PUSH1 0x40 SWAP1 KECCAK256 SLOAD PUSH2 0x1487 SWAP1 PUSH1 0x1 PUSH1 0x1 PUSH1 0xA0 SHL SUB AND ISZERO ISZERO JUMPDEST ISZERO PUSH2 0x474F JUMP JUMPDEST PUSH2 0x148F PUSH2 0x470B JUMP JUMPDEST PUSH1 0x8 SLOAD DUP5 PUSH1 0x0 MSTORE PUSH1 0x9 PUSH1 0x20 MSTORE DUP1 PUSH1 0x40 PUSH1 0x0 KECCAK256 SSTORE PUSH1 0x1 PUSH1 0x40 SHL DUP2 LT ISZERO PUSH2 0x1AB5 JUMPI PUSH2 0x159C SWAP2 PUSH2 0x14E2 DUP7 PUSH2 0x14C9 DUP5 PUSH1 0x1 PUSH2 0xCF5 SWAP7 ADD PUSH1 0x8 SSTORE PUSH2 0x41D0 JUMP JUMPDEST SWAP1 SWAP2 SWAP1 DUP3 SLOAD SWAP1 PUSH1 0x3 SHL SWAP2 DUP3 SHL SWAP2 PUSH1 0x0 NOT SWAP1 SHL NOT AND OR SWAP1 SSTORE JUMP JUMPDEST PUSH2 0x14EB CALLER PUSH2 0x3AA3 JUMP JUMPDEST CALLER PUSH1 0x0 MSTORE PUSH1 0x6 PUSH1 0x20 MSTORE PUSH1 0x40 PUSH1 0x0 KECCAK256 DUP2 PUSH1 0x0 MSTORE PUSH1 0x20 MSTORE DUP7 PUSH1 0x40 PUSH1 0x0 KECCAK256 SSTORE DUP7 PUSH1 0x0 MSTORE PUSH1 0x7 PUSH1 0x20 MSTORE PUSH1 0x40 PUSH1 0x0 KECCAK256 SSTORE PUSH2 0x1538 PUSH2 0x1481 DUP8 PUSH1 0x0 MSTORE PUSH1 0x2 PUSH1 0x20 MSTORE PUSH1 0x1 DUP1 PUSH1 0xA0 SHL SUB PUSH1 0x40 PUSH1 0x0 KECCAK256 SLOAD AND ISZERO ISZERO SWAP1 JUMP JUMPDEST CALLER PUSH1 0x0 MSTORE PUSH1 0x3 PUSH1 0x20 MSTORE PUSH1 0x40 PUSH1 0x0 KECCAK256 PUSH1 0x1 DUP2 SLOAD ADD SWAP1 SSTORE DUP6 PUSH1 0x0 MSTORE PUSH1 0x2 PUSH1 0x20 MSTORE PUSH1 0x40 PUSH1 0x0 KECCAK256 CALLER PUSH1 0x1 PUSH1 0x1 PUSH1 0x60 SHL SUB PUSH1 0xA0 SHL DUP3 SLOAD AND OR SWAP1 SSTORE DUP6 CALLER PUSH1 0x0 PUSH32 0xDDF252AD1BE2C89B69C2B068FC378DAA952BA7F163C4A11628F55A4DF523B3EF DUP2 DUP1 LOG4 DUP6 CALLER PUSH2 0x3FCC JUMP JUMPDEST PUSH1 0x40 MLOAD PUSH2 0x15A8 DUP2 PUSH2 0x34C3 JUMP JUMPDEST PUSH1 0x0 DUP2 MSTORE PUSH1 0x0 PUSH1 0x20 DUP3 ADD MSTORE PUSH1 0x0 PUSH1 0x40 DUP3 ADD MSTORE PUSH1 0x0 PUSH1 0x60 DUP3 ADD MSTORE PUSH1 0x0 PUSH1 0x80 DUP3 ADD MSTORE PUSH1 0x0 PUSH1 0xA0 DUP3 ADD MSTORE PUSH1 0x0 PUSH1 0xC0 DUP3 ADD MSTORE PUSH1 0x0 PUSH1 0xE0 DUP3 ADD MSTORE TIMESTAMP PUSH2 0x100 DUP3 ADD MSTORE PUSH1 0x40 MLOAD SWAP5 PUSH2 0x15F1 DUP7 PUSH2 0x3516 JUMP JUMPDEST DUP4 DUP7 MSTORE PUSH2 0x15FF PUSH1 0x24 CALLDATALOAD PUSH2 0x360E JUMP JUMPDEST PUSH1 0x24 CALLDATALOAD PUSH1 0x20 DUP8 ADD MSTORE PUSH2 0x1616 PUSH1 0x44 CALLDATALOAD PUSH1 0x40 DUP9 ADD PUSH2 0x46FF JUMP JUMPDEST PUSH1 0x60 DUP7 ADD MSTORE PUSH1 0x80 DUP6 ADD MSTORE TIMESTAMP PUSH1 0xA0 DUP6 ADD MSTORE PUSH1 0x0 PUSH1 0xC0 DUP6 ADD MSTORE PUSH1 0x0 PUSH1 0xE0 DUP6 ADD MSTORE PUSH1 0x0 PUSH2 0x100 DUP6 ADD MSTORE PUSH2 0x120 DUP5 ADD MSTORE PUSH1 0x0 PUSH2 0x140 DUP5 ADD MSTORE TIMESTAMP PUSH2 0x160 DUP5 ADD MSTORE PUSH1 0x0 PUSH2 0x180 DUP5 ADD MSTORE DUP2 PUSH1 0x0 MSTORE PUSH1 0xF PUSH1 0x20 MSTORE PUSH1 0x40 PUSH1 0x0 KECCAK256 DUP4 MLOAD DUP1 MLOAD SWAP1 PUSH1 0x1 PUSH1 0x1 PUSH1 0x40 SHL SUB DUP3 GT PUSH2 0x1AB5 JUMPI DUP2 SWAP1 PUSH2 0x1686 DUP5 SLOAD PUSH2 0x36DA JUMP JUMPDEST PUSH1 0x1F DUP2 GT PUSH2 0x1B58 JUMPI JUMPDEST POP PUSH1 0x20 SWAP1 PUSH1 0x1F DUP4 GT PUSH1 0x1 EQ PUSH2 0x1AEC JUMPI PUSH1 0x0 SWAP3 PUSH2 0x1AE1 JUMPI JUMPDEST POP POP DUP2 PUSH1 0x1 SHL SWAP2 PUSH1 0x0 NOT SWAP1 PUSH1 0x3 SHL SHR NOT AND OR DUP2 SSTORE JUMPDEST PUSH1 0x20 DUP5 ADD MLOAD PUSH2 0x16C9 DUP2 PUSH2 0x360E JUMP JUMPDEST PUSH2 0x16D2 DUP2 PUSH2 0x360E JUMP JUMPDEST PUSH1 0x1 DUP3 ADD SLOAD PUSH1 0x40 DUP7 ADD MLOAD PUSH1 0x5 DUP2 LT ISZERO PUSH2 0x1ACB JUMPI PUSH2 0xFF00 PUSH1 0xFF SWAP2 PUSH1 0x8 SHL AND SWAP3 AND SWAP1 PUSH2 0xFFFF NOT AND OR OR PUSH1 0x1 DUP3 ADD SSTORE PUSH1 0xE0 PUSH1 0x2 DUP3 ADD PUSH1 0x60 DUP7 ADD MLOAD SWAP1 PUSH2 0xFFFF DUP3 MLOAD AND PUSH2 0xFFFF NOT DUP3 SLOAD AND OR DUP2 SSTORE PUSH2 0x1741 PUSH2 0xFFFF PUSH1 0x20 DUP5 ADD MLOAD AND DUP3 SWAP1 PUSH4 0xFFFF0000 DUP3 SLOAD SWAP2 PUSH1 0x10 SHL AND SWAP1 PUSH4 0xFFFF0000 NOT AND OR SWAP1 SSTORE JUMP JUMPDEST PUSH1 0x40 DUP3 ADD MLOAD DUP2 SLOAD PUSH8 0xFFFF000000000000 PUSH1 0x60 DUP6 ADD MLOAD PUSH1 0x30 SHL AND PUSH10 0xFFFF0000000000000000 PUSH1 0x80 DUP7 ADD MLOAD PUSH1 0x40 SHL AND SWAP1 PUSH2 0xFFFF PUSH1 0x50 SHL PUSH1 0xA0 DUP8 ADD MLOAD PUSH1 0x50 SHL AND SWAP3 PUSH6 0xFFFF00000000 PUSH2 0xFFFF PUSH1 0x60 SHL PUSH1 0xC0 DUP10 ADD MLOAD PUSH1 0x60 SHL AND SWAP6 PUSH1 0x20 SHL AND SWAP1 PUSH14 0xFFFFFFFFFFFFFFFFFFFF00000000 NOT AND OR OR OR OR OR SWAP1 SSTORE ADD MLOAD PUSH1 0x3 DUP3 ADD SSTORE PUSH2 0x100 PUSH1 0x80 DUP6 ADD MLOAD DUP1 MLOAD PUSH1 0x4 DUP5 ADD SSTORE PUSH2 0x1892 PUSH1 0x5 DUP5 ADD PUSH2 0xFFFF PUSH1 0x20 DUP5 ADD MLOAD AND PUSH2 0xFFFF NOT DUP3 SLOAD AND OR DUP2 SSTORE PUSH2 0x180A PUSH2 0xFFFF PUSH1 0x40 DUP6 ADD MLOAD AND DUP3 SWAP1 PUSH4 0xFFFF0000 DUP3 SLOAD SWAP2 PUSH1 0x10 SHL AND SWAP1 PUSH4 0xFFFF0000 NOT AND OR SWAP1 SSTORE JUMP JUMPDEST PUSH1 0x60 DUP4 ADD MLOAD DUP2 SLOAD PUSH7 0xFFFF0000000000 PUSH1 0x80 DUP7 ADD MLOAD PUSH1 0x28 SHL AND SWAP1 PUSH5 0xFF00000000 PUSH1 0xFF PUSH1 0x38 SHL PUSH1 0xA0 DUP9 ADD MLOAD PUSH1 0x38 SHL AND SWAP4 PUSH1 0x20 SHL AND SWAP1 PUSH8 0xFFFFFFFF00000000 NOT AND OR OR OR DUP2 SSTORE PUSH2 0x1873 PUSH1 0xFF PUSH1 0xC0 DUP6 ADD MLOAD AND DUP3 SWAP1 PUSH1 0xFF PUSH1 0x40 SHL DUP3 SLOAD SWAP2 PUSH1 0x40 SHL AND SWAP1 PUSH1 0xFF PUSH1 0x40 SHL NOT AND OR SWAP1 SSTORE JUMP JUMPDEST PUSH1 0xE0 DUP4 ADD MLOAD DUP2 SLOAD PUSH1 0xFF PUSH1 0x48 SHL NOT AND PUSH1 0x48 SWAP2 SWAP1 SWAP2 SHL PUSH1 0xFF PUSH1 0x48 SHL AND OR SWAP1 SSTORE JUMP JUMPDEST ADD MLOAD PUSH1 0x6 DUP3 ADD SSTORE PUSH1 0xA0 DUP5 ADD MLOAD PUSH1 0x7 DUP3 ADD SSTORE PUSH1 0xC0 DUP5 ADD MLOAD PUSH1 0x8 DUP3 ADD SSTORE PUSH1 0x9 DUP2 ADD PUSH1 0x1 DUP1 PUSH1 0xA0 SHL SUB PUSH1 0xE0 DUP7 ADD MLOAD AND DUP2 SLOAD SWAP1 PUSH1 0xFF PUSH1 0xA0 SHL PUSH2 0x100 DUP9 ADD MLOAD ISZERO ISZERO PUSH1 0xA0 SHL AND SWAP2 PUSH11 0xFFFFFFFFFFFFFFFFFFFFFF PUSH1 0xA8 SHL AND OR OR SWAP1 SSTORE PUSH2 0x120 DUP5 ADD MLOAD SWAP4 DUP5 MLOAD PUSH1 0x1 PUSH1 0x1 PUSH1 0x40 SHL SUB DUP2 GT PUSH2 0x1AB5 JUMPI PUSH1 0x20 SWAP6 PUSH2 0x190E PUSH1 0xA DUP6 ADD SLOAD PUSH2 0x36DA JUMP JUMPDEST PUSH1 0x1F DUP2 GT PUSH2 0x1A77 JUMPI JUMPDEST POP DUP7 SWAP1 PUSH1 0x1F DUP4 GT PUSH1 0x1 EQ PUSH2 0x1A03 JUMPI SWAP2 DUP1 PUSH1 0xD SWAP5 SWAP3 PUSH2 0x180 SWAP5 PUSH1 0x0 SWAP3 PUSH2 0x19F8 JUMPI JUMPDEST POP POP DUP2 PUSH1 0x1 SHL SWAP2 PUSH1 0x0 NOT SWAP1 PUSH1 0x3 SHL SHR NOT AND OR PUSH1 0xA DUP6 ADD SSTORE JUMPDEST PUSH1 0xB DUP5 ADD PUSH2 0x140 DUP3 ADD MLOAD PUSH2 0x1962 DUP2 PUSH2 0x360E JUMP JUMPDEST PUSH2 0x196B DUP2 PUSH2 0x360E JUMP JUMPDEST PUSH1 0xFF DUP1 NOT DUP4 SLOAD AND SWAP2 AND OR SWAP1 SSTORE PUSH2 0x160 DUP2 ADD MLOAD PUSH1 0xC DUP6 ADD SSTORE ADD MLOAD SWAP2 ADD SSTORE PUSH2 0x1992 PUSH1 0x44 CALLDATALOAD PUSH2 0x36A8 JUMP JUMPDEST PUSH2 0x199C DUP2 SLOAD PUSH2 0x424A JUMP JUMPDEST SWAP1 SSTORE DUP2 PUSH32 0xF450AA0E15F4944C9C9DDDAF95311BB8D067372D36762A87638572B61EC56435 PUSH2 0x19D5 PUSH1 0x40 MLOAD SWAP4 PUSH1 0x60 DUP6 MSTORE PUSH1 0x60 DUP6 ADD SWAP1 PUSH2 0x35E9 JUMP JUMPDEST SWAP3 PUSH2 0x19E4 DUP7 DUP3 ADD PUSH1 0x44 CALLDATALOAD PUSH2 0x3858 JUMP JUMPDEST CALLVALUE PUSH1 0x40 DUP3 ADD MSTORE DUP1 CALLER SWAP5 SUB SWAP1 LOG3 PUSH1 0x40 MLOAD SWAP1 DUP2 MSTORE RETURN JUMPDEST ADD MLOAD SWAP1 POP DUP10 DUP1 PUSH2 0x1937 JUMP JUMPDEST SWAP1 PUSH1 0xA DUP6 ADD PUSH1 0x0 MSTORE DUP8 PUSH1 0x0 KECCAK256 SWAP2 PUSH1 0x0 JUMPDEST PUSH1 0x1F NOT DUP6 AND DUP2 LT PUSH2 0x1A60 JUMPI POP SWAP3 PUSH1 0xD SWAP5 SWAP3 PUSH1 0x1 SWAP3 PUSH2 0x180 SWAP6 DUP4 PUSH1 0x1F NOT DUP2 AND LT PUSH2 0x1A47 JUMPI JUMPDEST POP POP POP DUP2 SHL ADD PUSH1 0xA DUP6 ADD SSTORE PUSH2 0x194F JUMP JUMPDEST ADD MLOAD PUSH1 0x0 NOT PUSH1 0xF8 DUP5 PUSH1 0x3 SHL AND SHR NOT AND SWAP1 SSTORE DUP10 DUP1 DUP1 PUSH2 0x1A37 JUMP JUMPDEST SWAP2 SWAP3 DUP10 PUSH1 0x1 DUP2 SWAP3 DUP7 DUP6 ADD MLOAD DUP2 SSTORE ADD SWAP5 ADD SWAP3 ADD PUSH2 0x1A13 JUMP JUMPDEST PUSH2 0x1AA5 SWAP1 PUSH1 0xA DUP7 ADD PUSH1 0x0 MSTORE DUP9 PUSH1 0x0 KECCAK256 PUSH1 0x1F DUP6 ADD PUSH1 0x5 SHR DUP2 ADD SWAP2 DUP11 DUP7 LT PUSH2 0x1AAB JUMPI JUMPDEST PUSH1 0x1F ADD PUSH1 0x5 SHR ADD SWAP1 PUSH2 0x45E5 JUMP JUMPDEST DUP8 PUSH2 0x1917 JUMP JUMPDEST SWAP1 SWAP2 POP DUP2 SWAP1 PUSH2 0x1A98 JUMP JUMPDEST PUSH4 0x4E487B71 PUSH1 0xE0 SHL PUSH1 0x0 MSTORE PUSH1 0x41 PUSH1 0x4 MSTORE PUSH1 0x24 PUSH1 0x0 REVERT JUMPDEST PUSH4 0x4E487B71 PUSH1 0xE0 SHL PUSH1 0x0 MSTORE PUSH1 0x21 PUSH1 0x4 MSTORE PUSH1 0x24 PUSH1 0x0 REVERT JUMPDEST ADD MLOAD SWAP1 POP DUP7 DUP1 PUSH2 0x16A6 JUMP JUMPDEST SWAP3 POP DUP4 PUSH1 0x0 MSTORE PUSH1 0x20 PUSH1 0x0 KECCAK256 SWAP1 PUSH1 0x0 SWAP4 JUMPDEST PUSH1 0x1F NOT DUP5 AND DUP6 LT PUSH2 0x1B3D JUMPI PUSH1 0x1 SWAP5 POP DUP4 PUSH1 0x1F NOT DUP2 AND LT PUSH2 0x1B24 JUMPI JUMPDEST POP POP POP DUP2 SHL ADD DUP2 SSTORE PUSH2 0x16BB JUMP JUMPDEST ADD MLOAD PUSH1 0x0 NOT PUSH1 0xF8 DUP5 PUSH1 0x3 SHL AND SHR NOT AND SWAP1 SSTORE DUP7 DUP1 DUP1 PUSH2 0x1B17 JUMP JUMPDEST DUP2 DUP2 ADD MLOAD DUP4 SSTORE PUSH1 0x20 SWAP5 DUP6 ADD SWAP5 PUSH1 0x1 SWAP1 SWAP4 ADD SWAP3 SWAP1 SWAP2 ADD SWAP1 PUSH2 0x1AFC JUMP JUMPDEST PUSH2 0x1B84 SWAP1 DUP6 PUSH1 0x0 MSTORE PUSH1 0x20 PUSH1 0x0 KECCAK256 PUSH1 0x1F DUP6 ADD PUSH1 0x5 SHR DUP2 ADD SWAP2 PUSH1 0x20 DUP7 LT PUSH2 0x1AAB JUMPI PUSH1 0x1F ADD PUSH1 0x5 SHR ADD SWAP1 PUSH2 0x45E5 JUMP JUMPDEST DUP8 PUSH2 0x168F JUMP JUMPDEST PUSH1 0x64 PUSH1 0x40 MLOAD PUSH3 0x461BCD PUSH1 0xE5 SHL DUP2 MSTORE PUSH1 0x20 PUSH1 0x4 DUP3 ADD MSTORE PUSH1 0x20 PUSH1 0x24 DUP3 ADD MSTORE PUSH32 0x4552433732313A206D696E7420746F20746865207A65726F2061646472657373 PUSH1 0x44 DUP3 ADD MSTORE REVERT JUMPDEST PUSH1 0x40 MLOAD PUSH3 0x461BCD PUSH1 0xE5 SHL DUP2 MSTORE PUSH1 0x20 PUSH1 0x4 DUP3 ADD MSTORE PUSH1 0x14 PUSH1 0x24 DUP3 ADD MSTORE PUSH20 0x125B9CDD59999A58DA595B9D081C185E5B595B9D PUSH1 0x62 SHL PUSH1 0x44 DUP3 ADD MSTORE PUSH1 0x64 SWAP1 REVERT JUMPDEST PUSH1 0x40 MLOAD PUSH3 0x461BCD PUSH1 0xE5 SHL DUP2 MSTORE PUSH1 0x20 PUSH1 0x4 DUP3 ADD MSTORE PUSH1 0x17 PUSH1 0x24 DUP3 ADD MSTORE PUSH32 0x52617269747920737570706C7920657868617573746564000000000000000000 PUSH1 0x44 DUP3 ADD MSTORE PUSH1 0x64 SWAP1 REVERT JUMPDEST CALLVALUE PUSH2 0x3BE JUMPI PUSH1 0x20 CALLDATASIZE PUSH1 0x3 NOT ADD SLT PUSH2 0x3BE JUMPI PUSH1 0x4 CALLDATALOAD PUSH2 0x1C6B PUSH2 0x3A48 JUMP JUMPDEST PUSH1 0x3C DUP2 LT ISZERO DUP1 PUSH2 0x1CB8 JUMPI JUMPDEST ISZERO PUSH2 0x1C80 JUMPI PUSH1 0x16 SSTORE STOP JUMPDEST PUSH1 0x40 MLOAD PUSH3 0x461BCD PUSH1 0xE5 SHL DUP2 MSTORE PUSH1 0x20 PUSH1 0x4 DUP3 ADD MSTORE PUSH1 0x10 PUSH1 0x24 DUP3 ADD MSTORE PUSH16 0x125B9D985B1A59081A5B9D195C9D985B PUSH1 0x82 SHL PUSH1 0x44 DUP3 ADD MSTORE PUSH1 0x64 SWAP1 REVERT JUMPDEST POP PUSH3 0x15180 DUP2 GT ISZERO PUSH2 0x1C76 JUMP JUMPDEST CALLVALUE PUSH2 0x3BE JUMPI PUSH1 0x0 CALLDATASIZE PUSH1 0x3 NOT ADD SLT PUSH2 0x3BE JUMPI PUSH1 0x40 MLOAD PUSH1 0x0 PUSH1 0x1 DUP1 SLOAD SWAP1 PUSH2 0x1CE9 DUP3 PUSH2 0x36DA JUMP JUMPDEST DUP1 DUP6 MSTORE SWAP2 DUP2 DUP2 AND SWAP1 DUP2 ISZERO PUSH2 0xBA3 JUMPI POP PUSH1 0x1 EQ PUSH2 0x1D0F JUMPI PUSH2 0xAD0 DUP5 PUSH2 0xABC DUP2 DUP7 SUB DUP3 PUSH2 0x3583 JUMP JUMPDEST PUSH1 0x0 DUP2 DUP2 MSTORE SWAP3 POP PUSH32 0xB10E2D527612073B26EECDFD717E6A320CF44B4AFAC2B0732D9FCBE2B7FA0CF6 JUMPDEST DUP3 DUP5 LT PUSH2 0x1D50 JUMPI POP POP POP DUP2 ADD PUSH1 0x20 ADD PUSH2 0xABC DUP3 PUSH2 0xB38 JUMP JUMPDEST DUP1 SLOAD PUSH1 0x20 DUP6 DUP8 ADD DUP2 ADD SWAP2 SWAP1 SWAP2 MSTORE SWAP1 SWAP4 ADD SWAP3 DUP2 ADD PUSH2 0x1D38 JUMP JUMPDEST CALLVALUE PUSH2 0x3BE JUMPI PUSH1 0x20 CALLDATASIZE PUSH1 0x3 NOT ADD SLT PUSH2 0x3BE JUMPI PUSH1 0x1 PUSH1 0x1 PUSH1 0xA0 SHL SUB PUSH2 0x1D89 PUSH2 0x3618 JUMP JUMPDEST AND PUSH1 0x0 MSTORE PUSH1 0x12 PUSH1 0x20 MSTORE PUSH1 0x20 PUSH1 0xFF PUSH1 0x40 PUSH1 0x0 KECCAK256 SLOAD AND PUSH1 0x40 MLOAD SWAP1 ISZERO ISZERO DUP2 MSTORE RETURN JUMPDEST CALLVALUE PUSH2 0x3BE JUMPI PUSH1 0x0 CALLDATASIZE PUSH1 0x3 NOT ADD SLT PUSH2 0x3BE JUMPI PUSH1 0x20 PUSH1 0x40 MLOAD PUSH1 0xA DUP2 MSTORE RETURN JUMPDEST CALLVALUE PUSH2 0x3BE JUMPI PUSH1 0x0 CALLDATASIZE PUSH1 0x3 NOT ADD SLT PUSH2 0x3BE JUMPI PUSH1 0xB SLOAD PUSH1 0x40 MLOAD PUSH1 0x8 SWAP2 SWAP1 SWAP2 SHR PUSH1 0x1 PUSH1 0x1 PUSH1 0xA0 SHL SUB AND DUP2 MSTORE PUSH1 0x20 SWAP1 RETURN JUMPDEST CALLVALUE PUSH2 0x3BE JUMPI PUSH1 0x0 CALLDATASIZE PUSH1 0x3 NOT ADD SLT PUSH2 0x3BE JUMPI PUSH2 0x1E09 PUSH2 0x3A48 JUMP JUMPDEST PUSH2 0x1E11 PUSH2 0x470B JUMP JUMPDEST PUSH1 0x1 PUSH1 0xFF NOT PUSH1 0xB SLOAD AND OR PUSH1 0xB SSTORE PUSH32 0x62E78CEA01BEE320CD4E420270B5EA74000D11B0C9F74754EBDBFC544B05A258 PUSH1 0x20 PUSH1 0x40 MLOAD CALLER DUP2 MSTORE LOG1 STOP JUMPDEST CALLVALUE PUSH2 0x3BE JUMPI PUSH2 0x1E58 CALLDATASIZE PUSH2 0x3839 JUMP JUMPDEST SWAP1 PUSH2 0x1E61 PUSH2 0x3A48 JUMP JUMPDEST PUSH3 0x186A0 DUP3 GT PUSH2 0x1EC9 JUMPI PUSH2 0x1E74 DUP2 PUSH2 0x36A8 JUMP JUMPDEST SLOAD DUP3 LT PUSH2 0x1E84 JUMPI PUSH2 0xC72 SWAP1 PUSH2 0x368F JUMP JUMPDEST PUSH1 0x40 MLOAD PUSH3 0x461BCD PUSH1 0xE5 SHL DUP2 MSTORE PUSH1 0x20 PUSH1 0x4 DUP3 ADD MSTORE PUSH1 0x1B PUSH1 0x24 DUP3 ADD MSTORE PUSH32 0x537570706C792062656C6F772063757272656E74206D696E7465640000000000 PUSH1 0x44 DUP3 ADD MSTORE PUSH1 0x64 SWAP1 REVERT JUMPDEST PUSH1 0x40 MLOAD PUSH3 0x461BCD PUSH1 0xE5 SHL DUP2 MSTORE PUSH1 0x20 PUSH1 0x4 DUP3 ADD MSTORE PUSH1 0x1C PUSH1 0x24 DUP3 ADD MSTORE PUSH32 0x537570706C792065786365656473206D6178696D756D206C696D697400000000 PUSH1 0x44 DUP3 ADD MSTORE PUSH1 0x64 SWAP1 REVERT JUMPDEST CALLVALUE PUSH2 0x3BE JUMPI PUSH1 0x0 CALLDATASIZE PUSH1 0x3 NOT ADD SLT PUSH2 0x3BE JUMPI PUSH2 0x1F27 PUSH2 0x3A48 JUMP JUMPDEST PUSH1 0xB DUP1 SLOAD PUSH2 0x100 PUSH1 0x1 PUSH1 0xA8 SHL SUB NOT DUP2 AND SWAP1 SWAP2 SSTORE PUSH1 0x0 SWAP1 PUSH1 0x8 SHR PUSH1 0x1 PUSH1 0x1 PUSH1 0xA0 SHL SUB AND PUSH32 0x8BE0079C531659141344CD1FD0A4F28419497F9722A3DAAFE3B4186F6B6457E0 DUP3 DUP1 LOG3 STOP JUMPDEST CALLVALUE PUSH2 0x3BE JUMPI PUSH1 0x20 CALLDATASIZE PUSH1 0x3 NOT ADD SLT PUSH2 0x3BE JUMPI PUSH1 0x20 PUSH2 0x1F92 PUSH2 0x1F8D PUSH2 0x3618 JUMP JUMPDEST PUSH2 0x3AA3 JUMP JUMPDEST PUSH1 0x40 MLOAD SWAP1 DUP2 MSTORE RETURN JUMPDEST CALLVALUE PUSH2 0x3BE JUMPI PUSH1 0x80 CALLDATASIZE PUSH1 0x3 NOT ADD SLT PUSH2 0x3BE JUMPI PUSH1 0x1 PUSH1 0x1 PUSH1 0x40 SHL SUB PUSH1 0x24 CALLDATALOAD DUP2 DUP2 GT PUSH2 0x3BE JUMPI PUSH2 0x1FCB SWAP1 CALLDATASIZE SWAP1 PUSH1 0x4 ADD PUSH2 0x380C JUMP JUMPDEST SWAP1 PUSH1 0x44 CALLDATALOAD DUP2 DUP2 GT PUSH2 0x3BE JUMPI PUSH2 0x1FE4 SWAP1 CALLDATASIZE SWAP1 PUSH1 0x4 ADD PUSH2 0x380C JUMP JUMPDEST SWAP2 PUSH1 0x64 CALLDATALOAD SWAP2 DUP3 ISZERO SWAP1 DUP2 ISZERO DUP1 SWAP5 SUB PUSH2 0x3BE JUMPI PUSH1 0x19 SLOAD CALLER PUSH1 0x1 PUSH1 0x1 PUSH1 0xA0 SHL SUB SWAP2 DUP3 AND EQ SWAP1 DUP2 ISZERO PUSH2 0x245B JUMPI JUMPDEST POP ISZERO PUSH2 0x2426 JUMPI PUSH1 0x4 CALLDATALOAD PUSH1 0x0 DUP2 DUP2 MSTORE PUSH1 0x2 PUSH1 0x20 MSTORE PUSH1 0x40 SWAP1 KECCAK256 SLOAD SWAP1 SWAP6 SWAP1 PUSH2 0x203C SWAP1 PUSH1 0x1 PUSH1 0x1 PUSH1 0xA0 SHL SUB AND ISZERO ISZERO PUSH2 0x4207 JUMP JUMPDEST PUSH1 0x40 MLOAD PUSH2 0x2048 DUP2 PUSH2 0x34DF JUMP JUMPDEST TIMESTAMP DUP2 MSTORE PUSH1 0x20 PUSH1 0x80 MSTORE PUSH1 0x80 MLOAD DUP2 ADD SWAP3 DUP6 DUP5 MSTORE PUSH1 0x40 DUP3 ADD DUP4 DUP2 MSTORE PUSH1 0x60 DUP4 ADD SWAP2 DUP9 DUP4 MSTORE DUP10 PUSH1 0x0 MSTORE PUSH1 0x10 PUSH1 0x80 MLOAD MSTORE PUSH1 0x40 PUSH1 0x0 KECCAK256 SWAP6 DUP7 SLOAD PUSH1 0x1 PUSH1 0x40 SHL DUP2 LT ISZERO PUSH2 0x1AB5 JUMPI PUSH2 0x2097 SWAP1 PUSH1 0x1 SWAP9 DUP10 DUP3 ADD DUP2 SSTORE PUSH2 0x39FF JUMP JUMPDEST SWAP6 SWAP1 SWAP6 PUSH2 0x2410 JUMPI MLOAD DUP6 SSTORE MLOAD SWAP6 DUP7 MLOAD DUP3 DUP2 GT PUSH2 0x1AB5 JUMPI DUP2 DUP7 ADD SWAP1 DUP1 PUSH2 0x20BB DUP4 SLOAD PUSH2 0x36DA JUMP JUMPDEST SWAP10 PUSH1 0x1F SWAP11 DUP12 DUP2 GT PUSH2 0x23DE JUMPI JUMPDEST POP PUSH1 0x80 MLOAD SWAP1 DUP12 DUP4 GT PUSH1 0x1 EQ PUSH2 0x2378 JUMPI PUSH1 0x0 SWAP3 PUSH2 0x236D JUMPI JUMPDEST POP POP PUSH1 0x0 NOT PUSH1 0x3 DUP4 SWAP1 SHL SHR NOT AND SWAP1 DUP4 SHL OR SWAP1 SSTORE JUMPDEST PUSH1 0x2 DUP6 ADD SWAP3 MLOAD SWAP7 DUP8 MLOAD SWAP3 DUP4 GT PUSH2 0x1AB5 JUMPI DUP12 SWAP8 PUSH2 0x210E DUP6 SLOAD PUSH2 0x36DA JUMP JUMPDEST DUP3 DUP2 GT PUSH2 0x2331 JUMPI JUMPDEST POP PUSH1 0x80 MLOAD SWAP2 DUP5 GT PUSH1 0x1 EQ PUSH2 0x22A4 JUMPI SWAP3 DUP1 PUSH1 0x3 SWAP6 SWAP4 DUP2 SWAP4 PUSH2 0x2161 SWAP10 SWAP9 SWAP7 PUSH1 0x0 SWAP5 PUSH2 0x2299 JUMPI JUMPDEST POP POP SHL SWAP2 PUSH1 0x0 NOT SWAP1 DUP7 SHL SHR NOT AND OR SWAP1 SSTORE JUMPDEST MLOAD ISZERO ISZERO SWAP2 ADD SWAP1 PUSH1 0xFF DUP1 NOT DUP4 SLOAD AND SWAP2 ISZERO ISZERO AND OR SWAP1 SSTORE JUMP JUMPDEST DUP2 PUSH1 0x0 MSTORE PUSH1 0xF PUSH1 0x80 MLOAD MSTORE PUSH1 0x40 PUSH1 0x0 KECCAK256 SWAP3 PUSH1 0x0 EQ PUSH2 0x21E9 JUMPI POP POP SWAP1 PUSH32 0x86C2BE553165359BD82C8607D665ED72BCD9B72E15C3E1973C0E20DC8606C980 SWAP3 PUSH1 0x5 PUSH1 0xD PUSH2 0x21CE SWAP5 ADD PUSH2 0x21B0 DUP2 SLOAD PUSH2 0x424A JUMP JUMPDEST DUP1 SWAP2 SSTORE LT ISZERO PUSH2 0x21DA JUMPI JUMPDEST PUSH1 0x40 MLOAD SWAP3 DUP4 SWAP3 PUSH1 0x40 DUP5 MSTORE PUSH1 0x40 DUP5 ADD SWAP1 PUSH2 0x35E9 JUMP JUMPDEST SWAP1 PUSH1 0x80 MLOAD DUP4 ADD MSTORE SUB SWAP1 LOG2 STOP JUMPDEST PUSH2 0x21E4 DUP3 DUP7 PUSH2 0x4635 JUMP JUMPDEST PUSH2 0x21BA JUMP JUMPDEST SWAP1 PUSH32 0x172FFE120C5A99836D395F1FC8F3B426F5CA77708118DCA216BDC34ECF3A69F5 PUSH2 0x221F PUSH1 0xD SWAP5 SWAP4 PUSH1 0x40 MLOAD SWAP2 DUP3 SWAP2 DUP9 DUP4 PUSH2 0x45FC JUMP JUMPDEST SUB SWAP1 LOG2 ADD DUP1 SLOAD DUP1 ISZERO DUP1 ISZERO PUSH2 0x225C JUMPI JUMPDEST POP POP POP PUSH2 0x21CE SWAP1 PUSH32 0x86C2BE553165359BD82C8607D665ED72BCD9B72E15C3E1973C0E20DC8606C980 SWAP3 PUSH2 0x21BA JUMP JUMPDEST SWAP4 SWAP1 SWAP3 SWAP2 SWAP4 PUSH2 0x944 JUMPI PUSH1 0x0 NOT SWAP1 SWAP3 ADD SWAP1 SWAP3 SSTORE SWAP1 DUP1 PUSH32 0x86C2BE553165359BD82C8607D665ED72BCD9B72E15C3E1973C0E20DC8606C980 PUSH2 0x21CE PUSH2 0x222E JUMP JUMPDEST ADD MLOAD SWAP3 POP DUP16 DUP1 PUSH2 0x213A JUMP JUMPDEST SWAP8 SWAP7 SWAP6 SWAP5 SWAP4 SWAP3 SWAP1 PUSH1 0x1F NOT DUP3 AND SWAP9 DUP5 PUSH1 0x0 MSTORE PUSH1 0x80 MLOAD PUSH1 0x0 KECCAK256 SWAP10 PUSH1 0x0 JUMPDEST DUP2 DUP2 LT PUSH2 0x2302 JUMPI POP SWAP2 PUSH2 0x2161 SWAP9 SWAP10 SWAP11 SWAP2 DUP5 PUSH1 0x3 SWAP9 SWAP8 SWAP7 SWAP6 SWAP5 LT PUSH2 0x22EA JUMPI JUMPDEST POP POP POP DUP2 SHL ADD SWAP1 SSTORE PUSH2 0x214B JUMP JUMPDEST ADD MLOAD PUSH1 0x0 NOT DUP4 DUP9 SHL PUSH1 0xF8 AND SHR NOT AND SWAP1 SSTORE DUP14 DUP1 DUP1 PUSH2 0x22DD JUMP JUMPDEST SWAP4 SWAP6 SWAP8 SWAP10 POP SWAP1 SWAP2 SWAP4 DUP1 SWAP7 SWAP9 SWAP11 DUP6 DUP5 ADD MLOAD DUP2 SSTORE ADD SWAP4 PUSH1 0x80 MLOAD ADD SWAP3 PUSH1 0x80 MLOAD ADD SWAP1 DUP15 SWAP10 SWAP8 SWAP6 SWAP4 SWAP3 SWAP2 SWAP11 SWAP9 SWAP7 SWAP5 SWAP11 PUSH2 0x22BF JUMP JUMPDEST PUSH2 0x235E SWAP1 DUP7 PUSH1 0x0 MSTORE PUSH1 0x80 MLOAD PUSH1 0x0 KECCAK256 DUP5 DUP1 DUP9 ADD PUSH1 0x5 SHR DUP3 ADD SWAP3 PUSH1 0x80 MLOAD DUP10 LT PUSH2 0x2364 JUMPI JUMPDEST ADD PUSH1 0x5 SHR ADD SWAP1 PUSH2 0x45E5 JUMP JUMPDEST DUP14 PUSH2 0x2116 JUMP JUMPDEST SWAP3 POP DUP2 SWAP3 PUSH2 0x2353 JUMP JUMPDEST ADD MLOAD SWAP1 POP DUP15 DUP1 PUSH2 0x20DE JUMP JUMPDEST SWAP1 DUP6 SWAP4 POP DUP5 PUSH1 0x0 MSTORE PUSH1 0x80 MLOAD PUSH1 0x0 KECCAK256 SWAP2 PUSH1 0x0 PUSH1 0x1F NOT DUP6 AND SWAP1 JUMPDEST DUP2 DUP2 LT PUSH2 0x23C5 JUMPI POP DUP5 GT PUSH2 0x23AC JUMPI JUMPDEST POP POP POP DUP2 SHL ADD SWAP1 SSTORE PUSH2 0x20F2 JUMP JUMPDEST ADD MLOAD PUSH1 0x0 NOT PUSH1 0xF8 DUP5 PUSH1 0x3 SHL AND SHR NOT AND SWAP1 SSTORE DUP15 DUP1 DUP1 PUSH2 0x239F JUMP JUMPDEST DUP3 DUP5 ADD MLOAD DUP6 SSTORE PUSH1 0x80 MLOAD DUP10 SWAP8 SWAP1 SWAP6 ADD SWAP5 SWAP4 DUP5 ADD SWAP4 ADD PUSH2 0x2390 JUMP JUMPDEST PUSH2 0x240A SWAP1 DUP6 PUSH1 0x0 MSTORE PUSH1 0x80 MLOAD PUSH1 0x0 KECCAK256 DUP14 DUP1 DUP7 ADD PUSH1 0x5 SHR DUP3 ADD SWAP3 PUSH1 0x80 MLOAD DUP8 LT PUSH2 0x2364 JUMPI ADD PUSH1 0x5 SHR ADD SWAP1 PUSH2 0x45E5 JUMP JUMPDEST DUP16 PUSH2 0x20C7 JUMP JUMPDEST PUSH4 0x4E487B71 PUSH1 0xE0 SHL PUSH1 0x0 MSTORE PUSH1 0x0 PUSH1 0x4 MSTORE PUSH1 0x24 PUSH1 0x0 REVERT JUMPDEST PUSH1 0x40 MLOAD PUSH3 0x461BCD PUSH1 0xE5 SHL DUP2 MSTORE PUSH1 0x20 PUSH1 0x4 DUP3 ADD MSTORE PUSH1 0xD PUSH1 0x24 DUP3 ADD MSTORE PUSH13 0x2737BA103932B3BAB630BA37B9 PUSH1 0x99 SHL PUSH1 0x44 DUP3 ADD MSTORE PUSH1 0x64 SWAP1 REVERT JUMPDEST SWAP1 POP PUSH1 0xB SLOAD PUSH1 0x8 SHR AND CALLER EQ DUP7 PUSH2 0x200D JUMP JUMPDEST CALLVALUE PUSH2 0x3BE JUMPI PUSH1 0x0 CALLDATASIZE PUSH1 0x3 NOT ADD SLT PUSH2 0x3BE JUMPI PUSH1 0x40 MLOAD PUSH1 0x0 PUSH1 0x1A SLOAD PUSH2 0x248E DUP2 PUSH2 0x36DA JUMP JUMPDEST DUP1 DUP5 MSTORE SWAP1 PUSH1 0x1 SWAP1 DUP2 DUP2 AND SWAP1 DUP2 ISZERO PUSH2 0xBA3 JUMPI POP PUSH1 0x1 EQ PUSH2 0x24B7 JUMPI PUSH2 0xAD0 DUP5 PUSH2 0xABC DUP2 DUP7 SUB DUP3 PUSH2 0x3583 JUMP JUMPDEST PUSH1 0x1A PUSH1 0x0 SWAP1 DUP2 MSTORE SWAP3 POP PUSH32 0x57C384A7D1C54F3A1B2E5E67B2617B8224FDFD1EA7234EEA573A6FF665FF63E JUMPDEST DUP3 DUP5 LT PUSH2 0x24FA JUMPI POP POP POP DUP2 ADD PUSH1 0x20 ADD PUSH2 0xABC DUP3 PUSH2 0xB38 JUMP JUMPDEST DUP1 SLOAD PUSH1 0x20 DUP6 DUP8 ADD DUP2 ADD SWAP2 SWAP1 SWAP2 MSTORE SWAP1 SWAP4 ADD SWAP3 DUP2 ADD PUSH2 0x24E2 JUMP JUMPDEST CALLVALUE PUSH2 0x3BE JUMPI PUSH1 0x0 CALLDATASIZE PUSH1 0x3 NOT ADD SLT PUSH2 0x3BE JUMPI PUSH1 0x20 PUSH1 0x40 MLOAD PUSH1 0x5 DUP2 MSTORE RETURN JUMPDEST CALLVALUE PUSH2 0x3BE JUMPI PUSH1 0x20 CALLDATASIZE PUSH1 0x3 NOT ADD SLT PUSH2 0x3BE JUMPI PUSH1 0x20 PUSH2 0x254C PUSH1 0x4 CALLDATALOAD PUSH2 0x3B66 JUMP JUMPDEST PUSH1 0x40 MLOAD PUSH1 0x1 PUSH1 0x1 PUSH1 0xA0 SHL SUB SWAP1 SWAP2 AND DUP2 MSTORE RETURN JUMPDEST CALLVALUE PUSH2 0x3BE JUMPI PUSH1 0x20 CALLDATASIZE PUSH1 0x3 NOT ADD SLT PUSH2 0x3BE JUMPI PUSH1 0x20 PUSH2 0x2599 PUSH1 0x4 CALLDATALOAD PUSH2 0x506 PUSH2 0x501 DUP3 PUSH1 0x0 MSTORE PUSH1 0x2 PUSH1 0x20 MSTORE PUSH1 0x1 DUP1 PUSH1 0xA0 SHL SUB PUSH1 0x40 PUSH1 0x0 KECCAK256 SLOAD AND ISZERO ISZERO SWAP1 JUMP JUMPDEST PUSH1 0x40 MLOAD SWAP1 PUSH2 0x25A6 DUP2 PUSH2 0x360E JUMP JUMPDEST DUP2 MSTORE RETURN JUMPDEST CALLVALUE PUSH2 0x3BE JUMPI PUSH1 0x0 CALLDATASIZE PUSH1 0x3 NOT ADD SLT PUSH2 0x3BE JUMPI PUSH1 0x20 PUSH1 0x40 MLOAD PUSH3 0x186A0 DUP2 MSTORE RETURN JUMPDEST CALLVALUE PUSH2 0x3BE JUMPI PUSH1 0x0 CALLDATASIZE PUSH1 0x3 NOT ADD SLT PUSH2 0x3BE JUMPI PUSH1 0x20 PUSH1 0xFF PUSH1 0xB SLOAD AND PUSH1 0x40 MLOAD SWAP1 ISZERO ISZERO DUP2 MSTORE RETURN JUMPDEST CALLVALUE PUSH2 0x3BE JUMPI PUSH1 0x0 CALLDATASIZE PUSH1 0x3 NOT ADD SLT PUSH2 0x3BE JUMPI PUSH1 0x20 PUSH1 0x16 SLOAD PUSH1 0x40 MLOAD SWAP1 DUP2 MSTORE RETURN JUMPDEST CALLVALUE PUSH2 0x3BE JUMPI PUSH1 0x0 CALLDATASIZE PUSH1 0x3 NOT ADD SLT PUSH2 0x3BE JUMPI PUSH1 0x18 SLOAD PUSH1 0x40 MLOAD PUSH1 0x1 PUSH1 0x1 PUSH1 0xA0 SHL SUB SWAP1 SWAP2 AND DUP2 MSTORE PUSH1 0x20 SWAP1 RETURN JUMPDEST CALLVALUE PUSH2 0x3BE JUMPI PUSH1 0x20 CALLDATASIZE PUSH1 0x3 NOT ADD SLT PUSH2 0x3BE JUMPI PUSH1 0x4 CALLDATALOAD PUSH1 0x8 SLOAD DUP2 LT ISZERO PUSH2 0x2669 JUMPI PUSH2 0x265B PUSH1 0x20 SWAP2 PUSH2 0x41D0 JUMP JUMPDEST SWAP1 SLOAD PUSH1 0x40 MLOAD SWAP2 PUSH1 0x3 SHL SHR DUP2 MSTORE RETURN JUMPDEST PUSH1 0x40 MLOAD PUSH3 0x461BCD PUSH1 0xE5 SHL DUP2 MSTORE PUSH1 0x20 PUSH1 0x4 DUP3 ADD MSTORE PUSH1 0x2C PUSH1 0x24 DUP3 ADD MSTORE PUSH32 0x455243373231456E756D657261626C653A20676C6F62616C20696E646578206F PUSH1 0x44 DUP3 ADD MSTORE PUSH12 0x7574206F6620626F756E6473 PUSH1 0xA0 SHL PUSH1 0x64 DUP3 ADD MSTORE PUSH1 0x84 SWAP1 REVERT JUMPDEST CALLVALUE PUSH2 0x3BE JUMPI PUSH1 0x0 CALLDATASIZE PUSH1 0x3 NOT ADD SLT PUSH2 0x3BE JUMPI PUSH1 0x17 SLOAD PUSH1 0x40 MLOAD PUSH1 0x1 PUSH1 0x1 PUSH1 0xA0 SHL SUB SWAP1 SWAP2 AND DUP2 MSTORE PUSH1 0x20 SWAP1 RETURN JUMPDEST CALLVALUE PUSH2 0x3BE JUMPI PUSH1 0x0 CALLDATASIZE PUSH1 0x3 NOT ADD SLT PUSH2 0x3BE JUMPI PUSH1 0x20 PUSH1 0x40 MLOAD PUSH2 0x1F4 DUP2 MSTORE RETURN JUMPDEST CALLVALUE PUSH2 0x3BE JUMPI PUSH1 0x20 DUP1 PUSH1 0x3 NOT CALLDATASIZE ADD SLT PUSH2 0x3BE JUMPI PUSH1 0x4 CALLDATALOAD PUSH2 0x272B PUSH2 0xCE0 DUP3 CALLER PUSH2 0x3CA0 JUMP JUMPDEST PUSH2 0x2734 DUP2 PUSH2 0x3B66 JUMP JUMPDEST PUSH2 0x273C PUSH2 0x470B JUMP JUMPDEST PUSH1 0x1 PUSH1 0x1 PUSH1 0xA0 SHL SUB SWAP1 DUP1 DUP3 AND SWAP1 DUP2 PUSH2 0x28EE JUMPI POP POP PUSH1 0x8 SLOAD DUP3 PUSH1 0x0 MSTORE PUSH1 0x9 DUP5 MSTORE DUP1 PUSH1 0x40 PUSH1 0x0 KECCAK256 SSTORE PUSH1 0x1 PUSH1 0x40 SHL DUP2 LT ISZERO PUSH2 0x1AB5 JUMPI DUP3 PUSH2 0x14C9 DUP3 PUSH1 0x1 PUSH2 0x2782 SWAP5 ADD PUSH1 0x8 SSTORE PUSH2 0x41D0 JUMP JUMPDEST PUSH1 0x8 SLOAD PUSH1 0x0 NOT SWAP1 DUP2 DUP2 ADD SWAP1 DUP2 GT PUSH2 0x944 JUMPI DUP4 PUSH1 0x0 MSTORE PUSH1 0x9 DUP6 MSTORE PUSH2 0x27AA PUSH1 0x40 PUSH1 0x0 KECCAK256 SLOAD SWAP2 PUSH2 0x41D0 JUMP JUMPDEST SWAP1 SLOAD SWAP1 PUSH1 0x3 SHL SHR PUSH2 0x27BE DUP2 PUSH2 0x14C9 DUP5 PUSH2 0x41D0 JUMP JUMPDEST PUSH1 0x0 MSTORE PUSH1 0x9 DUP6 MSTORE PUSH1 0x40 PUSH1 0x0 KECCAK256 SSTORE DUP3 PUSH1 0x0 MSTORE PUSH1 0x0 PUSH1 0x40 DUP2 KECCAK256 SSTORE PUSH1 0x8 SLOAD SWAP1 DUP2 ISZERO PUSH2 0x28D8 JUMPI DUP4 SWAP3 DUP2 PUSH1 0x0 SWAP4 ADD PUSH2 0x27F0 DUP2 PUSH2 0x41D0 JUMP JUMPDEST DUP5 DUP3 SLOAD SWAP2 PUSH1 0x3 SHL SHL NOT AND SWAP1 SSTORE PUSH1 0x8 SSTORE PUSH2 0x2808 DUP5 PUSH2 0x3B66 JUMP JUMPDEST SWAP1 DUP5 DUP5 MSTORE PUSH1 0x4 DUP8 MSTORE PUSH1 0x40 DUP5 KECCAK256 SWAP2 PUSH1 0x1 PUSH1 0x1 PUSH1 0x60 SHL SUB PUSH1 0xA0 SHL SWAP3 DUP4 DUP2 SLOAD AND SWAP1 SSTORE AND SWAP2 DUP3 DUP5 MSTORE PUSH1 0x3 DUP8 MSTORE PUSH1 0x40 DUP5 KECCAK256 SWAP1 DUP2 SLOAD ADD SWAP1 SSTORE DUP4 DUP4 MSTORE PUSH1 0x2 DUP7 MSTORE PUSH1 0x40 DUP4 KECCAK256 SWAP1 DUP2 SLOAD AND SWAP1 SSTORE PUSH32 0xDDF252AD1BE2C89B69C2B068FC378DAA952BA7F163C4A11628F55A4DF523B3EF DUP3 DUP1 LOG4 PUSH1 0xA DUP3 MSTORE PUSH2 0x2881 PUSH1 0x40 PUSH1 0x0 KECCAK256 SLOAD PUSH2 0x36DA JUMP JUMPDEST PUSH2 0x2887 JUMPI STOP JUMPDEST PUSH1 0x0 MSTORE PUSH1 0xA DUP2 MSTORE PUSH1 0x40 PUSH1 0x0 KECCAK256 PUSH2 0x289D DUP2 SLOAD PUSH2 0x36DA JUMP JUMPDEST DUP1 PUSH2 0x28A4 JUMPI STOP JUMPDEST PUSH1 0x0 SWAP3 PUSH1 0x1F DUP3 GT PUSH1 0x1 EQ PUSH2 0x28B7 JUMPI POP POP SSTORE STOP JUMPDEST DUP3 DUP5 MSTORE DUP4 KECCAK256 SWAP2 DUP4 SWAP2 PUSH2 0x28D4 SWAP1 PUSH1 0x1F ADD PUSH1 0x5 SHR DUP5 ADD PUSH1 0x1 DUP6 ADD PUSH2 0x45E5 JUMP JUMPDEST SSTORE SSTORE STOP JUMPDEST PUSH4 0x4E487B71 PUSH1 0xE0 SHL PUSH1 0x0 MSTORE PUSH1 0x31 PUSH1 0x4 MSTORE PUSH1 0x24 PUSH1 0x0 REVERT JUMPDEST PUSH2 0x28F7 SWAP1 PUSH2 0x3AA3 JUMP JUMPDEST PUSH1 0x0 NOT DUP2 ADD SWAP2 SWAP1 DUP3 GT PUSH2 0x944 JUMPI DUP4 PUSH1 0x0 MSTORE PUSH1 0x7 DUP6 MSTORE PUSH1 0x40 PUSH1 0x0 KECCAK256 SLOAD DUP3 DUP2 SUB PUSH2 0x2944 JUMPI JUMPDEST POP DUP4 PUSH1 0x0 MSTORE PUSH1 0x0 PUSH1 0x40 DUP2 KECCAK256 SSTORE PUSH1 0x0 MSTORE PUSH1 0x6 DUP5 MSTORE PUSH1 0x40 PUSH1 0x0 KECCAK256 SWAP1 PUSH1 0x0 MSTORE DUP4 MSTORE PUSH1 0x0 PUSH1 0x40 DUP2 KECCAK256 SSTORE PUSH2 0x2782 JUMP JUMPDEST DUP2 PUSH1 0x0 MSTORE PUSH1 0x6 DUP7 MSTORE PUSH1 0x40 PUSH1 0x0 KECCAK256 DUP4 PUSH1 0x0 MSTORE DUP7 MSTORE PUSH1 0x40 PUSH1 0x0 KECCAK256 SLOAD DUP3 PUSH1 0x0 MSTORE PUSH1 0x6 DUP8 MSTORE PUSH1 0x40 PUSH1 0x0 KECCAK256 DUP3 PUSH1 0x0 MSTORE DUP8 MSTORE DUP1 PUSH1 0x40 PUSH1 0x0 KECCAK256 SSTORE PUSH1 0x0 MSTORE PUSH1 0x7 DUP7 MSTORE PUSH1 0x40 PUSH1 0x0 KECCAK256 SSTORE DUP6 PUSH2 0x291A JUMP JUMPDEST CALLVALUE PUSH2 0x3BE JUMPI PUSH2 0x416 PUSH2 0xCF5 PUSH2 0x299E CALLDATASIZE PUSH2 0x3644 JUMP JUMPDEST SWAP1 PUSH1 0x40 MLOAD SWAP3 PUSH2 0x29AC DUP5 PUSH2 0x354D JUMP JUMPDEST PUSH1 0x0 DUP5 MSTORE PUSH2 0xCE5 PUSH2 0xCE0 DUP5 CALLER PUSH2 0x3CA0 JUMP JUMPDEST CALLVALUE PUSH2 0x3BE JUMPI PUSH1 0x20 DUP1 PUSH1 0x3 NOT CALLDATASIZE ADD SLT PUSH2 0x3BE JUMPI PUSH2 0x29D7 PUSH2 0x3618 JUMP JUMPDEST PUSH2 0x29E0 DUP2 PUSH2 0x3AA3 JUMP JUMPDEST PUSH2 0x29E9 DUP2 PUSH2 0x3A31 JUMP JUMPDEST SWAP1 PUSH2 0x29F7 PUSH1 0x40 MLOAD SWAP3 DUP4 PUSH2 0x3583 JUMP JUMPDEST DUP1 DUP3 MSTORE PUSH2 0x2A03 DUP2 PUSH2 0x3A31 JUMP JUMPDEST DUP3 DUP6 ADD SWAP4 SWAP1 PUSH1 0x1F NOT ADD CALLDATASIZE DUP6 CALLDATACOPY PUSH1 0x0 JUMPDEST DUP3 DUP2 LT PUSH2 0x2A5D JUMPI POP POP POP SWAP1 PUSH1 0x40 MLOAD SWAP3 DUP4 SWAP3 DUP2 DUP5 ADD SWAP1 DUP3 DUP6 MSTORE MLOAD DUP1 SWAP2 MSTORE PUSH1 0x40 DUP5 ADD SWAP3 SWAP2 PUSH1 0x0 JUMPDEST DUP3 DUP2 LT PUSH2 0x2A46 JUMPI POP POP POP POP SUB SWAP1 RETURN JUMPDEST DUP4 MLOAD DUP6 MSTORE DUP7 SWAP6 POP SWAP4 DUP2 ADD SWAP4 SWAP3 DUP2 ADD SWAP3 PUSH1 0x1 ADD PUSH2 0x2A37 JUMP JUMPDEST DUP1 PUSH2 0x2A6B PUSH2 0x2A7B SWAP3 DUP5 PUSH2 0x4142 JUMP JUMPDEST PUSH2 0x2A75 DUP3 DUP8 PUSH2 0x4621 JUMP JUMPDEST MSTORE PUSH2 0x424A JUMP JUMPDEST PUSH2 0x2A12 JUMP JUMPDEST CALLVALUE PUSH2 0x3BE JUMPI PUSH1 0x0 CALLDATASIZE PUSH1 0x3 NOT ADD SLT PUSH2 0x3BE JUMPI PUSH2 0x2A99 PUSH2 0x3A48 JUMP JUMPDEST PUSH1 0xB SLOAD PUSH1 0xFF DUP2 AND ISZERO PUSH2 0x2AD8 JUMPI PUSH1 0xFF NOT AND PUSH1 0xB SSTORE PUSH32 0x5DB9EE0A495BF2E6FF9C91A7834C1BA4FDD244A5E8AA4E537BD38AEAE4B073AA PUSH1 0x20 PUSH1 0x40 MLOAD CALLER DUP2 MSTORE LOG1 STOP JUMPDEST PUSH1 0x40 MLOAD PUSH3 0x461BCD PUSH1 0xE5 SHL DUP2 MSTORE PUSH1 0x20 PUSH1 0x4 DUP3 ADD MSTORE PUSH1 0x14 PUSH1 0x24 DUP3 ADD MSTORE PUSH20 0x14185D5CD8589B194E881B9BDD081C185D5CD959 PUSH1 0x62 SHL PUSH1 0x44 DUP3 ADD MSTORE PUSH1 0x64 SWAP1 REVERT JUMPDEST CALLVALUE PUSH2 0x3BE JUMPI PUSH1 0x0 CALLDATASIZE PUSH1 0x3 NOT ADD SLT PUSH2 0x3BE JUMPI PUSH2 0x2B2D PUSH2 0x3A48 JUMP JUMPDEST SELFBALANCE DUP1 ISZERO PUSH2 0x2B95 JUMPI PUSH1 0xB SLOAD PUSH1 0x0 SWAP2 DUP3 SWAP2 DUP3 SWAP2 DUP3 SWAP2 PUSH1 0x8 SHR PUSH1 0x1 PUSH1 0x1 PUSH1 0xA0 SHL SUB AND GAS CALL PUSH2 0x2B56 PUSH2 0x3F9C JUMP JUMPDEST POP ISZERO PUSH2 0x2B5E JUMPI STOP JUMPDEST PUSH1 0x40 MLOAD PUSH3 0x461BCD PUSH1 0xE5 SHL DUP2 MSTORE PUSH1 0x20 PUSH1 0x4 DUP3 ADD MSTORE PUSH1 0xF PUSH1 0x24 DUP3 ADD MSTORE PUSH15 0x151C985B9CD9995C8819985A5B1959 PUSH1 0x8A SHL PUSH1 0x44 DUP3 ADD MSTORE PUSH1 0x64 SWAP1 REVERT JUMPDEST PUSH1 0x40 MLOAD PUSH3 0x461BCD PUSH1 0xE5 SHL DUP2 MSTORE PUSH1 0x20 PUSH1 0x4 DUP3 ADD MSTORE PUSH1 0x14 PUSH1 0x24 DUP3 ADD MSTORE PUSH20 0x4E6F2066756E647320746F207769746864726177 PUSH1 0x60 SHL PUSH1 0x44 DUP3 ADD MSTORE PUSH1 0x64 SWAP1 REVERT JUMPDEST CALLVALUE PUSH2 0x3BE JUMPI PUSH1 0x40 CALLDATASIZE PUSH1 0x3 NOT ADD SLT PUSH2 0x3BE JUMPI PUSH1 0x4 CALLDATALOAD PUSH2 0x2BED PUSH2 0x362E JUMP JUMPDEST PUSH1 0x0 DUP3 DUP2 MSTORE PUSH1 0x2 PUSH1 0x20 MSTORE PUSH1 0x40 SWAP1 KECCAK256 SLOAD PUSH2 0x2C10 SWAP1 PUSH1 0x1 PUSH1 0x1 PUSH1 0xA0 SHL SUB AND ISZERO ISZERO PUSH2 0x4207 JUMP JUMPDEST PUSH2 0x2C19 DUP3 PUSH2 0x3B66 JUMP JUMPDEST PUSH1 0x1 PUSH1 0x1 PUSH1 0xA0 SHL SUB SWAP2 SWAP1 PUSH2 0x2C30 SWAP1 DUP4 AND CALLER EQ PUSH2 0x47FB JUMP JUMPDEST AND SWAP1 DUP2 ISZERO PUSH2 0x2CF1 JUMPI DUP1 PUSH1 0x0 MSTORE PUSH1 0xF PUSH1 0x20 MSTORE PUSH1 0x40 PUSH1 0x0 KECCAK256 PUSH1 0x2 PUSH1 0xFF PUSH1 0xB DUP4 ADD SLOAD AND PUSH2 0x2C59 DUP2 PUSH2 0x360E JUMP JUMPDEST EQ PUSH2 0x2CAC JUMPI PUSH1 0xD DUP2 PUSH1 0x9 PUSH1 0x0 SWAP4 ADD PUSH1 0x1 PUSH1 0xA0 SHL DUP7 PUSH11 0xFFFFFFFFFFFFFFFFFFFFFF PUSH1 0xA8 SHL DUP4 SLOAD AND OR OR SWAP1 SSTORE ADD SSTORE PUSH32 0x765C708A768252802C2DDE478826B73DF22134EBA7D9BA3C8C4CC98149B2ECDE PUSH1 0x0 DUP1 LOG3 STOP JUMPDEST PUSH1 0x40 MLOAD PUSH3 0x461BCD PUSH1 0xE5 SHL DUP2 MSTORE PUSH1 0x20 PUSH1 0x4 DUP3 ADD MSTORE PUSH1 0x17 PUSH1 0x24 DUP3 ADD MSTORE PUSH32 0x4167656E7420696E20637269746963616C207374617465000000000000000000 PUSH1 0x44 DUP3 ADD MSTORE PUSH1 0x64 SWAP1 REVERT JUMPDEST PUSH1 0x40 MLOAD PUSH3 0x461BCD PUSH1 0xE5 SHL DUP2 MSTORE PUSH1 0x20 PUSH1 0x4 DUP3 ADD MSTORE PUSH1 0x14 PUSH1 0x24 DUP3 ADD MSTORE PUSH20 0x125B9D985B1A59081859D95B9D081DD85B1B195D PUSH1 0x62 SHL PUSH1 0x44 DUP3 ADD MSTORE PUSH1 0x64 SWAP1 REVERT JUMPDEST CALLVALUE PUSH2 0x3BE JUMPI PUSH1 0x40 CALLDATASIZE PUSH1 0x3 NOT ADD SLT PUSH2 0x3BE JUMPI PUSH1 0x20 PUSH2 0x1F92 PUSH2 0x2D4B PUSH2 0x3618 JUMP JUMPDEST PUSH1 0x24 CALLDATALOAD SWAP1 PUSH2 0x4142 JUMP JUMPDEST CALLVALUE PUSH2 0x3BE JUMPI PUSH1 0x20 CALLDATASIZE PUSH1 0x3 NOT ADD SLT PUSH2 0x3BE JUMPI PUSH1 0x4 CALLDATALOAD PUSH1 0x5 DUP2 LT ISZERO PUSH2 0x3BE JUMPI PUSH2 0xA5A PUSH1 0x20 SWAP2 PUSH2 0x368F JUMP JUMPDEST CALLVALUE PUSH2 0x3BE JUMPI PUSH2 0x2D8A CALLDATASIZE PUSH2 0x3679 JUMP JUMPDEST SWAP1 POP PUSH1 0x1 DUP1 PUSH1 0xA0 SHL SUB PUSH1 0x17 SLOAD AND PUSH2 0x1F4 SWAP2 DUP3 DUP2 MUL SWAP3 DUP2 DUP5 DIV EQ SWAP1 ISZERO OR ISZERO PUSH2 0x944 JUMPI PUSH2 0x2710 PUSH1 0x40 SWAP3 DUP4 MLOAD SWAP3 DUP4 MSTORE DIV PUSH1 0x20 DUP3 ADD MSTORE RETURN JUMPDEST CALLVALUE PUSH2 0x3BE JUMPI PUSH2 0x416 PUSH2 0x2DCF CALLDATASIZE PUSH2 0x3644 JUMP JUMPDEST SWAP2 PUSH2 0x2DDD PUSH2 0xCE0 DUP5 CALLER PUSH2 0x3CA0 JUMP JUMPDEST PUSH2 0x3D68 JUMP JUMPDEST CALLVALUE PUSH2 0x3BE JUMPI PUSH1 0x0 CALLDATASIZE PUSH1 0x3 NOT ADD SLT PUSH2 0x3BE JUMPI PUSH1 0x20 PUSH1 0x8 SLOAD PUSH1 0x40 MLOAD SWAP1 DUP2 MSTORE RETURN JUMPDEST CALLVALUE PUSH2 0x3BE JUMPI PUSH1 0x40 CALLDATASIZE PUSH1 0x3 NOT ADD SLT PUSH2 0x3BE JUMPI PUSH2 0x2E19 PUSH2 0x3618 JUMP JUMPDEST PUSH1 0x24 CALLDATALOAD SWAP1 PUSH1 0x1 PUSH1 0x1 PUSH1 0xA0 SHL SUB DUP1 DUP1 PUSH2 0x2E30 DUP6 PUSH2 0x3B66 JUMP JUMPDEST AND SWAP3 AND SWAP2 DUP1 DUP4 EQ PUSH2 0x2F2B JUMPI DUP1 CALLER EQ SWAP1 DUP2 ISZERO PUSH2 0x2F06 JUMPI JUMPDEST POP ISZERO PUSH2 0x2E9B JUMPI PUSH1 0x0 DUP4 DUP2 MSTORE PUSH1 0x4 PUSH1 0x20 MSTORE PUSH1 0x40 SWAP1 KECCAK256 DUP1 SLOAD PUSH1 0x1 PUSH1 0x1 PUSH1 0xA0 SHL SUB NOT AND DUP4 OR SWAP1 SSTORE PUSH2 0x2E73 DUP4 PUSH2 0x3B66 JUMP JUMPDEST AND PUSH32 0x8C5BE1E5EBEC7D5BD14F71427D1E84F3DD0314C0F7B2291E5B200AC8C7C3B925 PUSH1 0x0 DUP1 LOG4 STOP JUMPDEST PUSH1 0x40 MLOAD PUSH3 0x461BCD PUSH1 0xE5 SHL DUP2 MSTORE PUSH1 0x20 PUSH1 0x4 DUP3 ADD MSTORE PUSH1 0x3D PUSH1 0x24 DUP3 ADD MSTORE PUSH32 0x4552433732313A20617070726F76652063616C6C6572206973206E6F7420746F PUSH1 0x44 DUP3 ADD MSTORE PUSH32 0x6B656E206F776E6572206F7220617070726F76656420666F7220616C6C000000 PUSH1 0x64 DUP3 ADD MSTORE PUSH1 0x84 SWAP1 REVERT JUMPDEST SWAP1 POP PUSH1 0x0 MSTORE PUSH1 0x5 PUSH1 0x20 MSTORE PUSH1 0x40 PUSH1 0x0 KECCAK256 CALLER PUSH1 0x0 MSTORE PUSH1 0x20 MSTORE PUSH1 0xFF PUSH1 0x40 PUSH1 0x0 KECCAK256 SLOAD AND DUP5 PUSH2 0x2E46 JUMP JUMPDEST PUSH1 0x40 MLOAD PUSH3 0x461BCD PUSH1 0xE5 SHL DUP2 MSTORE PUSH1 0x20 PUSH1 0x4 DUP3 ADD MSTORE PUSH1 0x21 PUSH1 0x24 DUP3 ADD MSTORE PUSH32 0x4552433732313A20617070726F76616C20746F2063757272656E74206F776E65 PUSH1 0x44 DUP3 ADD MSTORE PUSH1 0x39 PUSH1 0xF9 SHL PUSH1 0x64 DUP3 ADD MSTORE PUSH1 0x84 SWAP1 REVERT JUMPDEST CALLVALUE PUSH2 0x3BE JUMPI PUSH1 0x20 CALLDATASIZE PUSH1 0x3 NOT ADD SLT PUSH2 0x3BE JUMPI PUSH1 0x20 PUSH2 0x254C PUSH1 0x4 CALLDATALOAD PUSH2 0x3B89 JUMP JUMPDEST CALLVALUE PUSH2 0x3BE JUMPI PUSH1 0x20 CALLDATASIZE PUSH1 0x3 NOT ADD SLT PUSH2 0x3BE JUMPI PUSH1 0x4 CALLDATALOAD PUSH1 0x0 DUP2 DUP2 MSTORE PUSH1 0x2 PUSH1 0x20 MSTORE PUSH1 0x40 SWAP1 KECCAK256 SLOAD PUSH2 0x2FCF SWAP1 PUSH1 0x1 PUSH1 0x1 PUSH1 0xA0 SHL SUB AND ISZERO ISZERO PUSH2 0x4207 JUMP JUMPDEST PUSH1 0x0 MSTORE PUSH1 0xF PUSH1 0x20 MSTORE PUSH1 0x20 PUSH1 0xFF PUSH1 0xB PUSH1 0x40 PUSH1 0x0 KECCAK256 ADD SLOAD AND PUSH1 0x40 MLOAD SWAP1 PUSH2 0x25A6 DUP2 PUSH2 0x360E JUMP JUMPDEST CALLVALUE PUSH2 0x3BE JUMPI PUSH1 0x0 CALLDATASIZE PUSH1 0x3 NOT ADD SLT PUSH2 0x3BE JUMPI PUSH1 0x40 MLOAD PUSH1 0x0 DUP1 SLOAD PUSH2 0x3013 DUP2 PUSH2 0x36DA JUMP JUMPDEST DUP1 DUP5 MSTORE SWAP1 PUSH1 0x1 SWAP1 DUP2 DUP2 AND SWAP1 DUP2 ISZERO PUSH2 0xBA3 JUMPI POP PUSH1 0x1 EQ PUSH2 0x303C JUMPI PUSH2 0xAD0 DUP5 PUSH2 0xABC DUP2 DUP7 SUB DUP3 PUSH2 0x3583 JUMP JUMPDEST PUSH1 0x0 DUP1 DUP1 MSTORE SWAP3 POP PUSH32 0x290DECD9548B62A8D60345A988386FC84BA6BC95484008F6362F93160EF3E563 JUMPDEST DUP3 DUP5 LT PUSH2 0x307D JUMPI POP POP POP DUP2 ADD PUSH1 0x20 ADD PUSH2 0xABC DUP3 PUSH2 0xB38 JUMP JUMPDEST DUP1 SLOAD PUSH1 0x20 DUP6 DUP8 ADD DUP2 ADD SWAP2 SWAP1 SWAP2 MSTORE SWAP1 SWAP4 ADD SWAP3 DUP2 ADD PUSH2 0x3065 JUMP JUMPDEST CALLVALUE PUSH2 0x3BE JUMPI PUSH2 0x140 CALLDATASIZE PUSH1 0x3 NOT ADD SLT PUSH2 0x3BE JUMPI PUSH2 0x120 CALLDATASIZE PUSH1 0x23 NOT ADD SLT PUSH2 0x3BE JUMPI PUSH1 0x40 MLOAD PUSH2 0x30C0 DUP2 PUSH2 0x34C3 JUMP JUMPDEST PUSH1 0x24 CALLDATALOAD DUP2 MSTORE PUSH1 0x44 CALLDATALOAD PUSH2 0xFFFF DUP2 AND DUP2 SUB PUSH2 0x3BE JUMPI PUSH1 0x20 DUP3 ADD MSTORE PUSH2 0x30E0 PUSH2 0x35A4 JUMP JUMPDEST PUSH1 0x40 DUP3 ADD MSTORE PUSH1 0x84 CALLDATALOAD PUSH1 0xFF DUP2 AND DUP2 SUB PUSH2 0x3BE JUMPI PUSH1 0x60 DUP3 ADD MSTORE PUSH2 0x30FF PUSH2 0x35B5 JUMP JUMPDEST PUSH1 0x80 DUP3 ADD MSTORE PUSH1 0xC4 CALLDATALOAD PUSH1 0xFF DUP2 AND DUP2 SUB PUSH2 0x3BE JUMPI PUSH1 0xA0 DUP3 ADD MSTORE PUSH1 0xE4 CALLDATALOAD PUSH1 0xFF DUP2 AND DUP2 SUB PUSH2 0x3BE JUMPI PUSH1 0xC0 DUP3 ADD MSTORE PUSH2 0x104 CALLDATALOAD PUSH1 0xFF DUP2 AND DUP2 SUB PUSH2 0x3BE JUMPI PUSH1 0xE0 DUP3 ADD MSTORE PUSH2 0x124 CALLDATALOAD PUSH2 0x100 DUP3 ADD MSTORE CALLER PUSH1 0x0 MSTORE PUSH1 0x12 PUSH1 0x20 MSTORE PUSH1 0xFF PUSH1 0x40 PUSH1 0x0 KECCAK256 SLOAD AND DUP1 ISZERO PUSH2 0x33F6 JUMPI JUMPDEST DUP1 ISZERO PUSH2 0x33DC JUMPI JUMPDEST PUSH2 0x316E SWAP1 PUSH2 0x479B JUMP JUMPDEST PUSH1 0x4 CALLDATALOAD PUSH1 0x0 SWAP1 DUP2 MSTORE PUSH1 0x2 PUSH1 0x20 MSTORE PUSH1 0x40 SWAP1 KECCAK256 SLOAD PUSH2 0x3194 SWAP1 PUSH1 0x1 PUSH1 0x1 PUSH1 0xA0 SHL SUB AND ISZERO ISZERO PUSH2 0x4207 JUMP JUMPDEST PUSH1 0x4 CALLDATALOAD PUSH1 0x0 MSTORE PUSH1 0xF PUSH1 0x20 MSTORE PUSH1 0x40 PUSH1 0x0 KECCAK256 PUSH1 0x0 PUSH1 0xD DUP3 ADD SSTORE DUP2 MLOAD PUSH1 0x4 DUP3 ADD SSTORE PUSH2 0x327B PUSH1 0x5 DUP3 ADD PUSH2 0xFFFF PUSH1 0x20 DUP6 ADD MLOAD AND PUSH2 0xFFFF NOT DUP3 SLOAD AND OR DUP2 SSTORE PUSH2 0x31F3 PUSH2 0xFFFF PUSH1 0x40 DUP7 ADD MLOAD AND DUP3 SWAP1 PUSH4 0xFFFF0000 DUP3 SLOAD SWAP2 PUSH1 0x10 SHL AND SWAP1 PUSH4 0xFFFF0000 NOT AND OR SWAP1 SSTORE JUMP JUMPDEST PUSH1 0x60 DUP5 ADD MLOAD DUP2 SLOAD PUSH7 0xFFFF0000000000 PUSH1 0x80 DUP8 ADD MLOAD PUSH1 0x28 SHL AND SWAP1 PUSH5 0xFF00000000 PUSH1 0xFF PUSH1 0x38 SHL PUSH1 0xA0 DUP10 ADD MLOAD PUSH1 0x38 SHL AND SWAP4 PUSH1 0x20 SHL AND SWAP1 PUSH8 0xFFFFFFFF00000000 NOT AND OR OR OR DUP2 SSTORE PUSH2 0x325C PUSH1 0xFF PUSH1 0xC0 DUP7 ADD MLOAD AND DUP3 SWAP1 PUSH1 0xFF PUSH1 0x40 SHL DUP3 SLOAD SWAP2 PUSH1 0x40 SHL AND SWAP1 PUSH1 0xFF PUSH1 0x40 SHL NOT AND OR SWAP1 SSTORE JUMP JUMPDEST PUSH1 0xE0 DUP5 ADD MLOAD DUP2 SLOAD PUSH1 0xFF PUSH1 0x48 SHL NOT AND PUSH1 0x48 SWAP2 SWAP1 SWAP2 SHL PUSH1 0xFF PUSH1 0x48 SHL AND OR SWAP1 SSTORE JUMP JUMPDEST PUSH1 0x6 PUSH2 0x100 DUP4 ADD MLOAD SWAP2 ADD SSTORE PUSH2 0x3293 PUSH1 0x40 MLOAD DUP1 SWAP3 PUSH2 0x38C0 JUMP JUMPDEST PUSH32 0x159BCC097CD171E4CC7DFC30B0E07B3A430ED510E189CA342E7029ABCFE3E0BA PUSH2 0x120 PUSH1 0x4 CALLDATALOAD SWAP3 LOG2 PUSH1 0x4 CALLDATALOAD PUSH1 0x0 MSTORE PUSH1 0xF PUSH1 0x20 MSTORE PUSH2 0x2710 PUSH2 0x32DA PUSH1 0x4 PUSH1 0x40 PUSH1 0x0 KECCAK256 ADD PUSH2 0x398F JUMP JUMPDEST PUSH1 0x3 PUSH1 0xFF PUSH1 0xC0 DUP4 ADD MLOAD AND LT ISZERO PUSH2 0x33AA JUMPI JUMPDEST PUSH2 0x15E PUSH2 0xFFFF PUSH1 0x40 DUP4 ADD MLOAD AND GT PUSH2 0x3376 JUMPI JUMPDEST PUSH1 0xA PUSH1 0xFF PUSH1 0xE0 DUP4 ADD MLOAD AND LT ISZERO PUSH2 0x3344 JUMPI JUMPDEST MLOAD LT ISZERO PUSH2 0x3317 JUMPI STOP JUMPDEST PUSH2 0x416 PUSH1 0x40 MLOAD PUSH2 0x3326 DUP2 PUSH2 0x3532 JUMP JUMPDEST PUSH1 0x9 DUP2 MSTORE PUSH9 0x574F524B484F525345 PUSH1 0xB8 SHL PUSH1 0x20 DUP3 ADD MSTORE PUSH1 0x4 CALLDATALOAD PUSH2 0x4839 JUMP JUMPDEST PUSH2 0x3371 PUSH1 0x40 MLOAD PUSH2 0x3353 DUP2 PUSH2 0x3532 JUMP JUMPDEST PUSH1 0x9 DUP2 MSTORE PUSH9 0x282620ACA6A0A5A2A9 PUSH1 0xB9 SHL PUSH1 0x20 DUP3 ADD MSTORE PUSH1 0x4 CALLDATALOAD PUSH2 0x4839 JUMP JUMPDEST PUSH2 0x330E JUMP JUMPDEST PUSH2 0x33A5 PUSH1 0x40 MLOAD PUSH2 0x3385 DUP2 PUSH2 0x3532 JUMP JUMPDEST PUSH1 0xB DUP2 MSTORE PUSH11 0x29A822A2A22FA222A6A7A7 PUSH1 0xA9 SHL PUSH1 0x20 DUP3 ADD MSTORE PUSH1 0x4 CALLDATALOAD PUSH2 0x4839 JUMP JUMPDEST PUSH2 0x32FD JUMP JUMPDEST PUSH2 0x33D7 PUSH1 0x40 MLOAD PUSH2 0x33B9 DUP2 PUSH2 0x3532 JUMP JUMPDEST PUSH1 0x9 DUP2 MSTORE PUSH9 0x4841545F545249434B PUSH1 0xB8 SHL PUSH1 0x20 DUP3 ADD MSTORE PUSH1 0x4 CALLDATALOAD PUSH2 0x4839 JUMP JUMPDEST PUSH2 0x32EB JUMP JUMPDEST POP PUSH1 0xB SLOAD CALLER PUSH1 0x8 SWAP2 SWAP1 SWAP2 SHR PUSH1 0x1 PUSH1 0x1 PUSH1 0xA0 SHL SUB AND EQ PUSH2 0x3165 JUMP JUMPDEST POP PUSH1 0x18 SLOAD PUSH1 0x1 PUSH1 0x1 PUSH1 0xA0 SHL SUB AND CALLER EQ PUSH2 0x315E JUMP JUMPDEST CALLVALUE PUSH2 0x3BE JUMPI PUSH1 0x20 CALLDATASIZE PUSH1 0x3 NOT ADD SLT PUSH2 0x3BE JUMPI PUSH1 0x4 CALLDATALOAD SWAP1 PUSH4 0xFFFFFFFF PUSH1 0xE0 SHL DUP3 AND DUP1 SWAP3 SUB PUSH2 0x3BE JUMPI PUSH1 0x20 SWAP2 PUSH4 0x152A902D PUSH1 0xE1 SHL DUP2 EQ SWAP1 DUP2 ISZERO PUSH2 0x344C JUMPI JUMPDEST POP ISZERO ISZERO DUP2 MSTORE RETURN JUMPDEST PUSH4 0x24832483 PUSH1 0xE1 SHL DUP2 EQ SWAP2 POP DUP2 ISZERO PUSH2 0x3466 JUMPI JUMPDEST POP DUP4 PUSH2 0x3445 JUMP JUMPDEST PUSH4 0x780E9D63 PUSH1 0xE0 SHL DUP2 EQ SWAP2 POP DUP2 ISZERO PUSH2 0x3480 JUMPI JUMPDEST POP DUP4 PUSH2 0x345F JUMP JUMPDEST PUSH4 0x80AC58CD PUSH1 0xE0 SHL DUP2 EQ SWAP2 POP DUP2 ISZERO PUSH2 0x34B2 JUMPI JUMPDEST DUP2 ISZERO PUSH2 0x34A1 JUMPI JUMPDEST POP DUP4 PUSH2 0x3479 JUMP JUMPDEST PUSH4 0x1FFC9A7 PUSH1 0xE0 SHL EQ SWAP1 POP DUP4 PUSH2 0x349A JUMP JUMPDEST PUSH4 0x5B5E139F PUSH1 0xE0 SHL DUP2 EQ SWAP2 POP PUSH2 0x3493 JUMP JUMPDEST PUSH2 0x120 DUP2 ADD SWAP1 DUP2 LT PUSH1 0x1 PUSH1 0x1 PUSH1 0x40 SHL SUB DUP3 GT OR PUSH2 0x1AB5 JUMPI PUSH1 0x40 MSTORE JUMP JUMPDEST PUSH1 0x80 DUP2 ADD SWAP1 DUP2 LT PUSH1 0x1 PUSH1 0x1 PUSH1 0x40 SHL SUB DUP3 GT OR PUSH2 0x1AB5 JUMPI PUSH1 0x40 MSTORE JUMP JUMPDEST PUSH2 0x100 DUP2 ADD SWAP1 DUP2 LT PUSH1 0x1 PUSH1 0x1 PUSH1 0x40 SHL SUB DUP3 GT OR PUSH2 0x1AB5 JUMPI PUSH1 0x40 MSTORE JUMP JUMPDEST PUSH2 0x1A0 DUP2 ADD SWAP1 DUP2 LT PUSH1 0x1 PUSH1 0x1 PUSH1 0x40 SHL SUB DUP3 GT OR PUSH2 0x1AB5 JUMPI PUSH1 0x40 MSTORE JUMP JUMPDEST PUSH1 0x40 DUP2 ADD SWAP1 DUP2 LT PUSH1 0x1 PUSH1 0x1 PUSH1 0x40 SHL SUB DUP3 GT OR PUSH2 0x1AB5 JUMPI PUSH1 0x40 MSTORE JUMP JUMPDEST PUSH1 0x20 DUP2 ADD SWAP1 DUP2 LT PUSH1 0x1 PUSH1 0x1 PUSH1 0x40 SHL SUB DUP3 GT OR PUSH2 0x1AB5 JUMPI PUSH1 0x40 MSTORE JUMP JUMPDEST PUSH1 0x60 DUP2 ADD SWAP1 DUP2 LT PUSH1 0x1 PUSH1 0x1 PUSH1 0x40 SHL SUB DUP3 GT OR PUSH2 0x1AB5 JUMPI PUSH1 0x40 MSTORE JUMP JUMPDEST SWAP1 PUSH1 0x1F DUP1 NOT SWAP2 ADD AND DUP2 ADD SWAP1 DUP2 LT PUSH1 0x1 PUSH1 0x1 PUSH1 0x40 SHL SUB DUP3 GT OR PUSH2 0x1AB5 JUMPI PUSH1 0x40 MSTORE JUMP JUMPDEST PUSH1 0x64 CALLDATALOAD SWAP1 PUSH2 0xFFFF DUP3 AND DUP3 SUB PUSH2 0x3BE JUMPI JUMP JUMPDEST PUSH1 0xA4 CALLDATALOAD SWAP1 PUSH2 0xFFFF DUP3 AND DUP3 SUB PUSH2 0x3BE JUMPI JUMP JUMPDEST PUSH1 0x0 JUMPDEST DUP4 DUP2 LT PUSH2 0x35D9 JUMPI POP POP PUSH1 0x0 SWAP2 ADD MSTORE JUMP JUMPDEST DUP2 DUP2 ADD MLOAD DUP4 DUP3 ADD MSTORE PUSH1 0x20 ADD PUSH2 0x35C9 JUMP JUMPDEST SWAP1 PUSH1 0x20 SWAP2 PUSH2 0x3602 DUP2 MLOAD DUP1 SWAP3 DUP2 DUP6 MSTORE DUP6 DUP1 DUP7 ADD SWAP2 ADD PUSH2 0x35C6 JUMP JUMPDEST PUSH1 0x1F ADD PUSH1 0x1F NOT AND ADD ADD SWAP1 JUMP JUMPDEST PUSH1 0x4 GT ISZERO PUSH2 0x1ACB JUMPI JUMP JUMPDEST PUSH1 0x4 CALLDATALOAD SWAP1 PUSH1 0x1 PUSH1 0x1 PUSH1 0xA0 SHL SUB DUP3 AND DUP3 SUB PUSH2 0x3BE JUMPI JUMP JUMPDEST PUSH1 0x24 CALLDATALOAD SWAP1 PUSH1 0x1 PUSH1 0x1 PUSH1 0xA0 SHL SUB DUP3 AND DUP3 SUB PUSH2 0x3BE JUMPI JUMP JUMPDEST PUSH1 0x60 SWAP1 PUSH1 0x3 NOT ADD SLT PUSH2 0x3BE JUMPI PUSH1 0x1 PUSH1 0x1 PUSH1 0xA0 SHL SUB SWAP1 PUSH1 0x4 CALLDATALOAD DUP3 DUP2 AND DUP2 SUB PUSH2 0x3BE JUMPI SWAP2 PUSH1 0x24 CALLDATALOAD SWAP1 DUP2 AND DUP2 SUB PUSH2 0x3BE JUMPI SWAP1 PUSH1 0x44 CALLDATALOAD SWAP1 JUMP JUMPDEST PUSH1 0x40 SWAP1 PUSH1 0x3 NOT ADD SLT PUSH2 0x3BE JUMPI PUSH1 0x4 CALLDATALOAD SWAP1 PUSH1 0x24 CALLDATALOAD SWAP1 JUMP JUMPDEST PUSH1 0x5 DUP2 LT ISZERO PUSH2 0x1ACB JUMPI PUSH1 0x0 MSTORE PUSH1 0x14 PUSH1 0x20 MSTORE PUSH1 0x40 PUSH1 0x0 KECCAK256 SWAP1 JUMP JUMPDEST PUSH1 0x5 DUP2 LT ISZERO PUSH2 0x1ACB JUMPI PUSH1 0x0 MSTORE PUSH1 0x15 PUSH1 0x20 MSTORE PUSH1 0x40 PUSH1 0x0 KECCAK256 SWAP1 JUMP JUMPDEST PUSH1 0x5 DUP2 LT ISZERO PUSH2 0x1ACB JUMPI PUSH1 0x0 MSTORE PUSH1 0x13 PUSH1 0x20 MSTORE PUSH1 0x40 PUSH1 0x0 KECCAK256 SWAP1 JUMP JUMPDEST SWAP1 PUSH1 0x1 DUP3 DUP2 SHR SWAP3 AND DUP1 ISZERO PUSH2 0x370A JUMPI JUMPDEST PUSH1 0x20 DUP4 LT EQ PUSH2 0x36F4 JUMPI JUMP JUMPDEST PUSH4 0x4E487B71 PUSH1 0xE0 SHL PUSH1 0x0 MSTORE PUSH1 0x22 PUSH1 0x4 MSTORE PUSH1 0x24 PUSH1 0x0 REVERT JUMPDEST SWAP2 PUSH1 0x7F AND SWAP2 PUSH2 0x36E9 JUMP JUMPDEST SWAP1 PUSH1 0x40 MLOAD SWAP2 DUP3 PUSH1 0x0 DUP3 SLOAD SWAP3 PUSH2 0x3728 DUP5 PUSH2 0x36DA JUMP JUMPDEST SWAP1 DUP2 DUP5 MSTORE PUSH1 0x1 SWAP5 DUP6 DUP2 AND SWAP1 DUP2 PUSH1 0x0 EQ PUSH2 0x3797 JUMPI POP PUSH1 0x1 EQ PUSH2 0x3754 JUMPI JUMPDEST POP POP PUSH2 0x3752 SWAP3 POP SUB DUP4 PUSH2 0x3583 JUMP JUMPDEST JUMP JUMPDEST SWAP1 SWAP4 SWAP2 POP PUSH1 0x0 MSTORE PUSH1 0x20 SWAP1 DUP2 PUSH1 0x0 KECCAK256 SWAP4 PUSH1 0x0 SWAP2 JUMPDEST DUP2 DUP4 LT PUSH2 0x377F JUMPI POP POP PUSH2 0x3752 SWAP4 POP DUP3 ADD ADD CODESIZE DUP1 PUSH2 0x3744 JUMP JUMPDEST DUP6 SLOAD DUP9 DUP5 ADD DUP6 ADD MSTORE SWAP5 DUP6 ADD SWAP5 DUP8 SWAP5 POP SWAP2 DUP4 ADD SWAP2 PUSH2 0x3767 JUMP JUMPDEST SWAP2 POP POP PUSH2 0x3752 SWAP5 POP PUSH1 0x20 SWAP3 POP PUSH1 0xFF NOT AND DUP3 DUP5 ADD MSTORE ISZERO ISZERO PUSH1 0x5 SHL DUP3 ADD ADD CODESIZE DUP1 PUSH2 0x3744 JUMP JUMPDEST PUSH1 0x1 PUSH1 0x1 PUSH1 0x40 SHL SUB DUP2 GT PUSH2 0x1AB5 JUMPI PUSH1 0x1F ADD PUSH1 0x1F NOT AND PUSH1 0x20 ADD SWAP1 JUMP JUMPDEST SWAP3 SWAP2 SWAP3 PUSH2 0x37E1 DUP3 PUSH2 0x37BA JUMP JUMPDEST SWAP2 PUSH2 0x37EF PUSH1 0x40 MLOAD SWAP4 DUP5 PUSH2 0x3583 JUMP JUMPDEST DUP3 SWAP5 DUP2 DUP5 MSTORE DUP2 DUP4 ADD GT PUSH2 0x3BE JUMPI DUP3 DUP2 PUSH1 0x20 SWAP4 DUP5 PUSH1 0x0 SWAP7 ADD CALLDATACOPY ADD ADD MSTORE JUMP JUMPDEST SWAP1 DUP1 PUSH1 0x1F DUP4 ADD SLT ISZERO PUSH2 0x3BE JUMPI DUP2 PUSH1 0x20 PUSH2 0x3827 SWAP4 CALLDATALOAD SWAP2 ADD PUSH2 0x37D5 JUMP JUMPDEST SWAP1 JUMP JUMPDEST PUSH1 0x24 CALLDATALOAD SWAP1 DUP2 ISZERO ISZERO DUP3 SUB PUSH2 0x3BE JUMPI JUMP JUMPDEST PUSH1 0x40 SWAP1 PUSH1 0x3 NOT ADD SLT PUSH2 0x3BE JUMPI PUSH1 0x4 CALLDATALOAD PUSH1 0x5 DUP2 LT ISZERO PUSH2 0x3BE JUMPI SWAP1 PUSH1 0x24 CALLDATALOAD SWAP1 JUMP JUMPDEST SWAP1 PUSH1 0x5 DUP3 LT ISZERO PUSH2 0x1ACB JUMPI MSTORE JUMP JUMPDEST PUSH1 0xE0 DUP1 SWAP2 PUSH2 0xFFFF DUP1 DUP3 MLOAD AND DUP6 MSTORE DUP1 PUSH1 0x20 DUP4 ADD MLOAD AND PUSH1 0x20 DUP7 ADD MSTORE DUP1 PUSH1 0x40 DUP4 ADD MLOAD AND PUSH1 0x40 DUP7 ADD MSTORE DUP1 PUSH1 0x60 DUP4 ADD MLOAD AND PUSH1 0x60 DUP7 ADD MSTORE DUP1 PUSH1 0x80 DUP4 ADD MLOAD AND PUSH1 0x80 DUP7 ADD MSTORE DUP1 PUSH1 0xA0 DUP4 ADD MLOAD AND PUSH1 0xA0 DUP7 ADD MSTORE PUSH1 0xC0 DUP3 ADD MLOAD AND PUSH1 0xC0 DUP6 ADD MSTORE ADD MLOAD SWAP2 ADD MSTORE JUMP JUMPDEST DUP1 MLOAD DUP3 MSTORE PUSH2 0xFFFF DUP1 PUSH1 0x20 DUP4 ADD MLOAD AND PUSH1 0x20 DUP5 ADD MSTORE DUP1 PUSH1 0x40 DUP4 ADD MLOAD AND PUSH1 0x40 DUP5 ADD MSTORE PUSH1 0xFF PUSH1 0x60 DUP4 ADD MLOAD AND PUSH1 0x60 DUP5 ADD MSTORE PUSH1 0x80 DUP3 ADD MLOAD AND PUSH1 0x80 DUP4 ADD MSTORE PUSH1 0xFF PUSH1 0xA0 DUP3 ADD MLOAD AND PUSH1 0xA0 DUP4 ADD MSTORE PUSH1 0xFF PUSH1 0xC0 DUP3 ADD MLOAD AND PUSH1 0xC0 DUP4 ADD MSTORE PUSH1 0xFF PUSH1 0xE0 DUP3 ADD MLOAD AND PUSH1 0xE0 DUP4 ADD MSTORE PUSH2 0x100 DUP1 SWAP2 ADD MLOAD SWAP2 ADD MSTORE JUMP JUMPDEST SWAP1 PUSH1 0x40 MLOAD PUSH2 0x3937 DUP2 PUSH2 0x34FA JUMP JUMPDEST PUSH1 0xE0 PUSH1 0x1 DUP3 SWAP5 DUP1 SLOAD PUSH2 0xFFFF SWAP1 DUP2 DUP2 AND DUP7 MSTORE DUP2 DUP2 PUSH1 0x10 SHR AND PUSH1 0x20 DUP8 ADD MSTORE DUP2 DUP2 PUSH1 0x20 SHR AND PUSH1 0x40 DUP8 ADD MSTORE DUP2 DUP2 PUSH1 0x30 SHR AND PUSH1 0x60 DUP8 ADD MSTORE DUP2 DUP2 PUSH1 0x40 SHR AND PUSH1 0x80 DUP8 ADD MSTORE DUP2 DUP2 PUSH1 0x50 SHR AND PUSH1 0xA0 DUP8 ADD MSTORE PUSH1 0x60 SHR AND PUSH1 0xC0 DUP6 ADD MSTORE ADD SLOAD SWAP2 ADD MSTORE JUMP JUMPDEST SWAP1 PUSH1 0x40 MLOAD PUSH2 0x399C DUP2 PUSH2 0x34C3 JUMP JUMPDEST PUSH2 0x100 PUSH1 0x2 DUP3 SWAP5 DUP1 SLOAD DUP5 MSTORE PUSH1 0xFF PUSH1 0x1 DUP3 ADD SLOAD PUSH2 0xFFFF DUP1 DUP3 AND PUSH1 0x20 DUP9 ADD MSTORE DUP1 DUP3 PUSH1 0x10 SHR AND PUSH1 0x40 DUP9 ADD MSTORE DUP3 DUP3 PUSH1 0x20 SHR AND PUSH1 0x60 DUP9 ADD MSTORE DUP2 PUSH1 0x28 SHR AND PUSH1 0x80 DUP8 ADD MSTORE DUP2 DUP2 PUSH1 0x38 SHR AND PUSH1 0xA0 DUP8 ADD MSTORE DUP2 DUP2 PUSH1 0x40 SHR AND PUSH1 0xC0 DUP8 ADD MSTORE PUSH1 0x48 SHR AND PUSH1 0xE0 DUP6 ADD MSTORE ADD SLOAD SWAP2 ADD MSTORE JUMP JUMPDEST DUP1 SLOAD DUP3 LT ISZERO PUSH2 0x3A1B JUMPI PUSH1 0x0 MSTORE PUSH1 0x20 PUSH1 0x0 KECCAK256 SWAP1 PUSH1 0x2 SHL ADD SWAP1 PUSH1 0x0 SWAP1 JUMP JUMPDEST PUSH4 0x4E487B71 PUSH1 0xE0 SHL PUSH1 0x0 MSTORE PUSH1 0x32 PUSH1 0x4 MSTORE PUSH1 0x24 PUSH1 0x0 REVERT JUMPDEST PUSH1 0x1 PUSH1 0x1 PUSH1 0x40 SHL SUB DUP2 GT PUSH2 0x1AB5 JUMPI PUSH1 0x5 SHL PUSH1 0x20 ADD SWAP1 JUMP JUMPDEST PUSH1 0xB SLOAD PUSH1 0x8 SHR PUSH1 0x1 PUSH1 0x1 PUSH1 0xA0 SHL SUB AND CALLER SUB PUSH2 0x3A5F JUMPI JUMP JUMPDEST PUSH1 0x64 PUSH1 0x40 MLOAD PUSH3 0x461BCD PUSH1 0xE5 SHL DUP2 MSTORE PUSH1 0x20 PUSH1 0x4 DUP3 ADD MSTORE PUSH1 0x20 PUSH1 0x24 DUP3 ADD MSTORE PUSH32 0x4F776E61626C653A2063616C6C6572206973206E6F7420746865206F776E6572 PUSH1 0x44 DUP3 ADD MSTORE REVERT JUMPDEST PUSH1 0x1 PUSH1 0x1 PUSH1 0xA0 SHL SUB AND DUP1 ISZERO PUSH2 0x3AC3 JUMPI PUSH1 0x0 MSTORE PUSH1 0x3 PUSH1 0x20 MSTORE PUSH1 0x40 PUSH1 0x0 KECCAK256 SLOAD SWAP1 JUMP JUMPDEST PUSH1 0x40 MLOAD PUSH3 0x461BCD PUSH1 0xE5 SHL DUP2 MSTORE PUSH1 0x20 PUSH1 0x4 DUP3 ADD MSTORE PUSH1 0x29 PUSH1 0x24 DUP3 ADD MSTORE PUSH32 0x4552433732313A2061646472657373207A65726F206973206E6F742061207661 PUSH1 0x44 DUP3 ADD MSTORE PUSH9 0x3634B21037BBB732B9 PUSH1 0xB9 SHL PUSH1 0x64 DUP3 ADD MSTORE PUSH1 0x84 SWAP1 REVERT JUMPDEST ISZERO PUSH2 0x3B21 JUMPI JUMP JUMPDEST PUSH1 0x40 MLOAD PUSH3 0x461BCD PUSH1 0xE5 SHL DUP2 MSTORE PUSH1 0x20 PUSH1 0x4 DUP3 ADD MSTORE PUSH1 0x18 PUSH1 0x24 DUP3 ADD MSTORE PUSH32 0x4552433732313A20696E76616C696420746F6B656E2049440000000000000000 PUSH1 0x44 DUP3 ADD MSTORE PUSH1 0x64 SWAP1 REVERT JUMPDEST PUSH1 0x0 SWAP1 DUP2 MSTORE PUSH1 0x2 PUSH1 0x20 MSTORE PUSH1 0x40 SWAP1 KECCAK256 SLOAD PUSH1 0x1 PUSH1 0x1 PUSH1 0xA0 SHL SUB AND PUSH2 0x3827 DUP2 ISZERO ISZERO PUSH2 0x3B1A JUMP JUMPDEST PUSH1 0x0 DUP2 DUP2 MSTORE PUSH1 0x2 PUSH1 0x20 MSTORE PUSH1 0x40 SWAP1 KECCAK256 SLOAD PUSH2 0x3BAC SWAP1 PUSH1 0x1 PUSH1 0x1 PUSH1 0xA0 SHL SUB AND ISZERO ISZERO PUSH2 0x3B1A JUMP JUMPDEST PUSH1 0x0 SWAP1 DUP2 MSTORE PUSH1 0x4 PUSH1 0x20 MSTORE PUSH1 0x40 SWAP1 KECCAK256 SLOAD PUSH1 0x1 PUSH1 0x1 PUSH1 0xA0 SHL SUB AND SWAP1 JUMP JUMPDEST ISZERO PUSH2 0x3BCE JUMPI JUMP JUMPDEST PUSH1 0x40 MLOAD PUSH3 0x461BCD PUSH1 0xE5 SHL DUP2 MSTORE PUSH1 0x20 PUSH1 0x4 DUP3 ADD MSTORE PUSH1 0x2D PUSH1 0x24 DUP3 ADD MSTORE PUSH32 0x4552433732313A2063616C6C6572206973206E6F7420746F6B656E206F776E65 PUSH1 0x44 DUP3 ADD MSTORE PUSH13 0x1C881BDC88185C1C1C9BDD9959 PUSH1 0x9A SHL PUSH1 0x64 DUP3 ADD MSTORE PUSH1 0x84 SWAP1 REVERT JUMPDEST PUSH1 0x80 SWAP1 PUSH1 0x20 DUP2 MSTORE PUSH1 0x32 PUSH1 0x20 DUP3 ADD MSTORE PUSH32 0x4552433732313A207472616E7366657220746F206E6F6E204552433732315265 PUSH1 0x40 DUP3 ADD MSTORE PUSH18 0x31B2B4BB32B91034B6B83632B6B2B73A32B9 PUSH1 0x71 SHL PUSH1 0x60 DUP3 ADD MSTORE ADD SWAP1 JUMP JUMPDEST ISZERO PUSH2 0x3C83 JUMPI JUMP JUMPDEST PUSH1 0x40 MLOAD PUSH3 0x461BCD PUSH1 0xE5 SHL DUP2 MSTORE DUP1 PUSH2 0x3C9C PUSH1 0x4 DUP3 ADD PUSH2 0x3C29 JUMP JUMPDEST SUB SWAP1 REVERT JUMPDEST SWAP1 PUSH1 0x1 PUSH1 0x1 PUSH1 0xA0 SHL SUB DUP1 DUP1 PUSH2 0x3CB4 DUP5 PUSH2 0x3B66 JUMP JUMPDEST AND SWAP4 AND SWAP2 DUP4 DUP4 EQ SWAP4 DUP5 ISZERO PUSH2 0x3CE7 JUMPI JUMPDEST POP DUP4 ISZERO PUSH2 0x3CD1 JUMPI JUMPDEST POP POP POP SWAP1 JUMP JUMPDEST PUSH2 0x3CDD SWAP2 SWAP3 SWAP4 POP PUSH2 0x3B89 JUMP JUMPDEST AND EQ CODESIZE DUP1 DUP1 PUSH2 0x3CCB JUMP JUMPDEST SWAP1 SWAP4 POP PUSH1 0x0 MSTORE PUSH1 0x5 PUSH1 0x20 MSTORE PUSH1 0x40 PUSH1 0x0 KECCAK256 DUP3 PUSH1 0x0 MSTORE PUSH1 0x20 MSTORE PUSH1 0xFF PUSH1 0x40 PUSH1 0x0 KECCAK256 SLOAD AND SWAP3 CODESIZE PUSH2 0x3CC3 JUMP JUMPDEST ISZERO PUSH2 0x3D15 JUMPI JUMP JUMPDEST PUSH1 0x40 MLOAD PUSH3 0x461BCD PUSH1 0xE5 SHL DUP2 MSTORE PUSH1 0x20 PUSH1 0x4 DUP3 ADD MSTORE PUSH1 0x25 PUSH1 0x24 DUP3 ADD MSTORE PUSH32 0x4552433732313A207472616E736665722066726F6D20696E636F727265637420 PUSH1 0x44 DUP3 ADD MSTORE PUSH5 0x37BBB732B9 PUSH1 0xD9 SHL PUSH1 0x64 DUP3 ADD MSTORE PUSH1 0x84 SWAP1 REVERT JUMPDEST PUSH2 0x3D8C SWAP2 PUSH2 0x3D75 DUP5 PUSH2 0x3B66 JUMP JUMPDEST PUSH1 0x1 PUSH1 0x1 PUSH1 0xA0 SHL SUB SWAP4 DUP5 DUP5 AND SWAP4 SWAP2 DUP6 AND DUP5 EQ PUSH2 0x3D0E JUMP JUMPDEST DUP4 DUP3 AND SWAP4 DUP5 ISZERO PUSH2 0x3F4B JUMPI DUP4 SWAP2 PUSH2 0x3DA0 PUSH2 0x470B JUMP JUMPDEST DUP3 PUSH2 0x3EA8 JUMPI POP SWAP1 POP PUSH1 0x8 SLOAD SWAP1 DUP6 PUSH1 0x0 MSTORE PUSH1 0x9 PUSH1 0x20 MSTORE DUP2 PUSH1 0x40 PUSH1 0x0 KECCAK256 SSTORE PUSH1 0x1 PUSH1 0x40 SHL DUP3 LT ISZERO PUSH2 0x1AB5 JUMPI PUSH2 0x3DFA SWAP3 PUSH2 0x3DE1 DUP8 PUSH2 0x14C9 DUP6 PUSH1 0x1 DUP10 SWAP8 ADD PUSH1 0x8 SSTORE PUSH2 0x41D0 JUMP JUMPDEST DUP3 DUP7 SUB PUSH2 0x3E75 JUMPI JUMPDEST POP PUSH2 0x3DF3 DUP7 PUSH2 0x3B66 JUMP JUMPDEST AND EQ PUSH2 0x3D0E JUMP JUMPDEST PUSH32 0xDDF252AD1BE2C89B69C2B068FC378DAA952BA7F163C4A11628F55A4DF523B3EF PUSH1 0x0 DUP5 DUP2 MSTORE PUSH1 0x4 PUSH1 0x20 MSTORE PUSH1 0x40 DUP2 KECCAK256 PUSH1 0x1 PUSH1 0x1 PUSH1 0x60 SHL SUB PUSH1 0xA0 SHL SWAP1 DUP2 DUP2 SLOAD AND SWAP1 SSTORE DUP4 DUP3 MSTORE PUSH1 0x3 PUSH1 0x20 MSTORE PUSH1 0x40 DUP3 KECCAK256 PUSH1 0x0 NOT DUP2 SLOAD ADD SWAP1 SSTORE DUP5 DUP3 MSTORE PUSH1 0x40 DUP3 KECCAK256 PUSH1 0x1 DUP2 SLOAD ADD SWAP1 SSTORE DUP6 DUP3 MSTORE PUSH1 0x2 PUSH1 0x20 MSTORE DUP5 PUSH1 0x40 DUP4 KECCAK256 SWAP2 DUP3 SLOAD AND OR SWAP1 SSTORE DUP1 LOG4 JUMP JUMPDEST PUSH2 0x3E7E SWAP1 PUSH2 0x3AA3 JUMP JUMPDEST PUSH1 0x40 PUSH1 0x0 DUP8 DUP2 MSTORE PUSH1 0x6 PUSH1 0x20 MSTORE DUP2 DUP2 KECCAK256 DUP4 DUP3 MSTORE PUSH1 0x20 MSTORE DUP9 DUP3 DUP3 KECCAK256 SSTORE DUP9 DUP2 MSTORE PUSH1 0x7 PUSH1 0x20 MSTORE KECCAK256 SSTORE CODESIZE PUSH2 0x3DE9 JUMP JUMPDEST DUP6 DUP4 SUB PUSH2 0x3EBA JUMPI JUMPDEST POP PUSH2 0x3DFA SWAP3 PUSH2 0x3DE1 JUMP JUMPDEST PUSH2 0x3EC5 SWAP2 SWAP3 POP PUSH2 0x3AA3 JUMP JUMPDEST PUSH1 0x0 NOT DUP2 ADD SWAP2 SWAP1 DUP3 GT PUSH2 0x944 JUMPI PUSH2 0x3DFA SWAP3 DUP5 SWAP3 PUSH1 0x0 SWAP1 DUP9 DUP3 MSTORE PUSH1 0x20 SWAP1 PUSH1 0x7 DUP3 MSTORE PUSH1 0x40 SWAP2 DUP3 DUP5 KECCAK256 SLOAD DUP3 DUP2 SUB PUSH2 0x3F14 JUMPI JUMPDEST POP DUP11 DUP5 MSTORE DUP4 DUP4 DUP2 KECCAK256 SSTORE DUP7 DUP5 MSTORE PUSH1 0x6 DUP2 MSTORE DUP3 DUP5 KECCAK256 SWAP2 DUP5 MSTORE MSTORE DUP2 KECCAK256 SSTORE SWAP3 PUSH2 0x3EB0 JUMP JUMPDEST DUP8 DUP6 MSTORE PUSH1 0x6 DUP3 MSTORE DUP4 DUP6 KECCAK256 DUP4 DUP7 MSTORE DUP3 MSTORE DUP4 DUP6 KECCAK256 SLOAD DUP9 DUP7 MSTORE PUSH1 0x6 DUP4 MSTORE DUP5 DUP7 KECCAK256 DUP3 DUP8 MSTORE DUP4 MSTORE DUP1 DUP6 DUP8 KECCAK256 SSTORE DUP6 MSTORE PUSH1 0x7 DUP3 MSTORE DUP4 DUP6 KECCAK256 SSTORE CODESIZE PUSH2 0x3EF4 JUMP JUMPDEST PUSH1 0x40 MLOAD PUSH3 0x461BCD PUSH1 0xE5 SHL DUP2 MSTORE PUSH1 0x20 PUSH1 0x4 DUP3 ADD MSTORE PUSH1 0x24 DUP1 DUP3 ADD MSTORE PUSH32 0x4552433732313A207472616E7366657220746F20746865207A65726F20616464 PUSH1 0x44 DUP3 ADD MSTORE PUSH4 0x72657373 PUSH1 0xE0 SHL PUSH1 0x64 DUP3 ADD MSTORE PUSH1 0x84 SWAP1 REVERT JUMPDEST RETURNDATASIZE ISZERO PUSH2 0x3FC7 JUMPI RETURNDATASIZE SWAP1 PUSH2 0x3FAD DUP3 PUSH2 0x37BA JUMP JUMPDEST SWAP2 PUSH2 0x3FBB PUSH1 0x40 MLOAD SWAP4 DUP5 PUSH2 0x3583 JUMP JUMPDEST DUP3 MSTORE RETURNDATASIZE PUSH1 0x0 PUSH1 0x20 DUP5 ADD RETURNDATACOPY JUMP JUMPDEST PUSH1 0x60 SWAP1 JUMP JUMPDEST SWAP1 SWAP2 PUSH1 0x0 SWAP2 DUP1 EXTCODESIZE ISZERO PUSH2 0x40BE JUMPI PUSH2 0x4017 PUSH1 0x20 SWAP2 DUP5 SWAP4 PUSH1 0x40 MLOAD SWAP5 DUP6 DUP1 SWAP5 DUP2 SWAP4 PUSH4 0xA85BD01 PUSH1 0xE1 SHL SWAP11 DUP12 DUP5 MSTORE CALLER PUSH1 0x4 DUP6 ADD MSTORE DUP5 PUSH1 0x24 DUP6 ADD MSTORE PUSH1 0x44 DUP5 ADD MSTORE PUSH1 0x80 PUSH1 0x64 DUP5 ADD MSTORE PUSH1 0x84 DUP4 ADD SWAP1 PUSH2 0x35E9 JUMP JUMPDEST SUB SWAP3 PUSH1 0x1 PUSH1 0x1 PUSH1 0xA0 SHL SUB AND GAS CALL SWAP1 DUP3 SWAP1 DUP3 PUSH2 0x406F JUMPI JUMPDEST POP POP PUSH2 0x4061 JUMPI PUSH2 0x403B PUSH2 0x3F9C JUMP JUMPDEST DUP1 MLOAD SWAP1 DUP2 PUSH2 0x405C JUMPI PUSH1 0x40 MLOAD PUSH3 0x461BCD PUSH1 0xE5 SHL DUP2 MSTORE DUP1 PUSH2 0x3C9C PUSH1 0x4 DUP3 ADD PUSH2 0x3C29 JUMP JUMPDEST PUSH1 0x20 ADD REVERT JUMPDEST PUSH1 0x1 PUSH1 0x1 PUSH1 0xE0 SHL SUB NOT AND EQ SWAP1 JUMP JUMPDEST SWAP1 SWAP2 SWAP3 POP PUSH1 0x20 DUP2 RETURNDATASIZE DUP3 GT PUSH2 0x40B6 JUMPI JUMPDEST DUP2 PUSH2 0x408B PUSH1 0x20 SWAP4 DUP4 PUSH2 0x3583 JUMP JUMPDEST DUP2 ADD SUB SLT PUSH2 0x40B2 JUMPI MLOAD SWAP1 PUSH1 0x1 PUSH1 0x1 PUSH1 0xE0 SHL SUB NOT DUP3 AND DUP3 SUB PUSH2 0x40AF JUMPI POP SWAP1 CODESIZE DUP1 PUSH2 0x402D JUMP JUMPDEST DUP1 REVERT JUMPDEST POP DUP1 REVERT JUMPDEST RETURNDATASIZE SWAP2 POP PUSH2 0x407E JUMP JUMPDEST POP POP POP POP PUSH1 0x1 SWAP1 JUMP JUMPDEST SWAP2 SWAP3 PUSH1 0x0 SWAP3 SWAP2 SWAP1 DUP2 EXTCODESIZE ISZERO PUSH2 0x4138 JUMPI PUSH1 0x20 SWAP2 PUSH2 0x411D SWAP2 DUP6 PUSH1 0x40 MLOAD SWAP6 DUP7 DUP1 SWAP6 DUP2 SWAP5 PUSH4 0xA85BD01 PUSH1 0xE1 SHL SWAP12 DUP13 DUP5 MSTORE CALLER PUSH1 0x4 DUP6 ADD MSTORE PUSH1 0x1 DUP1 PUSH1 0xA0 SHL SUB DUP1 SWAP6 AND PUSH1 0x24 DUP6 ADD MSTORE PUSH1 0x44 DUP5 ADD MSTORE PUSH1 0x80 PUSH1 0x64 DUP5 ADD MSTORE PUSH1 0x84 DUP4 ADD SWAP1 PUSH2 0x35E9 JUMP JUMPDEST SUB SWAP4 AND GAS CALL SWAP1 DUP3 SWAP1 DUP3 PUSH2 0x406F JUMPI POP POP PUSH2 0x4061 JUMPI PUSH2 0x403B PUSH2 0x3F9C JUMP JUMPDEST POP POP POP POP POP PUSH1 0x1 SWAP1 JUMP JUMPDEST PUSH2 0x414B DUP2 PUSH2 0x3AA3 JUMP JUMPDEST DUP3 LT ISZERO PUSH2 0x4177 JUMPI PUSH1 0x1 DUP1 PUSH1 0xA0 SHL SUB AND PUSH1 0x0 MSTORE PUSH1 0x6 PUSH1 0x20 MSTORE PUSH1 0x40 PUSH1 0x0 KECCAK256 SWAP1 PUSH1 0x0 MSTORE PUSH1 0x20 MSTORE PUSH1 0x40 PUSH1 0x0 KECCAK256 SLOAD SWAP1 JUMP JUMPDEST PUSH1 0x40 MLOAD PUSH3 0x461BCD PUSH1 0xE5 SHL DUP2 MSTORE PUSH1 0x20 PUSH1 0x4 DUP3 ADD MSTORE PUSH1 0x2B PUSH1 0x24 DUP3 ADD MSTORE PUSH32 0x455243373231456E756D657261626C653A206F776E657220696E646578206F75 PUSH1 0x44 DUP3 ADD MSTORE PUSH11 0x74206F6620626F756E6473 PUSH1 0xA8 SHL PUSH1 0x64 DUP3 ADD MSTORE PUSH1 0x84 SWAP1 REVERT JUMPDEST PUSH1 0x8 SLOAD DUP2 LT ISZERO PUSH2 0x3A1B JUMPI PUSH1 0x8 PUSH1 0x0 MSTORE PUSH32 0xF3F7A9FE364FAAB93B216DA50A3214154F22A0A2B415B23A84C8169E8B636EE3 ADD SWAP1 PUSH1 0x0 SWAP1 JUMP JUMPDEST ISZERO PUSH2 0x420E JUMPI JUMP JUMPDEST PUSH1 0x40 MLOAD PUSH3 0x461BCD PUSH1 0xE5 SHL DUP2 MSTORE PUSH1 0x20 PUSH1 0x4 DUP3 ADD MSTORE PUSH1 0x14 PUSH1 0x24 DUP3 ADD MSTORE PUSH20 0x151BDAD95B88191BD95CC81B9BDD08195E1A5CDD PUSH1 0x62 SHL PUSH1 0x44 DUP3 ADD MSTORE PUSH1 0x64 SWAP1 REVERT JUMPDEST PUSH1 0x0 NOT DUP2 EQ PUSH2 0x944 JUMPI PUSH1 0x1 ADD SWAP1 JUMP JUMPDEST SWAP1 PUSH1 0x0 SWAP2 DUP1 DUP4 MSTORE PUSH1 0x20 SWAP1 PUSH1 0xF DUP3 MSTORE PUSH1 0x40 DUP1 DUP6 KECCAK256 PUSH1 0xC DUP2 ADD SWAP1 DUP2 SLOAD PUSH1 0x16 SLOAD DUP2 ADD DUP1 SWAP2 GT PUSH2 0x45D1 JUMPI TIMESTAMP LT DUP1 PUSH2 0x45C3 JUMPI JUMPDEST PUSH2 0x45B4 JUMPI DUP7 SWAP2 DUP4 MLOAD PUSH2 0x4298 DUP2 PUSH2 0x354D JUMP JUMPDEST DUP9 DUP2 MSTORE PUSH1 0x6 DUP4 ADD SLOAD PUSH2 0x1C20 DUP2 ADD DUP1 SWAP2 GT PUSH2 0x45A0 JUMPI SWAP1 DUP7 SWAP8 SWAP9 SWAP10 PUSH32 0x9D369FFF9AEC363082799E0FFCA79F49FDF7EE5AE3454FD5DB6EBD9A09261F58 SWAP8 SWAP3 TIMESTAMP GT PUSH2 0x4544 JUMPI JUMPDEST PUSH1 0xD DUP6 ADD SWAP1 PUSH1 0x5 DUP3 SLOAD LT ISZERO PUSH2 0x44FB JUMPI JUMPDEST DUP11 DUP9 PUSH1 0x9 DUP9 ADD DUP1 SLOAD PUSH1 0xFF DUP2 PUSH1 0xA0 SHR AND DUP1 PUSH2 0x44EA JUMPI JUMPDEST PUSH2 0x4408 JUMPI JUMPDEST POP POP POP POP SWAP2 PUSH1 0xFF SWAP6 SWAP4 SWAP2 PUSH1 0xB SWAP6 SWAP4 DUP9 PUSH1 0x0 EQ PUSH2 0x43A5 JUMPI POP POP DUP5 DUP5 ADD SWAP1 DUP2 SLOAD SWAP2 DUP8 DUP4 AND PUSH2 0x4330 DUP2 PUSH2 0x360E JUMP JUMPDEST ISZERO PUSH2 0x435B JUMPI JUMPDEST POP POP POP POP JUMPDEST TIMESTAMP SWAP1 SSTORE ADD SLOAD AND SWAP5 DUP3 MLOAD SWAP2 PUSH2 0x434E DUP8 PUSH2 0x360E JUMP JUMPDEST DUP7 DUP4 MSTORE ISZERO ISZERO SWAP1 DUP3 ADD MSTORE LOG2 SWAP1 JUMP JUMPDEST PUSH1 0x1 PUSH32 0x5C800C33F0AD1EA8CC92D9D6DE883810D340616472DA40DA5E1CEC36E020CD2F SWAP4 DUP10 NOT AND OR SWAP1 SSTORE DUP12 PUSH2 0x4399 DUP11 MLOAD SWAP3 DUP3 DUP5 SWAP4 DUP5 MSTORE DUP4 ADD SWAP1 PUSH2 0x35E9 JUMP JUMPDEST SUB SWAP1 LOG2 DUP8 CODESIZE DUP1 DUP1 PUSH2 0x4336 JUMP JUMPDEST SWAP2 POP SWAP2 POP DUP5 DUP5 ADD SWAP2 DUP7 DUP4 SLOAD AND PUSH2 0x43BA DUP2 PUSH2 0x360E JUMP JUMPDEST PUSH2 0x43CC JUMPI JUMPDEST SSTORE DUP5 NOT DUP2 SLOAD AND SWAP1 SSTORE PUSH2 0x433B JUMP JUMPDEST PUSH2 0x4403 DUP13 PUSH22 0x105B1B08191A5859DB9BDCDD1A58DCC81C185CDCD959 PUSH1 0x52 SHL DUP12 MLOAD SWAP2 PUSH2 0x43F6 DUP4 PUSH2 0x3532 JUMP JUMPDEST PUSH1 0x16 DUP4 MSTORE DUP3 ADD MSTORE DUP13 PUSH2 0x469F JUMP JUMPDEST PUSH2 0x43BF JUMP JUMPDEST DUP8 PUSH1 0xFF SWAP11 SWAP9 SWAP7 SWAP5 SWAP12 POP PUSH1 0xB SWAP10 SWAP8 POP PUSH32 0x172FFE120C5A99836D395F1FC8F3B426F5CA77708118DCA216BDC34ECF3A69F5 PUSH1 0x1 SWAP7 SWAP5 SWAP7 SWAP13 DUP8 MLOAD PUSH2 0x4448 DUP2 PUSH2 0x3568 JUMP JUMPDEST PUSH1 0x26 DUP2 MSTORE PUSH32 0x4167656E7420656E61626C656420627574206E6F2077616C6C657420636F6E66 DUP3 DUP3 ADD MSTORE PUSH6 0x1A59DD5C9959 PUSH1 0xD2 SHL DUP10 DUP3 ADD MSTORE PUSH2 0x44CE DUP2 SWAP10 PUSH32 0x44697361626C6564206167656E742064756520746F206D697373696E67207761 DUP2 MLOAD SWAP5 PUSH2 0x44B1 DUP7 PUSH2 0x3568 JUMP JUMPDEST PUSH1 0x24 DUP7 MSTORE DUP6 ADD MSTORE PUSH4 0x1B1B195D PUSH1 0xE2 SHL DUP2 DUP6 ADD MSTORE MLOAD SWAP3 DUP4 SWAP3 DUP4 PUSH2 0x45FC JUMP JUMPDEST SUB SWAP1 LOG2 DUP10 PUSH1 0xA0 SHL NOT AND SWAP1 SSTORE SWAP2 SWAP4 SWAP6 POP SWAP2 SWAP4 SWAP6 POP DUP11 DUP9 CODESIZE DUP1 PUSH2 0x4305 JUMP JUMPDEST POP PUSH1 0x1 PUSH1 0x1 PUSH1 0xA0 SHL SUB DUP2 AND ISZERO PUSH2 0x4300 JUMP JUMPDEST DUP8 MLOAD PUSH1 0x1 SWAP8 POP SWAP3 POP PUSH2 0x450C DUP4 PUSH2 0x3532 JUMP JUMPDEST PUSH1 0x1E DUP4 MSTORE PUSH32 0x4D617820636F6E7365637574697665206572726F727320726561636865640000 DUP12 DUP5 ADD MSTORE PUSH2 0x453F DUP4 DUP6 PUSH2 0x4635 JUMP JUMPDEST PUSH2 0x42EB JUMP JUMPDEST SWAP5 POP POP PUSH1 0x1 SWAP4 DUP6 MLOAD PUSH2 0x4555 DUP2 PUSH2 0x3568 JUMP JUMPDEST PUSH1 0x24 DUP2 MSTORE PUSH32 0x5374616C652064617461202D206E6F207570646174657320666F7220322B2068 DUP11 DUP3 ADD MSTORE PUSH4 0x6F757273 PUSH1 0xE0 SHL DUP8 DUP3 ADD MSTORE SWAP1 PUSH1 0xD DUP6 ADD PUSH2 0x4599 DUP2 SLOAD PUSH2 0x424A JUMP JUMPDEST SWAP1 SSTORE PUSH2 0x42DB JUMP JUMPDEST PUSH4 0x4E487B71 PUSH1 0xE0 SHL DUP11 MSTORE PUSH1 0x11 PUSH1 0x4 MSTORE PUSH1 0x24 DUP11 REVERT JUMPDEST PUSH1 0xB ADD SLOAD PUSH1 0xFF AND SWAP6 POP POP POP POP POP JUMP JUMPDEST POP PUSH1 0x5 PUSH1 0xD DUP3 ADD SLOAD LT PUSH2 0x4287 JUMP JUMPDEST PUSH4 0x4E487B71 PUSH1 0xE0 SHL DUP9 MSTORE PUSH1 0x11 PUSH1 0x4 MSTORE PUSH1 0x24 DUP9 REVERT JUMPDEST DUP2 DUP2 LT PUSH2 0x45F0 JUMPI POP POP JUMP JUMPDEST PUSH1 0x0 DUP2 SSTORE PUSH1 0x1 ADD PUSH2 0x45E5 JUMP JUMPDEST SWAP1 SWAP2 PUSH2 0x4613 PUSH2 0x3827 SWAP4 PUSH1 0x40 DUP5 MSTORE PUSH1 0x40 DUP5 ADD SWAP1 PUSH2 0x35E9 JUMP JUMPDEST SWAP2 PUSH1 0x20 DUP2 DUP5 SUB SWAP2 ADD MSTORE PUSH2 0x35E9 JUMP JUMPDEST DUP1 MLOAD DUP3 LT ISZERO PUSH2 0x3A1B JUMPI PUSH1 0x20 SWAP2 PUSH1 0x5 SHL ADD ADD SWAP1 JUMP JUMPDEST SWAP1 PUSH2 0x469A PUSH32 0x5C800C33F0AD1EA8CC92D9D6DE883810D340616472DA40DA5E1CEC36E020CD2F SWAP2 DUP4 PUSH1 0x0 MSTORE PUSH1 0xF PUSH1 0x20 MSTORE PUSH1 0x9 PUSH1 0x40 PUSH1 0x0 KECCAK256 PUSH1 0xB DUP2 ADD PUSH1 0x2 PUSH1 0xFF NOT DUP3 SLOAD AND OR SWAP1 SSTORE ADD PUSH1 0xFF PUSH1 0xA0 SHL NOT DUP2 SLOAD AND SWAP1 SSTORE PUSH1 0x40 MLOAD SWAP2 DUP3 SWAP2 PUSH1 0x20 DUP4 MSTORE PUSH1 0x20 DUP4 ADD SWAP1 PUSH2 0x35E9 JUMP JUMPDEST SUB SWAP1 LOG2 JUMP JUMPDEST SWAP1 DUP2 PUSH1 0x0 MSTORE PUSH1 0xF PUSH1 0x20 MSTORE PUSH1 0x40 PUSH1 0x0 KECCAK256 SWAP2 PUSH32 0x4BFF60F46D7096203E8D6639E7B4F599DB52C1CDA9235691E16EA7DE49432BEE PUSH2 0x46F9 PUSH1 0xB DUP6 ADD SWAP4 PUSH1 0x0 PUSH1 0xD PUSH1 0xFF NOT DUP8 SLOAD AND SWAP8 ADD SSTORE PUSH1 0x40 MLOAD SWAP2 DUP3 SWAP2 PUSH1 0x20 DUP4 MSTORE PUSH1 0x20 DUP4 ADD SWAP1 PUSH2 0x35E9 JUMP JUMPDEST SUB SWAP1 LOG2 SSTORE JUMP JUMPDEST PUSH1 0x5 DUP3 LT ISZERO PUSH2 0x1ACB JUMPI MSTORE JUMP JUMPDEST PUSH1 0xFF PUSH1 0xB SLOAD AND PUSH2 0x4717 JUMPI JUMP JUMPDEST PUSH1 0x40 MLOAD PUSH3 0x461BCD PUSH1 0xE5 SHL DUP2 MSTORE PUSH1 0x20 PUSH1 0x4 DUP3 ADD MSTORE PUSH1 0x10 PUSH1 0x24 DUP3 ADD MSTORE PUSH16 0x14185D5CD8589B194E881C185D5CD959 PUSH1 0x82 SHL PUSH1 0x44 DUP3 ADD MSTORE PUSH1 0x64 SWAP1 REVERT JUMPDEST ISZERO PUSH2 0x4756 JUMPI JUMP JUMPDEST PUSH1 0x40 MLOAD PUSH3 0x461BCD PUSH1 0xE5 SHL DUP2 MSTORE PUSH1 0x20 PUSH1 0x4 DUP3 ADD MSTORE PUSH1 0x1C PUSH1 0x24 DUP3 ADD MSTORE PUSH32 0x4552433732313A20746F6B656E20616C7265616479206D696E74656400000000 PUSH1 0x44 DUP3 ADD MSTORE PUSH1 0x64 SWAP1 REVERT JUMPDEST ISZERO PUSH2 0x47A2 JUMPI JUMP JUMPDEST PUSH1 0x40 MLOAD PUSH3 0x461BCD PUSH1 0xE5 SHL DUP2 MSTORE PUSH1 0x20 PUSH1 0x4 DUP3 ADD MSTORE PUSH1 0x18 PUSH1 0x24 DUP3 ADD MSTORE PUSH32 0x4E6F7420617574686F72697A656420746F207570646174650000000000000000 PUSH1 0x44 DUP3 ADD MSTORE PUSH1 0x64 SWAP1 REVERT JUMPDEST SWAP1 PUSH1 0xFF DUP1 SWAP2 AND SWAP2 AND ADD SWAP1 PUSH1 0xFF DUP3 GT PUSH2 0x944 JUMPI JUMP JUMPDEST ISZERO PUSH2 0x4802 JUMPI JUMP JUMPDEST PUSH1 0x40 MLOAD PUSH3 0x461BCD PUSH1 0xE5 SHL DUP2 MSTORE PUSH1 0x20 PUSH1 0x4 DUP3 ADD MSTORE PUSH1 0xF PUSH1 0x24 DUP3 ADD MSTORE PUSH15 0x2737BA103A37B5B2B71037BBB732B9 PUSH1 0x89 SHL PUSH1 0x44 DUP3 ADD MSTORE PUSH1 0x64 SWAP1 REVERT JUMPDEST SWAP1 PUSH2 0x469A PUSH32 0x6BC4D6C1830C8AFAB502689E580FE13C07EAF372FF08F7DED0F6ADFCFA192383 SWAP2 PUSH1 0x40 MLOAD SWAP2 DUP3 SWAP2 PUSH1 0x20 DUP4 MSTORE PUSH1 0x20 DUP4 ADD SWAP1 PUSH2 0x35E9 JUMP JUMPDEST PUSH1 0x0 DUP2 DUP2 MSTORE PUSH1 0x2 PUSH1 0x20 MSTORE PUSH1 0x40 SWAP1 KECCAK256 SLOAD PUSH1 0x1 PUSH1 0x1 PUSH1 0xA0 SHL SUB AND ISZERO PUSH2 0x4B78 JUMPI PUSH1 0x0 DUP2 DUP2 MSTORE PUSH1 0x20 PUSH1 0xF DUP2 MSTORE PUSH1 0xA SWAP3 PUSH2 0x48AC DUP5 PUSH1 0x40 DUP6 KECCAK256 ADD PUSH2 0x3714 JUMP JUMPDEST DUP1 MLOAD PUSH2 0x4B70 JUMPI POP SWAP1 DUP3 SWAP1 DUP5 DUP4 PUSH27 0x184F03E93FF9F4DAA797ED6E38ED64BF6A1F010000000000000000 DUP2 DUP2 DUP2 LT ISZERO PUSH2 0x4B5F JUMPI JUMPDEST POP POP DUP3 PUSH14 0x4EE2D6D415B85ACEF8100000000 DUP1 DUP4 LT ISZERO PUSH2 0x4B53 JUMPI JUMPDEST POP POP PUSH7 0x2386F26FC10000 DUP1 DUP3 LT ISZERO PUSH2 0x4B46 JUMPI JUMPDEST POP PUSH4 0x5F5E100 DUP1 DUP3 LT ISZERO PUSH2 0x4B39 JUMPI JUMPDEST POP PUSH2 0x2710 DUP1 DUP3 LT ISZERO PUSH2 0x4B2C JUMPI JUMPDEST POP PUSH1 0x64 DUP2 LT ISZERO PUSH2 0x4B1E JUMPI JUMPDEST LT ISZERO PUSH2 0x4B14 JUMPI JUMPDEST PUSH1 0x1 SWAP1 DUP2 DUP4 ADD SWAP6 PUSH2 0x4963 PUSH2 0x494D DUP9 PUSH2 0x37BA JUMP JUMPDEST SWAP8 PUSH2 0x495B PUSH1 0x40 MLOAD SWAP10 DUP11 PUSH2 0x3583 JUMP JUMPDEST DUP1 DUP10 MSTORE PUSH2 0x37BA JUMP JUMPDEST SWAP5 DUP4 PUSH1 0x21 DUP5 DUP11 ADD SWAP7 PUSH1 0x1F NOT DUP1 SWAP10 ADD CALLDATASIZE DUP10 CALLDATACOPY DUP11 ADD ADD SWAP1 JUMPDEST PUSH2 0x4AE5 JUMPI JUMPDEST POP POP POP PUSH1 0x40 MLOAD SWAP6 DUP7 SWAP4 DUP7 SWAP2 PUSH1 0x1A SLOAD PUSH2 0x4995 DUP2 PUSH2 0x36DA JUMP JUMPDEST SWAP1 DUP6 DUP8 DUP3 AND SWAP2 DUP3 PUSH1 0x0 EQ PUSH2 0x4AC6 JUMPI POP POP PUSH1 0x1 EQ PUSH2 0x4A6C JUMPI JUMPDEST POP DUP3 SWAP2 PUSH2 0x49BD SWAP2 MLOAD SWAP4 DUP5 SWAP2 PUSH2 0x35C6 JUMP JUMPDEST ADD SWAP1 DUP6 PUSH1 0x1B SLOAD SWAP4 PUSH2 0x49CD DUP6 PUSH2 0x36DA JUMP JUMPDEST SWAP5 DUP2 DUP2 AND SWAP1 DUP2 ISZERO PUSH2 0x4A4D JUMPI POP PUSH1 0x1 EQ PUSH2 0x49F6 JUMPI JUMPDEST POP POP POP POP POP PUSH2 0x3827 SWAP3 SUB SWAP1 DUP2 ADD DUP4 MSTORE DUP3 PUSH2 0x3583 JUMP JUMPDEST PUSH1 0x1B DUP3 MSTORE PUSH32 0x3AD8AA4F87544323A9D1E5DD902F40C356527A7955687113DB5F9A85AD579DC1 SWAP8 POP JUMPDEST DUP5 DUP3 LT PUSH2 0x4A37 JUMPI POP POP POP ADD SWAP3 POP PUSH2 0x3827 CODESIZE DUP1 DUP1 DUP1 PUSH2 0x49E1 JUMP JUMPDEST DUP8 SLOAD DUP5 DUP4 ADD MSTORE SWAP7 DUP8 ADD SWAP7 DUP9 SWAP6 POP SWAP1 DUP3 ADD SWAP1 PUSH2 0x4A1E JUMP JUMPDEST PUSH1 0xFF NOT AND DUP6 MSTORE POP POP POP POP DUP2 ISZERO ISZERO SWAP1 SWAP2 MUL ADD SWAP3 POP PUSH2 0x3827 CODESIZE DUP1 DUP1 DUP1 PUSH2 0x49E1 JUMP JUMPDEST PUSH1 0x1A DUP10 MSTORE SWAP2 SWAP3 POP SWAP1 DUP8 PUSH32 0x57C384A7D1C54F3A1B2E5E67B2617B8224FDFD1EA7234EEA573A6FF665FF63E JUMPDEST DUP3 DUP3 LT PUSH2 0x4AAE JUMPI POP POP DUP6 ADD DUP4 ADD SWAP2 SWAP1 PUSH2 0x49BD PUSH2 0x49AD JUMP JUMPDEST DUP1 SLOAD SWAP8 DUP3 ADD DUP7 ADD SWAP8 SWAP1 SWAP8 MSTORE DUP10 SWAP7 SWAP1 DUP6 ADD SWAP1 DUP7 ADD PUSH2 0x4A97 JUMP JUMPDEST PUSH1 0xFF NOT AND DUP10 DUP3 ADD MSTORE DUP3 ISZERO ISZERO SWAP1 SWAP3 MUL DUP9 ADD SWAP1 SWAP2 ADD SWAP4 POP PUSH2 0x49BD SWAP1 POP PUSH2 0x49AD JUMP JUMPDEST PUSH1 0x0 NOT ADD SWAP1 DUP3 SWAP1 PUSH16 0x181899199A1A9B1B9C1CB0B131B232B3 PUSH1 0x81 SHL DUP3 DUP3 MOD BYTE DUP4 MSTORE8 DIV SWAP1 DUP5 DUP3 PUSH2 0x4979 JUMPI POP PUSH2 0x497E JUMP JUMPDEST SWAP1 PUSH1 0x1 ADD SWAP1 PUSH2 0x493A JUMP JUMPDEST PUSH1 0x64 PUSH1 0x2 SWAP2 DIV SWAP4 ADD SWAP3 PUSH2 0x4933 JUMP JUMPDEST PUSH1 0x4 SWAP2 DIV SWAP4 ADD SWAP3 CODESIZE PUSH2 0x4928 JUMP JUMPDEST PUSH1 0x8 SWAP2 DIV SWAP4 ADD SWAP3 CODESIZE PUSH2 0x491B JUMP JUMPDEST PUSH1 0x10 SWAP2 DIV SWAP4 ADD SWAP3 CODESIZE PUSH2 0x490C JUMP JUMPDEST SWAP5 ADD SWAP4 SWAP1 DIV DUP3 CODESIZE PUSH2 0x48F9 JUMP JUMPDEST PUSH1 0x40 SWAP6 POP DUP9 SWAP4 POP DIV SWAP1 POP CODESIZE DUP1 PUSH2 0x48DE JUMP JUMPDEST SWAP4 POP POP POP POP SWAP1 JUMP JUMPDEST PUSH1 0x40 MLOAD PUSH3 0x461BCD PUSH1 0xE5 SHL DUP2 MSTORE PUSH1 0x20 PUSH1 0x4 DUP3 ADD MSTORE PUSH1 0x1F PUSH1 0x24 DUP3 ADD MSTORE PUSH32 0x55524920717565727920666F72206E6F6E6578697374656E7420746F6B656E00 PUSH1 0x44 DUP3 ADD MSTORE PUSH1 0x64 SWAP1 REVERT INVALID LOG2 PUSH5 0x6970667358 0x22 SLT KECCAK256 0xE0 CODECOPY 0xC3 0x49 0xD8 0x1F PUSH31 0x68048E5E2F90F03DD5841C608A3798EF01300B3EACEA7ED83664736F6C6343 STOP ADDMOD SGT STOP CALLER "},"methodIdentifiers":{"BOOST_DURATION()":"d9c6176c","MAX_CONSECUTIVE_ERRORS()":"69f49ee5","MAX_MINT_PER_TX()":"8ecad721","MAX_SELF_CHECK_INTERVAL()":"cc2cf51f","MAX_SUPPLY_LIMIT()":"617d1126","MIN_SELF_CHECK_INTERVAL()":"d1eedf10","ROYALTY_PERCENTAGE()":"463b08db","agentDiagnostics(uint256,uint256)":"de1c12ce","agentRegulator()":"c3415c9d","approve(address,uint256)":"095ea7b3","authorizedMinters(address)":"aa2fe91b","authorizedUpdaters(address)":"8ff29cfe","balanceOf(address)":"70a08231","baseExtension()":"c6682862","baseURI()":"6c0360eb","batchSelfCheck(uint256[])":"ea59bb8e","burn(uint256)":"42966c68","currentSupply(uint8)":"d3a4a281","dataOracle()":"50ce255d","disableAgent(uint256)":"a964b0a9","enableAgent(uint256,address)":"30274daf","forceAgentRecovery(uint256,string)":"e8f91050","getAgentDiagnostics(uint256)":"e53f9fc1","getAgentHealth(uint256)":"0763678f","getApproved(uint256)":"081812fc","getTokenData(uint256)":"b09afec1","getTokensByOwner(address)":"40398d67","isAgentHealthy(uint256)":"c5e09406","isApprovedForAll(address,address)":"e985e9c5","maxSupply(uint8)":"2d8120b5","mintPlayer(string,uint8,uint8,(uint16,uint16,uint16,uint16,uint16,uint16,uint16,uint256),string)":"96fc0b35","name()":"06fdde03","owner()":"8da5cb5b","ownerOf(uint256)":"6352211e","pause()":"8456cb59","paused()":"5c975abb","performSelfCheck(uint256)":"62bbfad6","rarityPrices(uint8)":"c7600081","recordMatch(uint256,bool,uint256,uint256)":"e298f76a","renounceOwnership()":"715018a6","reportAgentDiagnostics(uint256,string,string,bool)":"6d8469ff","royaltyInfo(uint256,uint256)":"2a55205a","royaltyRecipient()":"4c00de82","safeTransferFrom(address,address,uint256)":"42842e0e","safeTransferFrom(address,address,uint256,bytes)":"b88d4fde","selfCheckInterval()":"5ad53bda","setAgentRegulator(address)":"e9c54464","setApprovalForAll(address,bool)":"a22cb465","setAuthorizedMinter(address,bool)":"ed58bad8","setAuthorizedUpdater(address,bool)":"99fc65d4","setMaxSupply(uint8,uint256)":"814641a3","setRarityPrice(uint8,uint256)":"bf3cb7c7","setSelfCheckInterval(uint256)":"962124df","supportsInterface(bytes4)":"01ffc9a7","symbol()":"95d89b41","tokenByIndex(uint256)":"4f6ccce7","tokenData(uint256)":"b4b5b48f","tokenOfOwnerByIndex(address,uint256)":"2f745c59","tokenURI(uint256)":"c87b56dd","totalSupply()":"18160ddd","transferFrom(address,address,uint256)":"23b872dd","transferOwnership(address)":"f2fde38b","unpause()":"3f4ba83a","updateLiveStats(uint256,(uint256,uint16,uint16,uint8,uint16,uint8,uint8,uint8,uint256))":"028b9a0c","withdraw()":"3ccfd60b"}}}}}