{
  "_format": "hh-sol-artifact-1",
  "contractName": "GoalsProtocolNFT",
  "sourceName": "contracts/GoalsProtocolNFT.sol",
  "abi": [
    {
      "inputs": [
        {
          "internalType": "address",
          "name": "_royaltyRecipient",
          "type": "address"
        },
        {
          "internalType": "address",
          "name": "_dataOracle",
          "type": "address"
        },
        {
          "internalType": "address",
          "name": "_agentRegulator",
          "type": "address"
        },
        {
          "internalType": "string",
          "name": "_baseURI",
          "type": "string"
        }
      ],
      "stateMutability": "nonpayable",
      "type": "constructor"
    },
    {
      "anonymous": false,
      "inputs": [
        {
          "indexed": true,
          "internalType": "uint256",
          "name": "tokenId",
          "type": "uint256"
        },
        {
          "indexed": false,
          "internalType": "string",
          "name": "achievement",
          "type": "string"
        }
      ],
      "name": "AchievementUnlocked",
      "type": "event"
    },
    {
      "anonymous": false,
      "inputs": [
        {
          "indexed": true,
          "internalType": "uint256",
          "name": "tokenId",
          "type": "uint256"
        },
        {
          "indexed": false,
          "internalType": "string",
          "name": "reason",
          "type": "string"
        }
      ],
      "name": "AgentDegraded",
      "type": "event"
    },
    {
      "anonymous": false,
      "inputs": [
        {
          "indexed": true,
          "internalType": "uint256",
          "name": "tokenId",
          "type": "uint256"
        }
      ],
      "name": "AgentDisabled",
      "type": "event"
    },
    {
      "anonymous": false,
      "inputs": [
        {
          "indexed": true,
          "internalType": "uint256",
          "name": "tokenId",
          "type": "uint256"
        },
        {
          "indexed": true,
          "internalType": "address",
          "name": "agentWallet",
          "type": "address"
        }
      ],
      "name": "AgentEnabled",
      "type": "event"
    },
    {
      "anonymous": false,
      "inputs": [
        {
          "indexed": true,
          "internalType": "uint256",
          "name": "tokenId",
          "type": "uint256"
        },
        {
          "indexed": false,
          "internalType": "string",
          "name": "resolution",
          "type": "string"
        }
      ],
      "name": "AgentRecovered",
      "type": "event"
    },
    {
      "anonymous": false,
      "inputs": [
        {
          "indexed": true,
          "internalType": "address",
          "name": "owner",
          "type": "address"
        },
        {
          "indexed": true,
          "internalType": "address",
          "name": "approved",
          "type": "address"
        },
        {
          "indexed": true,
          "internalType": "uint256",
          "name": "tokenId",
          "type": "uint256"
        }
      ],
      "name": "Approval",
      "type": "event"
    },
    {
      "anonymous": false,
      "inputs": [
        {
          "indexed": true,
          "internalType": "address",
          "name": "owner",
          "type": "address"
        },
        {
          "indexed": true,
          "internalType": "address",
          "name": "operator",
          "type": "address"
        },
        {
          "indexed": false,
          "internalType": "bool",
          "name": "approved",
          "type": "bool"
        }
      ],
      "name": "ApprovalForAll",
      "type": "event"
    },
    {
      "anonymous": false,
      "inputs": [
        {
          "indexed": true,
          "internalType": "uint256",
          "name": "tokenId",
          "type": "uint256"
        },
        {
          "indexed": false,
          "internalType": "string",
          "name": "issue",
          "type": "string"
        },
        {
          "indexed": false,
          "internalType": "string",
          "name": "action",
          "type": "string"
        }
      ],
      "name": "AutoRemediation",
      "type": "event"
    },
    {
      "anonymous": false,
      "inputs": [
        {
          "indexed": false,
          "internalType": "uint256",
          "name": "_fromTokenId",
          "type": "uint256"
        },
        {
          "indexed": false,
          "internalType": "uint256",
          "name": "_toTokenId",
          "type": "uint256"
        }
      ],
      "name": "BatchMetadataUpdate",
      "type": "event"
    },
    {
      "anonymous": false,
      "inputs": [
        {
          "indexed": true,
          "internalType": "uint256",
          "name": "tokenId",
          "type": "uint256"
        },
        {
          "indexed": false,
          "internalType": "uint256",
          "name": "boostEndTime",
          "type": "uint256"
        }
      ],
      "name": "CardBoosted",
      "type": "event"
    },
    {
      "anonymous": false,
      "inputs": [
        {
          "indexed": true,
          "internalType": "uint256",
          "name": "tokenId",
          "type": "uint256"
        },
        {
          "indexed": false,
          "internalType": "string",
          "name": "issue",
          "type": "string"
        },
        {
          "indexed": false,
          "internalType": "bool",
          "name": "autoResolved",
          "type": "bool"
        }
      ],
      "name": "DiagnosticsReported",
      "type": "event"
    },
    {
      "anonymous": false,
      "inputs": [
        {
          "indexed": true,
          "internalType": "uint256",
          "name": "tokenId",
          "type": "uint256"
        },
        {
          "indexed": false,
          "internalType": "bool",
          "name": "won",
          "type": "bool"
        },
        {
          "indexed": false,
          "internalType": "uint256",
          "name": "goals",
          "type": "uint256"
        },
        {
          "indexed": false,
          "internalType": "uint256",
          "name": "assists",
          "type": "uint256"
        }
      ],
      "name": "MatchPlayed",
      "type": "event"
    },
    {
      "anonymous": false,
      "inputs": [
        {
          "indexed": false,
          "internalType": "uint256",
          "name": "_tokenId",
          "type": "uint256"
        }
      ],
      "name": "MetadataUpdate",
      "type": "event"
    },
    {
      "anonymous": false,
      "inputs": [
        {
          "indexed": true,
          "internalType": "address",
          "name": "previousOwner",
          "type": "address"
        },
        {
          "indexed": true,
          "internalType": "address",
          "name": "newOwner",
          "type": "address"
        }
      ],
      "name": "OwnershipTransferred",
      "type": "event"
    },
    {
      "anonymous": false,
      "inputs": [
        {
          "indexed": false,
          "internalType": "address",
          "name": "account",
          "type": "address"
        }
      ],
      "name": "Paused",
      "type": "event"
    },
    {
      "anonymous": false,
      "inputs": [
        {
          "indexed": true,
          "internalType": "uint256",
          "name": "tokenId",
          "type": "uint256"
        },
        {
          "indexed": true,
          "internalType": "address",
          "name": "owner",
          "type": "address"
        },
        {
          "indexed": false,
          "internalType": "string",
          "name": "playerName",
          "type": "string"
        },
        {
          "indexed": false,
          "internalType": "enum GoalsProtocolNFT.Rarity",
          "name": "rarity",
          "type": "uint8"
        },
        {
          "indexed": false,
          "internalType": "uint256",
          "name": "price",
          "type": "uint256"
        }
      ],
      "name": "PlayerMinted",
      "type": "event"
    },
    {
      "anonymous": false,
      "inputs": [
        {
          "indexed": true,
          "internalType": "uint256",
          "name": "tokenId",
          "type": "uint256"
        },
        {
          "indexed": false,
          "internalType": "enum GoalsProtocolNFT.AgentHealth",
          "name": "health",
          "type": "uint8"
        },
        {
          "indexed": false,
          "internalType": "bool",
          "name": "issuesFound",
          "type": "bool"
        }
      ],
      "name": "SelfCheckPerformed",
      "type": "event"
    },
    {
      "anonymous": false,
      "inputs": [
        {
          "indexed": true,
          "internalType": "uint256",
          "name": "tokenId",
          "type": "uint256"
        },
        {
          "components": [
            {
              "internalType": "uint256",
              "name": "distanceCovered",
              "type": "uint256"
            },
            {
              "internalType": "uint16",
              "name": "sprints",
              "type": "uint16"
            },
            {
              "internalType": "uint16",
              "name": "topSpeed",
              "type": "uint16"
            },
            {
              "internalType": "uint8",
              "name": "fatigueLevel",
              "type": "uint8"
            },
            {
              "internalType": "uint16",
              "name": "passesCompleted",
              "type": "uint16"
            },
            {
              "internalType": "uint8",
              "name": "shotsOnTarget",
              "type": "uint8"
            },
            {
              "internalType": "uint8",
              "name": "goals",
              "type": "uint8"
            },
            {
              "internalType": "uint8",
              "name": "assists",
              "type": "uint8"
            },
            {
              "internalType": "uint256",
              "name": "lastUpdate",
              "type": "uint256"
            }
          ],
          "indexed": false,
          "internalType": "struct GoalsProtocolNFT.LiveStats",
          "name": "newStats",
          "type": "tuple"
        }
      ],
      "name": "StatsUpdated",
      "type": "event"
    },
    {
      "anonymous": false,
      "inputs": [
        {
          "indexed": true,
          "internalType": "address",
          "name": "from",
          "type": "address"
        },
        {
          "indexed": true,
          "internalType": "address",
          "name": "to",
          "type": "address"
        },
        {
          "indexed": true,
          "internalType": "uint256",
          "name": "tokenId",
          "type": "uint256"
        }
      ],
      "name": "Transfer",
      "type": "event"
    },
    {
      "anonymous": false,
      "inputs": [
        {
          "indexed": false,
          "internalType": "address",
          "name": "account",
          "type": "address"
        }
      ],
      "name": "Unpaused",
      "type": "event"
    },
    {
      "inputs": [],
      "name": "BOOST_DURATION",
      "outputs": [
        {
          "internalType": "uint256",
          "name": "",
          "type": "uint256"
        }
      ],
      "stateMutability": "view",
      "type": "function"
    },
    {
      "inputs": [],
      "name": "MAX_CONSECUTIVE_ERRORS",
      "outputs": [
        {
          "internalType": "uint256",
          "name": "",
          "type": "uint256"
        }
      ],
      "stateMutability": "view",
      "type": "function"
    },
    {
      "inputs": [],
      "name": "MAX_MINT_PER_TX",
      "outputs": [
        {
          "internalType": "uint256",
          "name": "",
          "type": "uint256"
        }
      ],
      "stateMutability": "view",
      "type": "function"
    },
    {
      "inputs": [],
      "name": "MAX_SELF_CHECK_INTERVAL",
      "outputs": [
        {
          "internalType": "uint256",
          "name": "",
          "type": "uint256"
        }
      ],
      "stateMutability": "view",
      "type": "function"
    },
    {
      "inputs": [],
      "name": "MAX_SUPPLY_LIMIT",
      "outputs": [
        {
          "internalType": "uint256",
          "name": "",
          "type": "uint256"
        }
      ],
      "stateMutability": "view",
      "type": "function"
    },
    {
      "inputs": [],
      "name": "MIN_SELF_CHECK_INTERVAL",
      "outputs": [
        {
          "internalType": "uint256",
          "name": "",
          "type": "uint256"
        }
      ],
      "stateMutability": "view",
      "type": "function"
    },
    {
      "inputs": [],
      "name": "ROYALTY_PERCENTAGE",
      "outputs": [
        {
          "internalType": "uint256",
          "name": "",
          "type": "uint256"
        }
      ],
      "stateMutability": "view",
      "type": "function"
    },
    {
      "inputs": [
        {
          "internalType": "uint256",
          "name": "",
          "type": "uint256"
        },
        {
          "internalType": "uint256",
          "name": "",
          "type": "uint256"
        }
      ],
      "name": "agentDiagnostics",
      "outputs": [
        {
          "internalType": "uint256",
          "name": "timestamp",
          "type": "uint256"
        },
        {
          "internalType": "string",
          "name": "issue",
          "type": "string"
        },
        {
          "internalType": "string",
          "name": "resolution",
          "type": "string"
        },
        {
          "internalType": "bool",
          "name": "autoResolved",
          "type": "bool"
        }
      ],
      "stateMutability": "view",
      "type": "function"
    },
    {
      "inputs": [],
      "name": "agentRegulator",
      "outputs": [
        {
          "internalType": "address",
          "name": "",
          "type": "address"
        }
      ],
      "stateMutability": "view",
      "type": "function"
    },
    {
      "inputs": [
        {
          "internalType": "address",
          "name": "to",
          "type": "address"
        },
        {
          "internalType": "uint256",
          "name": "tokenId",
          "type": "uint256"
        }
      ],
      "name": "approve",
      "outputs": [],
      "stateMutability": "nonpayable",
      "type": "function"
    },
    {
      "inputs": [
        {
          "internalType": "address",
          "name": "",
          "type": "address"
        }
      ],
      "name": "authorizedMinters",
      "outputs": [
        {
          "internalType": "bool",
          "name": "",
          "type": "bool"
        }
      ],
      "stateMutability": "view",
      "type": "function"
    },
    {
      "inputs": [
        {
          "internalType": "address",
          "name": "",
          "type": "address"
        }
      ],
      "name": "authorizedUpdaters",
      "outputs": [
        {
          "internalType": "bool",
          "name": "",
          "type": "bool"
        }
      ],
      "stateMutability": "view",
      "type": "function"
    },
    {
      "inputs": [
        {
          "internalType": "address",
          "name": "owner",
          "type": "address"
        }
      ],
      "name": "balanceOf",
      "outputs": [
        {
          "internalType": "uint256",
          "name": "",
          "type": "uint256"
        }
      ],
      "stateMutability": "view",
      "type": "function"
    },
    {
      "inputs": [],
      "name": "baseExtension",
      "outputs": [
        {
          "internalType": "string",
          "name": "",
          "type": "string"
        }
      ],
      "stateMutability": "view",
      "type": "function"
    },
    {
      "inputs": [],
      "name": "baseURI",
      "outputs": [
        {
          "internalType": "string",
          "name": "",
          "type": "string"
        }
      ],
      "stateMutability": "view",
      "type": "function"
    },
    {
      "inputs": [
        {
          "internalType": "uint256[]",
          "name": "_tokenIds",
          "type": "uint256[]"
        }
      ],
      "name": "batchSelfCheck",
      "outputs": [],
      "stateMutability": "nonpayable",
      "type": "function"
    },
    {
      "inputs": [
        {
          "internalType": "uint256",
          "name": "tokenId",
          "type": "uint256"
        }
      ],
      "name": "burn",
      "outputs": [],
      "stateMutability": "nonpayable",
      "type": "function"
    },
    {
      "inputs": [
        {
          "internalType": "enum GoalsProtocolNFT.Rarity",
          "name": "",
          "type": "uint8"
        }
      ],
      "name": "currentSupply",
      "outputs": [
        {
          "internalType": "uint256",
          "name": "",
          "type": "uint256"
        }
      ],
      "stateMutability": "view",
      "type": "function"
    },
    {
      "inputs": [],
      "name": "dataOracle",
      "outputs": [
        {
          "internalType": "address",
          "name": "",
          "type": "address"
        }
      ],
      "stateMutability": "view",
      "type": "function"
    },
    {
      "inputs": [
        {
          "internalType": "uint256",
          "name": "_tokenId",
          "type": "uint256"
        }
      ],
      "name": "disableAgent",
      "outputs": [],
      "stateMutability": "nonpayable",
      "type": "function"
    },
    {
      "inputs": [
        {
          "internalType": "uint256",
          "name": "_tokenId",
          "type": "uint256"
        },
        {
          "internalType": "address",
          "name": "_agentWallet",
          "type": "address"
        }
      ],
      "name": "enableAgent",
      "outputs": [],
      "stateMutability": "nonpayable",
      "type": "function"
    },
    {
      "inputs": [
        {
          "internalType": "uint256",
          "name": "_tokenId",
          "type": "uint256"
        },
        {
          "internalType": "string",
          "name": "_reason",
          "type": "string"
        }
      ],
      "name": "forceAgentRecovery",
      "outputs": [],
      "stateMutability": "nonpayable",
      "type": "function"
    },
    {
      "inputs": [
        {
          "internalType": "uint256",
          "name": "_tokenId",
          "type": "uint256"
        }
      ],
      "name": "getAgentDiagnostics",
      "outputs": [
        {
          "components": [
            {
              "internalType": "uint256",
              "name": "timestamp",
              "type": "uint256"
            },
            {
              "internalType": "string",
              "name": "issue",
              "type": "string"
            },
            {
              "internalType": "string",
              "name": "resolution",
              "type": "string"
            },
            {
              "internalType": "bool",
              "name": "autoResolved",
              "type": "bool"
            }
          ],
          "internalType": "struct GoalsProtocolNFT.AgentDiagnostics[]",
          "name": "",
          "type": "tuple[]"
        }
      ],
      "stateMutability": "view",
      "type": "function"
    },
    {
      "inputs": [
        {
          "internalType": "uint256",
          "name": "_tokenId",
          "type": "uint256"
        }
      ],
      "name": "getAgentHealth",
      "outputs": [
        {
          "internalType": "enum GoalsProtocolNFT.AgentHealth",
          "name": "",
          "type": "uint8"
        }
      ],
      "stateMutability": "view",
      "type": "function"
    },
    {
      "inputs": [
        {
          "internalType": "uint256",
          "name": "tokenId",
          "type": "uint256"
        }
      ],
      "name": "getApproved",
      "outputs": [
        {
          "internalType": "address",
          "name": "",
          "type": "address"
        }
      ],
      "stateMutability": "view",
      "type": "function"
    },
    {
      "inputs": [
        {
          "internalType": "uint256",
          "name": "_tokenId",
          "type": "uint256"
        }
      ],
      "name": "getTokenData",
      "outputs": [
        {
          "components": [
            {
              "internalType": "string",
              "name": "playerName",
              "type": "string"
            },
            {
              "internalType": "enum GoalsProtocolNFT.Position",
              "name": "position",
              "type": "uint8"
            },
            {
              "internalType": "enum GoalsProtocolNFT.Rarity",
              "name": "rarity",
              "type": "uint8"
            },
            {
              "components": [
                {
                  "internalType": "uint16",
                  "name": "pace",
                  "type": "uint16"
                },
                {
                  "internalType": "uint16",
                  "name": "shooting",
                  "type": "uint16"
                },
                {
                  "internalType": "uint16",
                  "name": "passing",
                  "type": "uint16"
                },
                {
                  "internalType": "uint16",
                  "name": "dribbling",
                  "type": "uint16"
                },
                {
                  "internalType": "uint16",
                  "name": "defense",
                  "type": "uint16"
                },
                {
                  "internalType": "uint16",
                  "name": "physical",
                  "type": "uint16"
                },
                {
                  "internalType": "uint16",
                  "name": "overall",
                  "type": "uint16"
                },
                {
                  "internalType": "uint256",
                  "name": "lastUpdate",
                  "type": "uint256"
                }
              ],
              "internalType": "struct GoalsProtocolNFT.PlayerStats",
              "name": "baseStats",
              "type": "tuple"
            },
            {
              "components": [
                {
                  "internalType": "uint256",
                  "name": "distanceCovered",
                  "type": "uint256"
                },
                {
                  "internalType": "uint16",
                  "name": "sprints",
                  "type": "uint16"
                },
                {
                  "internalType": "uint16",
                  "name": "topSpeed",
                  "type": "uint16"
                },
                {
                  "internalType": "uint8",
                  "name": "fatigueLevel",
                  "type": "uint8"
                },
                {
                  "internalType": "uint16",
                  "name": "passesCompleted",
                  "type": "uint16"
                },
                {
                  "internalType": "uint8",
                  "name": "shotsOnTarget",
                  "type": "uint8"
                },
                {
                  "internalType": "uint8",
                  "name": "goals",
                  "type": "uint8"
                },
                {
                  "internalType": "uint8",
                  "name": "assists",
                  "type": "uint8"
                },
                {
                  "internalType": "uint256",
                  "name": "lastUpdate",
                  "type": "uint256"
                }
              ],
              "internalType": "struct GoalsProtocolNFT.LiveStats",
              "name": "liveStats",
              "type": "tuple"
            },
            {
              "internalType": "uint256",
              "name": "mintTimestamp",
              "type": "uint256"
            },
            {
              "internalType": "uint256",
              "name": "matchesPlayed",
              "type": "uint256"
            },
            {
              "internalType": "address",
              "name": "agentWallet",
              "type": "address"
            },
            {
              "internalType": "bool",
              "name": "agentEnabled",
              "type": "bool"
            },
            {
              "internalType": "string",
              "name": "dynamicImageURI",
              "type": "string"
            },
            {
              "internalType": "enum GoalsProtocolNFT.AgentHealth",
              "name": "agentHealth",
              "type": "uint8"
            },
            {
              "internalType": "uint256",
              "name": "lastSelfCheck",
              "type": "uint256"
            },
            {
              "internalType": "uint256",
              "name": "consecutiveErrors",
              "type": "uint256"
            }
          ],
          "internalType": "struct GoalsProtocolNFT.TokenData",
          "name": "",
          "type": "tuple"
        }
      ],
      "stateMutability": "view",
      "type": "function"
    },
    {
      "inputs": [
        {
          "internalType": "address",
          "name": "_owner",
          "type": "address"
        }
      ],
      "name": "getTokensByOwner",
      "outputs": [
        {
          "internalType": "uint256[]",
          "name": "",
          "type": "uint256[]"
        }
      ],
      "stateMutability": "view",
      "type": "function"
    },
    {
      "inputs": [
        {
          "internalType": "uint256",
          "name": "_tokenId",
          "type": "uint256"
        }
      ],
      "name": "isAgentHealthy",
      "outputs": [
        {
          "internalType": "bool",
          "name": "",
          "type": "bool"
        }
      ],
      "stateMutability": "view",
      "type": "function"
    },
    {
      "inputs": [
        {
          "internalType": "address",
          "name": "owner",
          "type": "address"
        },
        {
          "internalType": "address",
          "name": "operator",
          "type": "address"
        }
      ],
      "name": "isApprovedForAll",
      "outputs": [
        {
          "internalType": "bool",
          "name": "",
          "type": "bool"
        }
      ],
      "stateMutability": "view",
      "type": "function"
    },
    {
      "inputs": [
        {
          "internalType": "enum GoalsProtocolNFT.Rarity",
          "name": "",
          "type": "uint8"
        }
      ],
      "name": "maxSupply",
      "outputs": [
        {
          "internalType": "uint256",
          "name": "",
          "type": "uint256"
        }
      ],
      "stateMutability": "view",
      "type": "function"
    },
    {
      "inputs": [
        {
          "internalType": "string",
          "name": "_playerName",
          "type": "string"
        },
        {
          "internalType": "enum GoalsProtocolNFT.Position",
          "name": "_position",
          "type": "uint8"
        },
        {
          "internalType": "enum GoalsProtocolNFT.Rarity",
          "name": "_rarity",
          "type": "uint8"
        },
        {
          "components": [
            {
              "internalType": "uint16",
              "name": "pace",
              "type": "uint16"
            },
            {
              "internalType": "uint16",
              "name": "shooting",
              "type": "uint16"
            },
            {
              "internalType": "uint16",
              "name": "passing",
              "type": "uint16"
            },
            {
              "internalType": "uint16",
              "name": "dribbling",
              "type": "uint16"
            },
            {
              "internalType": "uint16",
              "name": "defense",
              "type": "uint16"
            },
            {
              "internalType": "uint16",
              "name": "physical",
              "type": "uint16"
            },
            {
              "internalType": "uint16",
              "name": "overall",
              "type": "uint16"
            },
            {
              "internalType": "uint256",
              "name": "lastUpdate",
              "type": "uint256"
            }
          ],
          "internalType": "struct GoalsProtocolNFT.PlayerStats",
          "name": "_baseStats",
          "type": "tuple"
        },
        {
          "internalType": "string",
          "name": "_imageURI",
          "type": "string"
        }
      ],
      "name": "mintPlayer",
      "outputs": [
        {
          "internalType": "uint256",
          "name": "",
          "type": "uint256"
        }
      ],
      "stateMutability": "payable",
      "type": "function"
    },
    {
      "inputs": [],
      "name": "name",
      "outputs": [
        {
          "internalType": "string",
          "name": "",
          "type": "string"
        }
      ],
      "stateMutability": "view",
      "type": "function"
    },
    {
      "inputs": [],
      "name": "owner",
      "outputs": [
        {
          "internalType": "address",
          "name": "",
          "type": "address"
        }
      ],
      "stateMutability": "view",
      "type": "function"
    },
    {
      "inputs": [
        {
          "internalType": "uint256",
          "name": "tokenId",
          "type": "uint256"
        }
      ],
      "name": "ownerOf",
      "outputs": [
        {
          "internalType": "address",
          "name": "",
          "type": "address"
        }
      ],
      "stateMutability": "view",
      "type": "function"
    },
    {
      "inputs": [],
      "name": "pause",
      "outputs": [],
      "stateMutability": "nonpayable",
      "type": "function"
    },
    {
      "inputs": [],
      "name": "paused",
      "outputs": [
        {
          "internalType": "bool",
          "name": "",
          "type": "bool"
        }
      ],
      "stateMutability": "view",
      "type": "function"
    },
    {
      "inputs": [
        {
          "internalType": "uint256",
          "name": "_tokenId",
          "type": "uint256"
        }
      ],
      "name": "performSelfCheck",
      "outputs": [
        {
          "internalType": "enum GoalsProtocolNFT.AgentHealth",
          "name": "",
          "type": "uint8"
        }
      ],
      "stateMutability": "nonpayable",
      "type": "function"
    },
    {
      "inputs": [
        {
          "internalType": "enum GoalsProtocolNFT.Rarity",
          "name": "",
          "type": "uint8"
        }
      ],
      "name": "rarityPrices",
      "outputs": [
        {
          "internalType": "uint256",
          "name": "",
          "type": "uint256"
        }
      ],
      "stateMutability": "view",
      "type": "function"
    },
    {
      "inputs": [
        {
          "internalType": "uint256",
          "name": "_tokenId",
          "type": "uint256"
        },
        {
          "internalType": "bool",
          "name": "_won",
          "type": "bool"
        },
        {
          "internalType": "uint256",
          "name": "_goals",
          "type": "uint256"
        },
        {
          "internalType": "uint256",
          "name": "_assists",
          "type": "uint256"
        }
      ],
      "name": "recordMatch",
      "outputs": [],
      "stateMutability": "nonpayable",
      "type": "function"
    },
    {
      "inputs": [],
      "name": "renounceOwnership",
      "outputs": [],
      "stateMutability": "nonpayable",
      "type": "function"
    },
    {
      "inputs": [
        {
          "internalType": "uint256",
          "name": "_tokenId",
          "type": "uint256"
        },
        {
          "internalType": "string",
          "name": "_issue",
          "type": "string"
        },
        {
          "internalType": "string",
          "name": "_resolution",
          "type": "string"
        },
        {
          "internalType": "bool",
          "name": "_autoResolved",
          "type": "bool"
        }
      ],
      "name": "reportAgentDiagnostics",
      "outputs": [],
      "stateMutability": "nonpayable",
      "type": "function"
    },
    {
      "inputs": [
        {
          "internalType": "uint256",
          "name": "",
          "type": "uint256"
        },
        {
          "internalType": "uint256",
          "name": "_salePrice",
          "type": "uint256"
        }
      ],
      "name": "royaltyInfo",
      "outputs": [
        {
          "internalType": "address",
          "name": "receiver",
          "type": "address"
        },
        {
          "internalType": "uint256",
          "name": "royaltyAmount",
          "type": "uint256"
        }
      ],
      "stateMutability": "view",
      "type": "function"
    },
    {
      "inputs": [],
      "name": "royaltyRecipient",
      "outputs": [
        {
          "internalType": "address",
          "name": "",
          "type": "address"
        }
      ],
      "stateMutability": "view",
      "type": "function"
    },
    {
      "inputs": [
        {
          "internalType": "address",
          "name": "from",
          "type": "address"
        },
        {
          "internalType": "address",
          "name": "to",
          "type": "address"
        },
        {
          "internalType": "uint256",
          "name": "tokenId",
          "type": "uint256"
        }
      ],
      "name": "safeTransferFrom",
      "outputs": [],
      "stateMutability": "nonpayable",
      "type": "function"
    },
    {
      "inputs": [
        {
          "internalType": "address",
          "name": "from",
          "type": "address"
        },
        {
          "internalType": "address",
          "name": "to",
          "type": "address"
        },
        {
          "internalType": "uint256",
          "name": "tokenId",
          "type": "uint256"
        },
        {
          "internalType": "bytes",
          "name": "data",
          "type": "bytes"
        }
      ],
      "name": "safeTransferFrom",
      "outputs": [],
      "stateMutability": "nonpayable",
      "type": "function"
    },
    {
      "inputs": [],
      "name": "selfCheckInterval",
      "outputs": [
        {
          "internalType": "uint256",
          "name": "",
          "type": "uint256"
        }
      ],
      "stateMutability": "view",
      "type": "function"
    },
    {
      "inputs": [
        {
          "internalType": "address",
          "name": "_regulator",
          "type": "address"
        }
      ],
      "name": "setAgentRegulator",
      "outputs": [],
      "stateMutability": "nonpayable",
      "type": "function"
    },
    {
      "inputs": [
        {
          "internalType": "address",
          "name": "operator",
          "type": "address"
        },
        {
          "internalType": "bool",
          "name": "approved",
          "type": "bool"
        }
      ],
      "name": "setApprovalForAll",
      "outputs": [],
      "stateMutability": "nonpayable",
      "type": "function"
    },
    {
      "inputs": [
        {
          "internalType": "address",
          "name": "_minter",
          "type": "address"
        },
        {
          "internalType": "bool",
          "name": "_authorized",
          "type": "bool"
        }
      ],
      "name": "setAuthorizedMinter",
      "outputs": [],
      "stateMutability": "nonpayable",
      "type": "function"
    },
    {
      "inputs": [
        {
          "internalType": "address",
          "name": "_updater",
          "type": "address"
        },
        {
          "internalType": "bool",
          "name": "_authorized",
          "type": "bool"
        }
      ],
      "name": "setAuthorizedUpdater",
      "outputs": [],
      "stateMutability": "nonpayable",
      "type": "function"
    },
    {
      "inputs": [
        {
          "internalType": "enum GoalsProtocolNFT.Rarity",
          "name": "_rarity",
          "type": "uint8"
        },
        {
          "internalType": "uint256",
          "name": "_supply",
          "type": "uint256"
        }
      ],
      "name": "setMaxSupply",
      "outputs": [],
      "stateMutability": "nonpayable",
      "type": "function"
    },
    {
      "inputs": [
        {
          "internalType": "enum GoalsProtocolNFT.Rarity",
          "name": "_rarity",
          "type": "uint8"
        },
        {
          "internalType": "uint256",
          "name": "_price",
          "type": "uint256"
        }
      ],
      "name": "setRarityPrice",
      "outputs": [],
      "stateMutability": "nonpayable",
      "type": "function"
    },
    {
      "inputs": [
        {
          "internalType": "uint256",
          "name": "_interval",
          "type": "uint256"
        }
      ],
      "name": "setSelfCheckInterval",
      "outputs": [],
      "stateMutability": "nonpayable",
      "type": "function"
    },
    {
      "inputs": [
        {
          "internalType": "bytes4",
          "name": "interfaceId",
          "type": "bytes4"
        }
      ],
      "name": "supportsInterface",
      "outputs": [
        {
          "internalType": "bool",
          "name": "",
          "type": "bool"
        }
      ],
      "stateMutability": "view",
      "type": "function"
    },
    {
      "inputs": [],
      "name": "symbol",
      "outputs": [
        {
          "internalType": "string",
          "name": "",
          "type": "string"
        }
      ],
      "stateMutability": "view",
      "type": "function"
    },
    {
      "inputs": [
        {
          "internalType": "uint256",
          "name": "index",
          "type": "uint256"
        }
      ],
      "name": "tokenByIndex",
      "outputs": [
        {
          "internalType": "uint256",
          "name": "",
          "type": "uint256"
        }
      ],
      "stateMutability": "view",
      "type": "function"
    },
    {
      "inputs": [
        {
          "internalType": "uint256",
          "name": "",
          "type": "uint256"
        }
      ],
      "name": "tokenData",
      "outputs": [
        {
          "internalType": "string",
          "name": "playerName",
          "type": "string"
        },
        {
          "internalType": "enum GoalsProtocolNFT.Position",
          "name": "position",
          "type": "uint8"
        },
        {
          "internalType": "enum GoalsProtocolNFT.Rarity",
          "name": "rarity",
          "type": "uint8"
        },
        {
          "components": [
            {
              "internalType": "uint16",
              "name": "pace",
              "type": "uint16"
            },
            {
              "internalType": "uint16",
              "name": "shooting",
              "type": "uint16"
            },
            {
              "internalType": "uint16",
              "name": "passing",
              "type": "uint16"
            },
            {
              "internalType": "uint16",
              "name": "dribbling",
              "type": "uint16"
            },
            {
              "internalType": "uint16",
              "name": "defense",
              "type": "uint16"
            },
            {
              "internalType": "uint16",
              "name": "physical",
              "type": "uint16"
            },
            {
              "internalType": "uint16",
              "name": "overall",
              "type": "uint16"
            },
            {
              "internalType": "uint256",
              "name": "lastUpdate",
              "type": "uint256"
            }
          ],
          "internalType": "struct GoalsProtocolNFT.PlayerStats",
          "name": "baseStats",
          "type": "tuple"
        },
        {
          "components": [
            {
              "internalType": "uint256",
              "name": "distanceCovered",
              "type": "uint256"
            },
            {
              "internalType": "uint16",
              "name": "sprints",
              "type": "uint16"
            },
            {
              "internalType": "uint16",
              "name": "topSpeed",
              "type": "uint16"
            },
            {
              "internalType": "uint8",
              "name": "fatigueLevel",
              "type": "uint8"
            },
            {
              "internalType": "uint16",
              "name": "passesCompleted",
              "type": "uint16"
            },
            {
              "internalType": "uint8",
              "name": "shotsOnTarget",
              "type": "uint8"
            },
            {
              "internalType": "uint8",
              "name": "goals",
              "type": "uint8"
            },
            {
              "internalType": "uint8",
              "name": "assists",
              "type": "uint8"
            },
            {
              "internalType": "uint256",
              "name": "lastUpdate",
              "type": "uint256"
            }
          ],
          "internalType": "struct GoalsProtocolNFT.LiveStats",
          "name": "liveStats",
          "type": "tuple"
        },
        {
          "internalType": "uint256",
          "name": "mintTimestamp",
          "type": "uint256"
        },
        {
          "internalType": "uint256",
          "name": "matchesPlayed",
          "type": "uint256"
        },
        {
          "internalType": "address",
          "name": "agentWallet",
          "type": "address"
        },
        {
          "internalType": "bool",
          "name": "agentEnabled",
          "type": "bool"
        },
        {
          "internalType": "string",
          "name": "dynamicImageURI",
          "type": "string"
        },
        {
          "internalType": "enum GoalsProtocolNFT.AgentHealth",
          "name": "agentHealth",
          "type": "uint8"
        },
        {
          "internalType": "uint256",
          "name": "lastSelfCheck",
          "type": "uint256"
        },
        {
          "internalType": "uint256",
          "name": "consecutiveErrors",
          "type": "uint256"
        }
      ],
      "stateMutability": "view",
      "type": "function"
    },
    {
      "inputs": [
        {
          "internalType": "address",
          "name": "owner",
          "type": "address"
        },
        {
          "internalType": "uint256",
          "name": "index",
          "type": "uint256"
        }
      ],
      "name": "tokenOfOwnerByIndex",
      "outputs": [
        {
          "internalType": "uint256",
          "name": "",
          "type": "uint256"
        }
      ],
      "stateMutability": "view",
      "type": "function"
    },
    {
      "inputs": [
        {
          "internalType": "uint256",
          "name": "tokenId",
          "type": "uint256"
        }
      ],
      "name": "tokenURI",
      "outputs": [
        {
          "internalType": "string",
          "name": "",
          "type": "string"
        }
      ],
      "stateMutability": "view",
      "type": "function"
    },
    {
      "inputs": [],
      "name": "totalSupply",
      "outputs": [
        {
          "internalType": "uint256",
          "name": "",
          "type": "uint256"
        }
      ],
      "stateMutability": "view",
      "type": "function"
    },
    {
      "inputs": [
        {
          "internalType": "address",
          "name": "from",
          "type": "address"
        },
        {
          "internalType": "address",
          "name": "to",
          "type": "address"
        },
        {
          "internalType": "uint256",
          "name": "tokenId",
          "type": "uint256"
        }
      ],
      "name": "transferFrom",
      "outputs": [],
      "stateMutability": "nonpayable",
      "type": "function"
    },
    {
      "inputs": [
        {
          "internalType": "address",
          "name": "newOwner",
          "type": "address"
        }
      ],
      "name": "transferOwnership",
      "outputs": [],
      "stateMutability": "nonpayable",
      "type": "function"
    },
    {
      "inputs": [],
      "name": "unpause",
      "outputs": [],
      "stateMutability": "nonpayable",
      "type": "function"
    },
    {
      "inputs": [
        {
          "internalType": "uint256",
          "name": "_tokenId",
          "type": "uint256"
        },
        {
          "components": [
            {
              "internalType": "uint256",
              "name": "distanceCovered",
              "type": "uint256"
            },
            {
              "internalType": "uint16",
              "name": "sprints",
              "type": "uint16"
            },
            {
              "internalType": "uint16",
              "name": "topSpeed",
              "type": "uint16"
            },
            {
              "internalType": "uint8",
              "name": "fatigueLevel",
              "type": "uint8"
            },
            {
              "internalType": "uint16",
              "name": "passesCompleted",
              "type": "uint16"
            },
            {
              "internalType": "uint8",
              "name": "shotsOnTarget",
              "type": "uint8"
            },
            {
              "internalType": "uint8",
              "name": "goals",
              "type": "uint8"
            },
            {
              "internalType": "uint8",
              "name": "assists",
              "type": "uint8"
            },
            {
              "internalType": "uint256",
              "name": "lastUpdate",
              "type": "uint256"
            }
          ],
          "internalType": "struct GoalsProtocolNFT.LiveStats",
          "name": "_newStats",
          "type": "tuple"
        }
      ],
      "name": "updateLiveStats",
      "outputs": [],
      "stateMutability": "nonpayable",
      "type": "function"
    },
    {
      "inputs": [],
      "name": "withdraw",
      "outputs": [],
      "stateMutability": "nonpayable",
      "type": "function"
    }
  ],
  "bytecode": "0x60406080815234620006995762005343803803806200001e81620006be565b928339810160808282031262000699576200003982620006e4565b916020906200004a828201620006e4565b62000057868301620006e4565b60608301516001600160401b039391929184821162000699570190601f92868484011215620006995782518581116200042457601f19936200009f82870186168901620006be565b98828a528883830101116200069957879060005b8381106200068457505060009189010152620000ce6200069e565b91600f83526e0911d3d05314c8141c9bdd1bd8dbdb608a1b87840152620000f46200069e565b98600593848b5264474f414c5360d81b898c01528051908882116200042457819062000122600054620006f9565b8b8a821162000653575b50508a90898311600114620005ec57600092620005e0575b50508160011b916000199060031b1c1916176000555b895187811162000424578060019b8c8b620001768254620006f9565b8b8111620005a4575b5050508a90898311600114620005355760009262000529575b5050600019600383901b1c1916908b1b178a555b600b80546001600160a81b0319811633600881811b610100600160a81b0316929092179093556001600160a01b03938493909290911c83167f8be0079c531659141344cd1fd0a4f28419497f9722a3daafe3b4186f6b6457e0600080a3610e106016556200021c601b54620006f9565b88811162000506575b50600a64173539b7b760d91b01601b5516918215620004c25781169283156200047e57169182156200043a5760018060a01b0319918260175416176017558160185416176018556019541617601955855193841162000424576200028b601a54620006f9565b838111620003e6575b5050839183116001146200037c5750819060149460009262000370575b5050600019600383901b1c191690841b17601a555b6000805260138152662386f26fc1000084600020558260005266b1a2bc2ec50000846000205560026000526702c68af0bb14000084600020556003600052670de0b6b3a764000084600020556004600052674563918244f400008460002055600080525261138882600020556000526107d0816000205560026000526101f4816000205560036000526064816000205560046000526014816000205551614bf39081620007508239f35b015190503880620002b1565b9382919486931694601a600052846000209160005b878110620003ce57508360149710620003b4575b505050811b01601a55620002c6565b015160001960f88460031b161c19169055388080620003a5565b82820151845588959093019291860191860162000391565b6200041291601a600052866000209085808801821c8301938989106200041a575b01901c019062000736565b388062000294565b9350829362000407565b634e487b7160e01b600052604160045260246000fd5b8a5162461bcd60e51b815260048101899052601760248201527f496e76616c6964206167656e7420726567756c61746f720000000000000000006044820152606490fd5b8b5162461bcd60e51b8152600481018a9052601360248201527f496e76616c69642064617461206f7261636c65000000000000000000000000006044820152606490fd5b8b5162461bcd60e51b8152600481018a9052601960248201527f496e76616c696420726f79616c747920726563697069656e74000000000000006044820152606490fd5b6200052290601b600052898c6000209101881c81019062000736565b3862000225565b01519050388062000198565b90888e941691846000528c600020928d6000905b82821062000583575050841162000569575b505050811b018a55620001ac565b015160001960f88460031b161c191690553880806200055b565b91929395968291958786015181550195019301908f95949392918e62000549565b620005cd926000528b82600020918187018c1c8301938710620005d6575b018a1c019062000736565b8c8b386200017f565b92508192620005c2565b01519050388062000144565b60008080528c8120938a16905b8d8282106200063c57505090846001959493921062000622575b505050811b016000556200015a565b015160001960f88460031b161c1916905538808062000613565b6001859682939686015181550195019301620005f9565b6200067c91600080528b82600020918187018c1c8301938710620005d657018a1c019062000736565b388b6200012c565b8181018301518b8201840152899201620000b3565b600080fd5b60408051919082016001600160401b038111838210176200042457604052565b6040519190601f01601f191682016001600160401b038111838210176200042457604052565b51906001600160a01b03821682036200069957565b90600182811c921680156200072b575b60208310146200071557565b634e487b7160e01b600052602260045260246000fd5b91607f169162000709565b81811062000742575050565b600081556001016200073656fe60a080604052600436101561001357600080fd5b60003560e01c90816301ffc9a71461340a57508063028b9a0c1461309557806306fdde0314612ff25780630763678f14612f98578063081812fc14612f7a578063095ea7b314612e0057806318160ddd14612de257806323b872dd14612dbe5780632a55205a14612d7c5780632d8120b514612d545780632f745c5914612d2d57806330274daf14612bd15780633ccfd60b14612b145780633f4ba83a14612a8057806340398d67146129bd57806342842e0e1461298a57806342966c6814612709578063463b08db146126ec5780634c00de82146126c35780634f6ccce71461263257806350ce255d146126095780635ad53bda146125eb5780635c975abb146125c8578063617d1126146125aa57806362bbfad61461255e5780636352211e1461252e57806369f49ee5146125125780636c0360eb1461246c5780636d8469ff14611f9a57806370a0823114611f6f578063715018a614611f0e578063814641a314611e4a5780638456cb5914611df05780638da5cb5b14611dc35780638ecad72114611da75780638ff29cfe14611d6857806395d89b4114611cc5578063962124df14611c4f57806396fc0b351461130a57806399fc65d4146112b7578063a22cb465146111df578063a964b0a91461114a578063aa2fe91b1461110b578063b09afec114610e2f578063b4b5b48f14610cfa578063b88d4fde14610c75578063bf3cb7c714610c52578063c3415c9d14610c29578063c5e0940614610bca578063c668286214610afc578063c760008114610ad4578063c87b56dd14610a9d578063cc2cf51f14610a7f578063d1eedf1014610a63578063d3a4a28114610a32578063d9c6176c14610a15578063de1c12ce14610988578063e298f76a146107d0578063e53f9fc11461066a578063e8f9105014610603578063e985e9c5146105ad578063e9c5446414610520578063ea59bb8e14610418578063ed58bad8146103c35763f2fde38b146102ea57600080fd5b346103be5760203660031901126103be57610303613618565b61030b613a48565b6001600160a01b0381811691821561036a57600b8054610100600160a81b03198116600893841b610100600160a81b031617909155901c167f8be0079c531659141344cd1fd0a4f28419497f9722a3daafe3b4186f6b6457e0600080a3005b60405162461bcd60e51b815260206004820152602660248201527f4f776e61626c653a206e6577206f776e657220697320746865207a65726f206160448201526564647265737360d01b6064820152608490fd5b600080fd5b346103be5760403660031901126103be576104166103df613618565b6103e761382a565b906103f0613a48565b60018060a01b0316600052601160205260406000209060ff801983541691151516179055565b005b346103be576020806003193601126103be576004356001600160401b0381116103be57366023820112156103be5780600401359061045582613a31565b916104636040519384613583565b80835260248484019160051b830101913683116103be57602401905b828210610511578360005b815181101561041657806104c26104a46104cb9385614621565b516000908152600260205260409020546001600160a01b0316151590565b6104d05761424a565b61048a565b61050b6104dd8285614621565b51600081815260026020526040902054610506906001600160a01b03161515614207565b614207565b614259565b5061424a565b8135815290840190840161047f565b346103be5760203660031901126103be57610539613618565b610541613a48565b6001600160a01b03168015610568576001600160601b0360a01b6019541617601955600080f35b60405162461bcd60e51b815260206004820152601960248201527f496e76616c696420726567756c61746f722061646472657373000000000000006044820152606490fd5b346103be5760403660031901126103be576105c6613618565b6105ce61362e565b9060018060a01b03809116600052600560205260406000209116600052602052602060ff604060002054166040519015158152f35b346103be5760403660031901126103be576024356004356001600160401b0382116103be5761063961041692369060040161380c565b90610642613a48565b600081815260026020526040902054610665906001600160a01b03161515614207565b61469f565b346103be576020806003193601126103be576004356000818152600260205260409020546106a2906001600160a01b03161515614207565b600052601081526040600020908154916106bb83613a31565b926106c96040519485613583565b8084528284018092600052836000206000915b8383106107775750505050604051918083019381845251809452604083019360408160051b85010192916000955b8287106107175785850386f35b909192938280600192603f198982030185528751908151815261075b61074984840151608080878601528401906135e9565b604084015183820360408501526135e9565b916060809101511515910152960192019601959291909261070a565b60048660019260409998995161078c816134df565b8554815261079b858701613714565b838201526107ab60028701613714565b604082015260ff600387015416151560608201528152019201920191909594956106dc565b346103be5760803660031901126103be576004356107ec61382a565b817fd77075d1c479dfae92457562d631fecb5a018bd00f1ed5b2a26a6f78a8b13aab60606044359360643533600052601260205260ff604060002054168015610974575b801561095a575b6108409061479b565b600085815260026020526040902054610863906001600160a01b03161515614207565b84600052600f60205260406000206008810161087f815461424a565b90556108eb600582016108be61089f60ff8b1660ff845460401c166147e7565b825468ff0000000000000000191660409190911b60ff60401b16178255565b6108d260ff851660ff835460481c166147e7565b60ff60481b82549160481b169060ff60481b1916179055565b60064291015560405191151582528560208301526040820152a261090b57005b61070842018042116109445760207f099725fcbba3ca58aa709e187e47790c37cc232be7221d6a02002ed6171e3ae591604051908152a2005b634e487b7160e01b600052601160045260246000fd5b50600b543360089190911c6001600160a01b031614610837565b506018546001600160a01b03163314610830565b346103be5761099636613679565b90600052601060205260406000209081548110156103be576109b7916139ff565b5080546109c660018301613714565b91610a0960ff60036109da60028501613714565b93015416916109fb60405195869586526080602087015260808601906135e9565b9084820360408601526135e9565b90151560608301520390f35b346103be5760003660031901126103be5760206040516107088152f35b346103be5760203660031901126103be5760043560058110156103be57610a5a6020916136a8565b54604051908152f35b346103be5760003660031901126103be576020604051603c8152f35b346103be5760003660031901126103be576020604051620151808152f35b346103be5760203660031901126103be57610ad0610abc600435614873565b6040519182916020835260208301906135e9565b0390f35b346103be5760203660031901126103be5760043560058110156103be57610a5a6020916136c1565b346103be5760003660031901126103be576040516000601b54610b1e816136da565b80845290600190818116908115610ba35750600114610b48575b610ad084610abc81860382613583565b601b600090815292507f3ad8aa4f87544323a9d1e5dd902f40c356527a7955687113db5f9a85ad579dc15b828410610b8b575050508101602001610abc82610b38565b80546020858701810191909152909301928101610b73565b60ff191660208087019190915292151560051b85019092019250610abc9150839050610b38565b346103be5760203660031901126103be57600435600081815260026020526040902054610c01906001600160a01b03161515614207565b600052600f602052602060ff600b6040600020015416610c208161360e565b60405190158152f35b346103be5760003660031901126103be576019546040516001600160a01b039091168152602090f35b346103be57610c72610c6336613839565b9190610c6d613a48565b6136c1565b55005b346103be5760803660031901126103be57610c8e613618565b610c9661362e565b90606435906044356001600160401b0383116103be57366023840112156103be5761041693610cd2610cf59436906024816004013591016137d5565b92610ce5610ce08433613ca0565b613bc7565b610cf0838383613d68565b6140c7565b613c7c565b346103be5760203660031901126103be57600435600052600f6020526040600020610d2481613714565b60018201549160ff831690610d3b6002820161392a565b90610d486004820161398f565b926007820154906008830154600984015490600a8501610d6790613714565b93600b86015460ff1697600c87015496600d0154976040519b8c9b8c6103808091528d01610d94916135e9565b96610d9e8161360e565b60208d015260408c019060081c60ff1690610db891613858565b60608b01610dc591613865565b6101608a01610dd3916138c0565b6102808901526102a08801526001600160a01b0381166102c088015260a01c60ff1615156102e0870152858103610300870152610e0f916135e9565b92610e198161360e565b6103208501526103408401526103608301520390f35b346103be5760203660031901126103be576004356000610180604051610e5481613516565b60608152826020820152826040820152604051610e70816134fa565b8381528360208201528360408201528360608201528360808201528360a08201528360c08201528360e08201526060820152604051610eae816134c3565b8381528360208201528360408201528360608201528360808201528360a08201528360c08201528360e08201528361010082015260808201528260a08201528260c08201528260e082015282610100820152606061012082015282610140820152826101608201520152610f3a61050182600052600260205260018060a01b0360406000205416151590565b600052600f6020526040600020600d60405191610f5683613516565b610f5f81613714565b8352610f8b60ff6001830154610f7682821661360e565b818116602087015260081c16604085016146ff565b610f976002820161392a565b6060840152610fa86004820161398f565b6080840152600781015460a0840152600881015460c084015260ff600982015460018060a01b03811660e086015260a01c161515610100840152610fee600a8201613714565b61012084015260ff600b820154166110058161360e565b610140840152600c81015461016084015201546101808201526040518091602082526101806110dd611045835161038060208701526103a08601906135e9565b60208401516110538161360e565b604086015261106a60408501516060870190613858565b61107c60608501516080870190613865565b61108d6080850151848701906138c0565b60a08401516102a086015260c08401516102c086015260e08401516001600160a01b03166102e08601526101008401511515610300860152610120840151858203601f19016103208701526135e9565b916101408101516110ed8161360e565b61034085015261016081015161036085015201516103808301520390f35b346103be5760203660031901126103be576001600160a01b0361112c613618565b166000526011602052602060ff604060002054166040519015158152f35b346103be5760203660031901126103be57600435600081815260026020526040902054611181906001600160a01b03161515614207565b61119d61118d82613b66565b6001600160a01b031633146147fb565b6000818152600f60205260408120600901805460ff60a01b191690557f2502a8d8e9bb147f37d1559dbdec1cc505fc4edd3283e2de7d0ad4a15867371b9080a2005b346103be5760403660031901126103be576111f8613618565b61120061382a565b6001600160a01b0390911690338214611272573360005260056020526040600020826000526020526112428160406000209060ff801983541691151516179055565b60405190151581527f17307eab39ab6107e8899845ad3d59bd9653f200f220920489ca2b5937696c3160203392a3005b60405162461bcd60e51b815260206004820152601960248201527f4552433732313a20617070726f766520746f2063616c6c6572000000000000006044820152606490fd5b346103be5760403660031901126103be576104166112d3613618565b6112db61382a565b906112e4613a48565b60018060a01b0316600052601260205260406000209060ff801983541691151516179055565b6101803660031901126103be576004356001600160401b0381116103be5761133690369060040161380c565b600460243510156103be57600560443510156103be576101003660631901126103be5760405190611366826134fa565b61136e6135a4565b825260843561ffff811681036103be57602083015261138b6135b5565b604083015260c43561ffff811681036103be57606083015260e43561ffff811681036103be5760808301526101043561ffff811681036103be5760a08301526101243561ffff811681036103be5760c08301526101443560e08301526001600160401b0361016435116103be57611408366101643560040161380c565b9061141161470b565b61141c6044356136a8565b5461142860443561368f565b541115611c0a5761143a6044356136c1565b543410611bce57600e549160018301600e556040516114588161354d565b600081523315611b8a57600084815260026020526040902054611487906001600160a01b031615155b1561474f565b61148f61470b565b60085484600052600960205280604060002055600160401b811015611ab55761159c916114e2866114c9846001610cf596016008556141d0565b90919082549060031b91821b91600019901b1916179055565b6114eb33613aa3565b3360005260066020526040600020816000526020528660406000205586600052600760205260406000205561153861148187600052600260205260018060a01b0360406000205416151590565b3360005260036020526040600020600181540190558560005260026020526040600020336001600160601b0360a01b825416179055853360007fddf252ad1be2c89b69c2b068fc378daa952ba7f163c4a11628f55a4df523b3ef8180a48533613fcc565b6040516115a8816134c3565b6000815260006020820152600060408201526000606082015260006080820152600060a0820152600060c0820152600060e082015242610100820152604051946115f186613516565b8386526115ff60243561360e565b6024356020870152611616604435604088016146ff565b606086015260808501524260a0850152600060c0850152600060e08501526000610100850152610120840152600061014084015242610160840152600061018084015281600052600f602052604060002083518051906001600160401b038211611ab557819061168684546136da565b601f8111611b58575b50602090601f8311600114611aec57600092611ae1575b50508160011b916000199060031b1c19161781555b60208401516116c98161360e565b6116d28161360e565b600182015460408601516005811015611acb5761ff0060ff9160081b1692169061ffff19161717600182015560e06002820160608601519061ffff82511661ffff1982541617815561174161ffff602084015116829063ffff000082549160101b169063ffff00001916179055565b6040820151815467ffff000000000000606085015160301b1669ffff0000000000000000608086015160401b169061ffff60501b60a087015160501b169265ffff0000000061ffff60601b60c089015160601b169560201b16906dffffffffffffffffffff00000000191617171717179055015160038201556101006080850151805160048401556118926005840161ffff60208401511661ffff1982541617815561180a61ffff604085015116829063ffff000082549160101b169063ffff00001916179055565b6060830151815466ffff0000000000608086015160281b169064ff0000000060ff60381b60a088015160381b169360201b169067ffffffff000000001916171717815561187360ff60c085015116829060ff60401b82549160401b169060ff60401b1916179055565b60e0830151815460ff60481b191660489190911b60ff60481b16179055565b0151600682015560a0840151600782015560c084015160088201556009810160018060a01b0360e08601511681549060ff60a01b610100880151151560a01b16916affffffffffffffffffffff60a81b16171790556101208401519384516001600160401b038111611ab55760209561190e600a8501546136da565b601f8111611a77575b508690601f8311600114611a03579180600d9492610180946000926119f8575b50508160011b916000199060031b1c191617600a8501555b600b84016101408201516119628161360e565b61196b8161360e565b60ff80198354169116179055610160810151600c85015501519101556119926044356136a8565b61199c815461424a565b9055817ff450aa0e15f4944c9c9dddaf95311bb8d067372d36762a87638572b61ec564356119d5604051936060855260608501906135e9565b926119e4868201604435613858565b3460408201528033940390a3604051908152f35b015190508980611937565b90600a8501600052876000209160005b601f1985168110611a60575092600d94926001926101809583601f19811610611a47575b505050811b01600a85015561194f565b015160001960f88460031b161c19169055898080611a37565b919289600181928685015181550194019201611a13565b611aa590600a860160005288600020601f850160051c8101918a8610611aab575b601f0160051c01906145e5565b87611917565b9091508190611a98565b634e487b7160e01b600052604160045260246000fd5b634e487b7160e01b600052602160045260246000fd5b0151905086806116a6565b9250836000526020600020906000935b601f1984168510611b3d576001945083601f19811610611b24575b505050811b0181556116bb565b015160001960f88460031b161c19169055868080611b17565b81810151835560209485019460019093019290910190611afc565b611b8490856000526020600020601f850160051c81019160208610611aab57601f0160051c01906145e5565b8761168f565b606460405162461bcd60e51b815260206004820152602060248201527f4552433732313a206d696e7420746f20746865207a65726f20616464726573736044820152fd5b60405162461bcd60e51b8152602060048201526014602482015273125b9cdd59999a58da595b9d081c185e5b595b9d60621b6044820152606490fd5b60405162461bcd60e51b815260206004820152601760248201527f52617269747920737570706c79206578686175737465640000000000000000006044820152606490fd5b346103be5760203660031901126103be57600435611c6b613a48565b603c81101580611cb8575b15611c8057601655005b60405162461bcd60e51b815260206004820152601060248201526f125b9d985b1a59081a5b9d195c9d985b60821b6044820152606490fd5b5062015180811115611c76565b346103be5760003660031901126103be5760405160006001805490611ce9826136da565b80855291818116908115610ba35750600114611d0f57610ad084610abc81860382613583565b600081815292507fb10e2d527612073b26eecdfd717e6a320cf44b4afac2b0732d9fcbe2b7fa0cf65b828410611d50575050508101602001610abc82610b38565b80546020858701810191909152909301928101611d38565b346103be5760203660031901126103be576001600160a01b03611d89613618565b166000526012602052602060ff604060002054166040519015158152f35b346103be5760003660031901126103be576020604051600a8152f35b346103be5760003660031901126103be57600b5460405160089190911c6001600160a01b03168152602090f35b346103be5760003660031901126103be57611e09613a48565b611e1161470b565b600160ff19600b541617600b557f62e78cea01bee320cd4e420270b5ea74000d11b0c9f74754ebdbfc544b05a2586020604051338152a1005b346103be57611e5836613839565b90611e61613a48565b620186a08211611ec957611e74816136a8565b548210611e8457610c729061368f565b60405162461bcd60e51b815260206004820152601b60248201527f537570706c792062656c6f772063757272656e74206d696e74656400000000006044820152606490fd5b60405162461bcd60e51b815260206004820152601c60248201527f537570706c792065786365656473206d6178696d756d206c696d6974000000006044820152606490fd5b346103be5760003660031901126103be57611f27613a48565b600b8054610100600160a81b0319811690915560009060081c6001600160a01b03167f8be0079c531659141344cd1fd0a4f28419497f9722a3daafe3b4186f6b6457e08280a3005b346103be5760203660031901126103be576020611f92611f8d613618565b613aa3565b604051908152f35b346103be5760803660031901126103be576001600160401b036024358181116103be57611fcb90369060040161380c565b906044358181116103be57611fe490369060040161380c565b916064359182159081158094036103be57601954336001600160a01b039182161490811561245b575b50156124265760043560008181526002602052604090205490959061203c906001600160a01b03161515614207565b604051612048816134df565b4281526020608052608051810192858452604082018381526060830191888352896000526010608051526040600020958654600160401b811015611ab5576120979060019889820181556139ff565b9590956124105751855551958651828111611ab55781860190806120bb83546136da565b99601f9a8b81116123de575b50608051908b83116001146123785760009261236d575b5050600019600383901b1c191690831b1790555b600285019251968751928311611ab5578b9761210e85546136da565b828111612331575b506080519184116001146122a4579280600395938193612161999896600094612299575b50501b9160001990861b1c19161790555b51151591019060ff801983541691151516179055565b81600052600f608051526040600020926000146121e9575050907f86c2be553165359bd82c8607d665ed72bcd9b72e15c3e1973c0e20dc8606c980926005600d6121ce94016121b0815461424a565b80915510156121da575b6040519283926040845260408401906135e9565b906080518301520390a2005b6121e48286614635565b6121ba565b907f172ffe120c5a99836d395f1fc8f3b426f5ca77708118dca216bdc34ecf3a69f561221f600d949360405191829188836145fc565b0390a20180548015801561225c575b5050506121ce907f86c2be553165359bd82c8607d665ed72bcd9b72e15c3e1973c0e20dc8606c980926121ba565b93909291936109445760001990920190925590807f86c2be553165359bd82c8607d665ed72bcd9b72e15c3e1973c0e20dc8606c9806121ce61222e565b015192508f8061213a565b97969594939290601f19821698846000526080516000209960005b81811061230257509161216198999a918460039897969594106122ea575b505050811b01905561214b565b015160001983881b60f8161c191690558d80806122dd565b93959799509091938096989a8584015181550193608051019260805101908e9997959392919a9896949a6122bf565b61235e90866000526080516000208480880160051c8201926080518910612364575b0160051c01906145e5565b8d612116565b92508192612353565b015190508e806120de565b9085935084600052608051600020916000601f198516905b8181106123c5575084116123ac575b505050811b0190556120f2565b015160001960f88460031b161c191690558e808061239f565b8284015185556080518997909501949384019301612390565b61240a90856000526080516000208d80860160051c8201926080518710612364570160051c01906145e5565b8f6120c7565b634e487b7160e01b600052600060045260246000fd5b60405162461bcd60e51b815260206004820152600d60248201526c2737ba103932b3bab630ba37b960991b6044820152606490fd5b9050600b5460081c1633148661200d565b346103be5760003660031901126103be576040516000601a5461248e816136da565b80845290600190818116908115610ba357506001146124b757610ad084610abc81860382613583565b601a600090815292507f057c384a7d1c54f3a1b2e5e67b2617b8224fdfd1ea7234eea573a6ff665ff63e5b8284106124fa575050508101602001610abc82610b38565b805460208587018101919091529093019281016124e2565b346103be5760003660031901126103be57602060405160058152f35b346103be5760203660031901126103be57602061254c600435613b66565b6040516001600160a01b039091168152f35b346103be5760203660031901126103be57602061259960043561050661050182600052600260205260018060a01b0360406000205416151590565b604051906125a68161360e565b8152f35b346103be5760003660031901126103be576020604051620186a08152f35b346103be5760003660031901126103be57602060ff600b54166040519015158152f35b346103be5760003660031901126103be576020601654604051908152f35b346103be5760003660031901126103be576018546040516001600160a01b039091168152602090f35b346103be5760203660031901126103be576004356008548110156126695761265b6020916141d0565b90546040519160031b1c8152f35b60405162461bcd60e51b815260206004820152602c60248201527f455243373231456e756d657261626c653a20676c6f62616c20696e646578206f60448201526b7574206f6620626f756e647360a01b6064820152608490fd5b346103be5760003660031901126103be576017546040516001600160a01b039091168152602090f35b346103be5760003660031901126103be5760206040516101f48152f35b346103be576020806003193601126103be5760043561272b610ce08233613ca0565b61273481613b66565b61273c61470b565b6001600160a01b039080821690816128ee575050600854826000526009845280604060002055600160401b811015611ab557826114c982600161278294016008556141d0565b600854600019908181019081116109445783600052600985526127aa604060002054916141d0565b90549060031b1c6127be816114c9846141d0565b6000526009855260406000205582600052600060408120556008549081156128d857839281600093016127f0816141d0565b8482549160031b1b1916905560085561280884613b66565b908484526004875260408420916001600160601b0360a01b928381541690551691828452600387526040842090815401905583835260028652604083209081541690557fddf252ad1be2c89b69c2b068fc378daa952ba7f163c4a11628f55a4df523b3ef8280a4600a82526128816040600020546136da565b61288757005b600052600a8152604060002061289d81546136da565b806128a457005b600092601f82116001146128b757505055005b82845283209183916128d490601f0160051c8401600185016145e5565b5555005b634e487b7160e01b600052603160045260246000fd5b6128f790613aa3565b600019810191908211610944578360005260078552604060002054828103612944575b50836000526000604081205560005260068452604060002090600052835260006040812055612782565b816000526006865260406000208360005286526040600020548260005260068752604060002082600052875280604060002055600052600786526040600020558561291a565b346103be57610416610cf561299e36613644565b90604051926129ac8461354d565b60008452610ce5610ce08433613ca0565b346103be576020806003193601126103be576129d7613618565b6129e081613aa3565b6129e981613a31565b906129f76040519283613583565b808252612a0381613a31565b8285019390601f190136853760005b828110612a5d5750505090604051928392818401908285525180915260408401929160005b828110612a4657505050500390f35b835185528695509381019392810192600101612a37565b80612a6b612a7b9284614142565b612a758287614621565b5261424a565b612a12565b346103be5760003660031901126103be57612a99613a48565b600b5460ff811615612ad85760ff1916600b557f5db9ee0a495bf2e6ff9c91a7834c1ba4fdd244a5e8aa4e537bd38aeae4b073aa6020604051338152a1005b60405162461bcd60e51b815260206004820152601460248201527314185d5cd8589b194e881b9bdd081c185d5cd95960621b6044820152606490fd5b346103be5760003660031901126103be57612b2d613a48565b478015612b9557600b5460009182918291829160081c6001600160a01b03165af1612b56613f9c565b5015612b5e57005b60405162461bcd60e51b815260206004820152600f60248201526e151c985b9cd9995c8819985a5b1959608a1b6044820152606490fd5b60405162461bcd60e51b81526020600482015260146024820152734e6f2066756e647320746f20776974686472617760601b6044820152606490fd5b346103be5760403660031901126103be57600435612bed61362e565b600082815260026020526040902054612c10906001600160a01b03161515614207565b612c1982613b66565b6001600160a01b039190612c3090831633146147fb565b16908115612cf15780600052600f6020526040600020600260ff600b83015416612c598161360e565b14612cac57600d81600960009301600160a01b866affffffffffffffffffffff60a81b8354161717905501557f765c708a768252802c2dde478826b73df22134eba7d9ba3c8c4cc98149b2ecde600080a3005b60405162461bcd60e51b815260206004820152601760248201527f4167656e7420696e20637269746963616c2073746174650000000000000000006044820152606490fd5b60405162461bcd60e51b8152602060048201526014602482015273125b9d985b1a59081859d95b9d081dd85b1b195d60621b6044820152606490fd5b346103be5760403660031901126103be576020611f92612d4b613618565b60243590614142565b346103be5760203660031901126103be5760043560058110156103be57610a5a60209161368f565b346103be57612d8a36613679565b905060018060a01b03601754166101f491828102928184041490151715610944576127106040928351928352046020820152f35b346103be57610416612dcf36613644565b91612ddd610ce08433613ca0565b613d68565b346103be5760003660031901126103be576020600854604051908152f35b346103be5760403660031901126103be57612e19613618565b602435906001600160a01b038080612e3085613b66565b16921691808314612f2b57803314908115612f06575b5015612e9b57600083815260046020526040902080546001600160a01b03191683179055612e7383613b66565b167f8c5be1e5ebec7d5bd14f71427d1e84f3dd0314c0f7b2291e5b200ac8c7c3b925600080a4005b60405162461bcd60e51b815260206004820152603d60248201527f4552433732313a20617070726f76652063616c6c6572206973206e6f7420746f60448201527f6b656e206f776e6572206f7220617070726f76656420666f7220616c6c0000006064820152608490fd5b9050600052600560205260406000203360005260205260ff6040600020541684612e46565b60405162461bcd60e51b815260206004820152602160248201527f4552433732313a20617070726f76616c20746f2063757272656e74206f776e656044820152603960f91b6064820152608490fd5b346103be5760203660031901126103be57602061254c600435613b89565b346103be5760203660031901126103be57600435600081815260026020526040902054612fcf906001600160a01b03161515614207565b600052600f602052602060ff600b6040600020015416604051906125a68161360e565b346103be5760003660031901126103be5760405160008054613013816136da565b80845290600190818116908115610ba3575060011461303c57610ad084610abc81860382613583565b600080805292507f290decd9548b62a8d60345a988386fc84ba6bc95484008f6362f93160ef3e5635b82841061307d575050508101602001610abc82610b38565b80546020858701810191909152909301928101613065565b346103be576101403660031901126103be576101203660231901126103be576040516130c0816134c3565b602435815260443561ffff811681036103be5760208201526130e06135a4565b604082015260843560ff811681036103be5760608201526130ff6135b5565b608082015260c43560ff811681036103be5760a082015260e43560ff811681036103be5760c08201526101043560ff811681036103be5760e08201526101243561010082015233600052601260205260ff6040600020541680156133f6575b80156133dc575b61316e9061479b565b600435600090815260026020526040902054613194906001600160a01b03161515614207565b600435600052600f60205260406000206000600d8201558151600482015561327b6005820161ffff60208501511661ffff198254161781556131f361ffff604086015116829063ffff000082549160101b169063ffff00001916179055565b6060840151815466ffff0000000000608087015160281b169064ff0000000060ff60381b60a089015160381b169360201b169067ffffffff000000001916171717815561325c60ff60c086015116829060ff60401b82549160401b169060ff60401b1916179055565b60e0840151815460ff60481b191660489190911b60ff60481b16179055565b600661010083015191015561329360405180926138c0565b7f159bcc097cd171e4cc7dfc30b0e07b3a430ed510e189ca342e7029abcfe3e0ba61012060043592a2600435600052600f6020526127106132da600460406000200161398f565b600360ff60c08301511610156133aa575b61015e61ffff60408301511611613376575b600a60ff60e0830151161015613344575b51101561331757005b61041660405161332681613532565b6009815268574f524b484f52534560b81b6020820152600435614839565b61337160405161335381613532565b6009815268282620aca6a0a5a2a960b91b6020820152600435614839565b61330e565b6133a560405161338581613532565b600b81526a29a822a2a22fa222a6a7a760a91b6020820152600435614839565b6132fd565b6133d76040516133b981613532565b60098152684841545f545249434b60b81b6020820152600435614839565b6132eb565b50600b543360089190911c6001600160a01b031614613165565b506018546001600160a01b0316331461315e565b346103be5760203660031901126103be576004359063ffffffff60e01b82168092036103be5760209163152a902d60e11b811490811561344c575b5015158152f35b632483248360e11b811491508115613466575b5083613445565b63780e9d6360e01b811491508115613480575b508361345f565b6380ac58cd60e01b8114915081156134b2575b81156134a1575b5083613479565b6301ffc9a760e01b1490508361349a565b635b5e139f60e01b81149150613493565b61012081019081106001600160401b03821117611ab557604052565b608081019081106001600160401b03821117611ab557604052565b61010081019081106001600160401b03821117611ab557604052565b6101a081019081106001600160401b03821117611ab557604052565b604081019081106001600160401b03821117611ab557604052565b602081019081106001600160401b03821117611ab557604052565b606081019081106001600160401b03821117611ab557604052565b90601f801991011681019081106001600160401b03821117611ab557604052565b6064359061ffff821682036103be57565b60a4359061ffff821682036103be57565b60005b8381106135d95750506000910152565b81810151838201526020016135c9565b90602091613602815180928185528580860191016135c6565b601f01601f1916010190565b60041115611acb57565b600435906001600160a01b03821682036103be57565b602435906001600160a01b03821682036103be57565b60609060031901126103be576001600160a01b039060043582811681036103be579160243590811681036103be579060443590565b60409060031901126103be576004359060243590565b6005811015611acb576000526014602052604060002090565b6005811015611acb576000526015602052604060002090565b6005811015611acb576000526013602052604060002090565b90600182811c9216801561370a575b60208310146136f457565b634e487b7160e01b600052602260045260246000fd5b91607f16916136e9565b9060405191826000825492613728846136da565b9081845260019485811690816000146137975750600114613754575b505061375292500383613583565b565b9093915060005260209081600020936000915b81831061377f57505061375293508201013880613744565b85548884018501529485019487945091830191613767565b91505061375294506020925060ff191682840152151560051b8201013880613744565b6001600160401b038111611ab557601f01601f191660200190565b9291926137e1826137ba565b916137ef6040519384613583565b8294818452818301116103be578281602093846000960137010152565b9080601f830112156103be57816020613827933591016137d5565b90565b6024359081151582036103be57565b60409060031901126103be5760043560058110156103be579060243590565b906005821015611acb5752565b60e0809161ffff8082511685528060208301511660208601528060408301511660408601528060608301511660608601528060808301511660808601528060a08301511660a086015260c08201511660c08501520151910152565b8051825261ffff80602083015116602084015280604083015116604084015260ff6060830151166060840152608082015116608083015260ff60a08201511660a083015260ff60c08201511660c083015260ff60e08201511660e083015261010080910151910152565b90604051613937816134fa565b60e060018294805461ffff908181168652818160101c166020870152818160201c166040870152818160301c166060870152818160401c166080870152818160501c1660a087015260601c1660c08501520154910152565b9060405161399c816134c3565b610100600282948054845260ff600182015461ffff8082166020880152808260101c166040880152828260201c1660608801528160281c166080870152818160381c1660a0870152818160401c1660c087015260481c1660e08501520154910152565b8054821015613a1b5760005260206000209060021b0190600090565b634e487b7160e01b600052603260045260246000fd5b6001600160401b038111611ab55760051b60200190565b600b5460081c6001600160a01b03163303613a5f57565b606460405162461bcd60e51b815260206004820152602060248201527f4f776e61626c653a2063616c6c6572206973206e6f7420746865206f776e65726044820152fd5b6001600160a01b03168015613ac357600052600360205260406000205490565b60405162461bcd60e51b815260206004820152602960248201527f4552433732313a2061646472657373207a65726f206973206e6f7420612076616044820152683634b21037bbb732b960b91b6064820152608490fd5b15613b2157565b60405162461bcd60e51b815260206004820152601860248201527f4552433732313a20696e76616c696420746f6b656e20494400000000000000006044820152606490fd5b6000908152600260205260409020546001600160a01b0316613827811515613b1a565b600081815260026020526040902054613bac906001600160a01b03161515613b1a565b6000908152600460205260409020546001600160a01b031690565b15613bce57565b60405162461bcd60e51b815260206004820152602d60248201527f4552433732313a2063616c6c6572206973206e6f7420746f6b656e206f776e6560448201526c1c881bdc88185c1c1c9bdd9959609a1b6064820152608490fd5b60809060208152603260208201527f4552433732313a207472616e7366657220746f206e6f6e20455243373231526560408201527131b2b4bb32b91034b6b83632b6b2b73a32b960711b60608201520190565b15613c8357565b60405162461bcd60e51b815280613c9c60048201613c29565b0390fd5b906001600160a01b038080613cb484613b66565b16931691838314938415613ce7575b508315613cd1575b50505090565b613cdd91929350613b89565b1614388080613ccb565b909350600052600560205260406000208260005260205260ff604060002054169238613cc3565b15613d1557565b60405162461bcd60e51b815260206004820152602560248201527f4552433732313a207472616e736665722066726f6d20696e636f72726563742060448201526437bbb732b960d91b6064820152608490fd5b613d8c91613d7584613b66565b6001600160a01b0393848416939185168414613d0e565b838216938415613f4b578391613da061470b565b82613ea8575090506008549085600052600960205281604060002055600160401b821015611ab557613dfa92613de1876114c98560018997016008556141d0565b828603613e75575b50613df386613b66565b1614613d0e565b7fddf252ad1be2c89b69c2b068fc378daa952ba7f163c4a11628f55a4df523b3ef60008481526004602052604081206001600160601b0360a01b9081815416905583825260036020526040822060001981540190558482526040822060018154019055858252600260205284604083209182541617905580a4565b613e7e90613aa3565b60406000878152600660205281812083825260205288828220558881526007602052205538613de9565b858303613eba575b50613dfa92613de1565b613ec5919250613aa3565b60001981019190821161094457613dfa9284926000908882526020906007825260409182842054828103613f14575b508a84528383812055868452600681528284209184525281205592613eb0565b8785526006825283852083865282528385205488865260068352848620828752835280858720558552600782528385205538613ef4565b60405162461bcd60e51b8152602060048201526024808201527f4552433732313a207472616e7366657220746f20746865207a65726f206164646044820152637265737360e01b6064820152608490fd5b3d15613fc7573d90613fad826137ba565b91613fbb6040519384613583565b82523d6000602084013e565b606090565b9091600091803b156140be576140176020918493604051948580948193630a85bd0160e11b9a8b845233600485015284602485015260448401526080606484015260848301906135e9565b03926001600160a01b03165af19082908261406f575b50506140615761403b613f9c565b8051908161405c5760405162461bcd60e51b815280613c9c60048201613c29565b602001fd5b6001600160e01b0319161490565b909192506020813d82116140b6575b8161408b60209383613583565b810103126140b25751906001600160e01b0319821682036140af575090388061402d565b80fd5b5080fd5b3d915061407e565b50505050600190565b91926000929190813b156141385760209161411d9185604051958680958194630a85bd0160e11b9b8c845233600485015260018060a01b03809516602485015260448401526080606484015260848301906135e9565b0393165af19082908261406f5750506140615761403b613f9c565b5050505050600190565b61414b81613aa3565b8210156141775760018060a01b0316600052600660205260406000209060005260205260406000205490565b60405162461bcd60e51b815260206004820152602b60248201527f455243373231456e756d657261626c653a206f776e657220696e646578206f7560448201526a74206f6620626f756e647360a81b6064820152608490fd5b600854811015613a1b5760086000527ff3f7a9fe364faab93b216da50a3214154f22a0a2b415b23a84c8169e8b636ee30190600090565b1561420e57565b60405162461bcd60e51b8152602060048201526014602482015273151bdad95b88191bd95cc81b9bdd08195e1a5cdd60621b6044820152606490fd5b60001981146109445760010190565b90600091808352602090600f82526040808520600c810190815460165481018091116145d1574210806145c3575b6145b457869183516142988161354d565b8881526006830154611c2081018091116145a05790869798997f9d369fff9aec363082799e0ffca79f49fdf7ee5ae3454fd5db6ebd9a09261f5897924211614544575b600d8501906005825410156144fb575b8a8860098801805460ff8160a01c16806144ea575b614408575b505050509160ff959391600b9593886000146143a5575050848401908154918783166143308161360e565b1561435b575b505050505b4290550154169482519161434e8761360e565b868352151590820152a290565b60017f5c800c33f0ad1ea8cc92d9d6de883810d340616472da40da5e1cec36e020cd2f938919161790558b6143998a519282849384528301906135e9565b0390a287388080614336565b9150915084840191868354166143ba8161360e565b6143cc575b558419815416905561433b565b6144038c75105b1b08191a5859db9bdcdd1a58dcc81c185cdcd95960521b8b51916143f683613532565b601683528201528c61469f565b6143bf565b8760ff9a9896949b50600b9997507f172ffe120c5a99836d395f1fc8f3b426f5ca77708118dca216bdc34ecf3a69f560019694969c875161444881613568565b602681527f4167656e7420656e61626c656420627574206e6f2077616c6c657420636f6e6682820152651a59dd5c995960d21b898201526144ce81997f44697361626c6564206167656e742064756520746f206d697373696e672077618151946144b186613568565b60248652850152631b1b195d60e21b8185015251928392836145fc565b0390a28960a01b1916905591939550919395508a883880614305565b506001600160a01b03811615614300565b875160019750925061450c83613532565b601e83527f4d617820636f6e7365637574697665206572726f7273207265616368656400008b84015261453f8385614635565b6142eb565b945050600193855161455581613568565b602481527f5374616c652064617461202d206e6f207570646174657320666f7220322b20688a820152636f75727360e01b8782015290600d8501614599815461424a565b90556142db565b634e487b7160e01b8a52601160045260248afd5b600b015460ff16955050505050565b506005600d82015410614287565b634e487b7160e01b88526011600452602488fd5b8181106145f0575050565b600081556001016145e5565b9091614613613827936040845260408401906135e9565b9160208184039101526135e9565b8051821015613a1b5760209160051b010190565b9061469a7f5c800c33f0ad1ea8cc92d9d6de883810d340616472da40da5e1cec36e020cd2f9183600052600f60205260096040600020600b8101600260ff198254161790550160ff60a01b1981541690556040519182916020835260208301906135e9565b0390a2565b9081600052600f6020526040600020917f4bff60f46d7096203e8d6639e7b4f599db52c1cda9235691e16ea7de49432bee6146f9600b8501936000600d60ff198754169701556040519182916020835260208301906135e9565b0390a255565b6005821015611acb5752565b60ff600b541661471757565b60405162461bcd60e51b815260206004820152601060248201526f14185d5cd8589b194e881c185d5cd95960821b6044820152606490fd5b1561475657565b60405162461bcd60e51b815260206004820152601c60248201527f4552433732313a20746f6b656e20616c7265616479206d696e746564000000006044820152606490fd5b156147a257565b60405162461bcd60e51b815260206004820152601860248201527f4e6f7420617574686f72697a656420746f2075706461746500000000000000006044820152606490fd5b9060ff8091169116019060ff821161094457565b1561480257565b60405162461bcd60e51b815260206004820152600f60248201526e2737ba103a37b5b2b71037bbb732b960891b6044820152606490fd5b9061469a7f6bc4d6c1830c8afab502689e580fe13c07eaf372ff08f7ded0f6adfcfa192383916040519182916020835260208301906135e9565b6000818152600260205260409020546001600160a01b031615614b785760008181526020600f8152600a926148ac846040852001613714565b8051614b70575090829084837a184f03e93ff9f4daa797ed6e38ed64bf6a1f0100000000000000008181811015614b5f575b5050826d04ee2d6d415b85acef810000000080831015614b53575b5050662386f26fc1000080821015614b46575b506305f5e10080821015614b39575b5061271080821015614b2c575b506064811015614b1e575b1015614b14575b6001908183019561496361494d886137ba565b9761495b604051998a613583565b8089526137ba565b94836021848a0196601f198099013689378a0101905b614ae5575b5050506040519586938691601a54614995816136da565b90858782169182600014614ac6575050600114614a6c575b5082916149bd91519384916135c6565b019085601b54936149cd856136da565b94818116908115614a4d57506001146149f6575b50505050506138279203908101835282613583565b601b82527f3ad8aa4f87544323a9d1e5dd902f40c356527a7955687113db5f9a85ad579dc197505b848210614a3757505050019250613827388080806149e1565b8754848301529687019688955090820190614a1e565b60ff1916855250505050811515909102019250613827388080806149e1565b601a895291925090877f057c384a7d1c54f3a1b2e5e67b2617b8224fdfd1ea7234eea573a6ff665ff63e5b828210614aae5750508501830191906149bd6149ad565b80549782018601979097528996908501908601614a97565b60ff191689820152821515909202880190910193506149bd90506149ad565b600019019082906f181899199a1a9b1b9c1cb0b131b232b360811b8282061a835304908482614979575061497e565b906001019061493a565b606460029104930192614933565b6004910493019238614928565b600891049301923861491b565b601091049301923861490c565b940193900482386148f9565b6040955088935004905038806148de565b935050505090565b60405162461bcd60e51b815260206004820152601f60248201527f55524920717565727920666f72206e6f6e6578697374656e7420746f6b656e006044820152606490fdfea2646970667358221220e039c349d81f7e68048e5e2f90f03dd5841c608a3798ef01300b3eacea7ed83664736f6c63430008130033",
  "linkReferences": {},
  "deployedLinkReferences": {}
}